:0A0000000234A35395EF5396EF224C
:10000B00020800438E805389F0758A50758CFBC2B1
:10001B008DD2A9C2B9D28C22021635E4F52BC213AC
:10002B00FB7A00792BF53D753E017F05FE121951C8
:10003B00C2929002767403F0A374E8F07F03121B54
:0E004B00717FDC7E050220DE0219B2A2A42223
:10005B00021A0878067C007D017BFF7A3379887E53
:10006B00007F2D1227A478337C007D017BFF7A3330
:10007B0079B57E007F2D1227A4E4F52BC200C201B7
:10008B0078607C007D017BFF7A3379E2FE7F0E1274
:10009B0027A42012022171C2127E007F2D7D007BCE
:1000AB00017A007933122B409001B7E064CC704990
:1000BB009001C4E0642D7041900237E0C3942D4051
:1000CB003878B17C017D017B017A0179BE7E007F9E
:1000DB00061227A49001B7E0900033F078347C002F
:1000EB007D017B017A0179C47E007F201227A4E475
:1000FB00F51D9001B0742D80309001B7E064AA70AB
:10010B002FA3E064217029900237E0B421227833C9
:10011B007C007D017B017A0179B77E007F2112275C
:10012B00A4751D019001B07421F0F52BD20080361F
:10013B009001B7E064AA7029A3E0B41424900237AD
:10014B00E0B40E1D78337C007D017B017A0179B719
:10015B007E007F0E1227A4751D02752B14D2008012
:10016B0005751D03C200300078C202C203C200E550
:10017B002B24EC605024E76004240C70627B017A22
:10018B000079387D1C121D6E900037E0B50702D246
:10019B000278387C007D017B017A0279717E007FC9
:1001AB0005122B1CEF7002D203900036E0B4140240
:1001BB00D202900036E0B40902D203A203820350AC
:1001CB0020D201801C78367C007D017B017A02797C
:1001DB00717E007F05122B1CEF7006D2018002C2CC
:1001EB0001200102A193C201E51D14600B147002E2
:1001FB00A13B24026002A193C202D203900036E01D
:10020B00F52C7E007F2D7D007B017A007906122B69
:10021B0040E52C24F7B41100400281FF90023125F8
:10022B00E05002058373416F81FF81FF81FF81FFE6
:10023B0081FF81FF415341E581FF81FF41FC81FF3C
:10024B0081FF813B8152816990003EE0146008047C
:10025B0070087518018003E4F51890003EE09000DB
:10026B0011F081FFE4F52DFB7A00792DF5447545EE
:10027B00017F05FE121BAEE52D705B78027C007DC5
:10028B00017BFF7A3379F0FE7F041227A478027C7E
:10029B00007D017B017A0079397E007F041227A44F
:1002AB007B017A0079021212DE90003FE0F513A376
:1002BB00E0F5147B007A007913753D00753E017FE4
:1002CB00037E001219517B007A007914753D00757D
:1002DB003E017F04814EC20381FFE4F52DFB7A00C2
:1002EB00792DF5447545017F05FE121BAEE52D8179
:1002FB00FFE4F52D782E7C00FD7BFF7A3379F4FE3D
:10030B007F071227A490004DE0F52EA3E0F52FA355
:10031B00E0F531A3E0F532853215A3E0F533A3E028
:10032B00F53078357C007D007B007A00792E7E00DD
:10033B007F071227A41218F6900040E0245F607329
:10034B0014700261EB240260028129E4F52DE52D86
:10035B0075F003A42441F582E43400F583E0B48006
:10036B003BAF2D7401A807088002C333D8FC426B46
:10037B00E52D75F003A42441F582E43400F583C028
:10038B0083C082E0FF900052E014FE7401A80608BF
:10039B008002C333D8FC4FD082D083F0052DE52DDE
:1003AB00B404AB7B017A007941753D00753E0C7F3F
:1003BB00108066900041E0601B436C02F56DA3E07A
:1003CB00B40204D21F8002C21F900042E024FF92AD
:1003DB001FE48006536CFDE4F56DF566F567803E12
:1003EB00900041E06008436C01F565E48006536CB6
:1003FB00FEE4F565F569F56A7B007A00796C753D6D
:10040B0000753E017F207E001219517B007A007926
:10041B0065753D00753E017F217E001219519000DC
:10042B003FE0900012F0900040E0900013F081FF4D
:10043B00752D01D2137B007A00792D753D00753E29
:10044B00017F057E008012E4F52DC213FB7A007943
:10045B002DF53D753E017F05FE12195181FF900070
:10046B003FE0900012F0900040E0900013F09000FD
:10047B00402460600A14605214607324A27075E407
:10048B00F52D7B017A007914F54475450C7F10FE30
:10049B00121BAEE4F52D74017E00A82D088005C358
:1004AB0033CE33CED8F9FFEF556B6013E52D75F0D6
:1004BB0003A42414F582E43400F583E05480F005A2
:1004CB002DE52DB404D0D202802AAE66AF677C0036
:1004DB007D3C122856C3E56D9F900014F0301F062B
:1004EB00A37402F0800E9000157401F0800690004A
:1004FB0014E565F03003207B017A007906852C39F1
:10050B00A20292047D0A12117E7B017A0079069079
:10051B0001B0E0FD122159E51D6402606BE52C640E
:10052B00096065E51D6401705F7F01121B718058C6
:10053B00900035E024DE7050782C7C007D007BFF32
:10054B007A3379FB7E007F071227A490003CE0F5FD
:10055B0033A3E0F534752C1285332D85342F9000A1
:10056B003BE0F52E90003EE0F530A3E0F531A3E043
:10057B00F53278357C007D007B007A00792C7E008B
:10058B007F071227A41218F69001AEE0FEA3E0FF3E
:10059B00E4FCFDAB1CAA1BA91AA819D31228B9405D
:1005AB0002E114E49001AEF0A3F0FE7F14FD7B0199
:1005BB007A007960122B4090006074AAF0A3741437
:1005CB00F0201002C1D0B210A37422F078637C002B
:1005DB007D017B017A0279717E007F051227A47B56
:1005EB00007A0079137544007545017F037E001274
:1005FB001BAE7B007A0079147544007545017F04AE
:10060B007E00121BAE900068E513F0A3E514F0908A
:10061B000254E0FCA3E0FDA3E0FEA3E0FF1224B133
:10062B00752C008F2DAC2CAD2DE4122478A804A9C9
:10063B0005AA06AB07900254E0FCA3E0FDA3E0FE85
:10064B00A3E0FF12215F7B007A40791C78461222CF
:10065B00541224B18E2E8F2F90006AE52DF0EEA34D
:10066B00F0A3E52FF0900244E0FCA3E0FDA3E0FE35
:10067B00A3E0FF1224B18E2C8F2DAC2CAD2DE412E8
:10068B002478A804A905AA06AB07900244E0FCA3B2
:10069B00E0FDA3E0FEA3E0FF12215F7B007A40792F
:1006AB001C78461222541224B18E2E8F2FE52C90DB
:1006BB00006DF0A3E52DF0E52EA3F0A3E52FF0A33D
:1006CB00E515F0802FB2109000627423F078637CF4
:1006DB00007D017B017A0279717E007F051227A4D0
:1006EB00A213E433900068F0A21EE433A3F0A2201F
:1006FB00E433A3F09000727407F0A374ABF07B01AA
:10070B007A0079607D14122159228B2C8A2D892E27
:10071B007B007A00792F75440075450C7F107E00A5
:10072B00121BAEE4F53BE53B75F003A4242FF8E672
:10073B00547FFFAB2C75F003E53BA4252EF9E52D7B
:10074B0035F0FA1227CA54804FFF122810E53B757B
:10075B00F003A4242FF8E65480C41313135401C4DC
:10076B003333335480FEEF547F4E122810E53B7524
:10077B00F003A42430F8E654E0C4135407FDE53B22
:10078B0075F003A4AB2C252EF9E52D35F0FAE924F1
:10079B0001F9E43AFA1227CA54F84DFF122810E572
:1007AB003B75F003A42430F8E6541F33333354F86D
:1007BB00FEEF54074E122810E53B75F003A42431CD
:1007CB00F8E6FDE53B75F003A4AB2C252EF9E52DE2
:1007DB0035F0FA900002ED122822053BE53B64044C
:1007EB006002E131227D367C07ED1D70011C144C3B
:1007FB0070F7DFF122C0E0C0F0C083C082C0D075BB
:10080B00D000C000C001C002C003C004C005C006B8
:10081B00C0079036E0E493FFE577C39F500405775C
:10082B00804A757700E511147040301809C2189092
:10083B00025CE4F0A3F09036E1E493FE740193FFC5
:10084B00C390025DE09F90025CE09E5010A3E00419
:10085B00F0700690025CE004F0B2B2800F90025C84
:10086B00E4F0A3F0D2B2F5118002D2B29036DEE4FE
:10087B0093FE740193FFC390026FE09F90026EE0B2
:10088B009E500EA3E004F0704F90026EE004F080D7
:10089B004790026EE4F0A3F0E51024FE601514609F
:1008AB001714601914601B14601D2405702A121F85
:1008BB00D78025121E558020121E81801B121ED739
:1008CB008016121D358011900244E0FCA3E0FDA3BD
:1008DB00E0FEA3E0FF120F7BE51224FE6010146014
:1008EB001814605624036002217AC2A5217C3020A3
:1008FB0004C2A5807CD2A580789036E3E493FE7485
:10090B000193FFC390025FE09F90025EE09E500E4A
:10091B00A3E004F0705B90025EE004F08053900261
:10092B005EE4F0A3F0E57560061575B2A58042D2C2
:10093B00A59036E5E493F5758030C2A59036E6E4D4
:10094B0093FE740193FFC3900261E09F900260E0FD
:10095B009E500EA3E004F07018900260E004F0804B
:10096B0010900260E4F0A3F0D2A57512028002D2BF
:10097B00A59036DCE493FE740193FFC390026DE007
:10098B009F90026CE09E500EA3E004F07006900264
:10099B006CE004F0806D90026CE4F0A3F0E56C3039
:1009AB00E132AF6D7E007C007D3C122844C3E567CD
:1009BB009FE5669E500A0567E5677018056680140B
:1009CB00756600756700536CFD301F0575680080F8
:1009DB0003756801E56C30E02A302027AF657E0097
:1009EB007C007D3C122844C3E56A9FE5699E500A52
:1009FB00056AE56A700D05698009756900756A00FD
:100A0B007568019036DBE493FFE576C39F500405D0
:100A1B007641EA7576009001AFE004F07006900124
:100A2B00AEE004F0301C0878A706E61870010690BB
:100A3B000276E07002A3E06010900277E024FFF0F2
:100A4B00900276E034FFF08002D2929036D9E49394
:100A5B00FE740193FFC390026BE09F90026AE09ECD
:100A6B00500EA3E004F0707790026AE004F0806F00
:100A7B0090026AE4F0A3F0900240E0FCA3E0FDA337
:100A8B00E0FEA3E0FF9002581228EDE4FFFE7DA0EC
:100A9B007C40900258E0F8A3E0F9A3E0FAA3E0FB56
:100AAB001223FA60264024E4FFFE7DA07C409002D6
:100ABB0062E0F8A3E0F9A3E0FAA3E0FB1223FA60EB
:100ACB00025008302005751005D217900258E0FC33
:100ADB00A3E0FDA3E0FEA3E0FF9002621228ED303D
:100AEB00113AE516C3940F50040516802F20122AD5
:100AFB00D2127E007F407DFF7B017A0179B7122BEA
:100B0B0040AF177E0078B77C017D017B017A0079BD
:100B1B00EE1227A4900237E517F0C2119036D512CA
:100B2B0028DD900266E0F8A3E0F9A3E0FAA3E0FB6E
:100B3B00D31228B95021900266E0FCA3E0FDA3E09C
:100B4B00FEA3E02401FFE43EFEE43DFDE43CFC900B
:100B5B0002661228EDA12F9002661228F900000000
:100B6B0000E4FBFA79A07840900238E0FCA3E0FDAA
:100B7B00A3E0FEA3E0FF12235D90023C1228EDE4FC
:100B8B00FBFA79A07840900240E0FCA3E0FDA3E0E3
:100B9B00FEA3E0FF12235D9002501228EDE4FFFE4E
:100BAB007DA07C40900250E0F8A3E0F9A3E0FAA30B
:100BBB00E0FB1223FA600A4008302005751006D2BC
:100BCB00173081427FF97E1D7D5C7C3590023CE0C5
:100BDB00F8A3E0F9A3E0FAA3E0FB122254A804A9BE
:100BEB0005AA06AB077F737EDB7DB67C3E12215FC9
:100BFB0090023CE0F8A3E0F9A3E0FAA3E0FB122299
:100C0B005490024880387F7A7E167D257C36900280
:100C1B003CE0F8A3E0F9A3E0FAA3E0FB1222547B3B
:100C2B004F7A9279E4784012216390023CE0F8A36A
:100C3B00E0F9A3E0FAA3E0FB12225490024C122835
:100C4B00ED7F777ECC7D2B7C32900250E0F8A3E0D9
:100C5B00F9A3E0FAA3E0FB122254A804A905AA0603
:100C6B00AB077F727E277D8D7C4012215F900250F7
:100C7B00E0F8A3E0F9A3E0FAA3E0FB122254900200
:100C8B00441228ED900250E0FCA3E0FDA3E0FEA38C
:100C9B00E0FF1224B18E258F26E52645257005F53C
:100CAB0025752601900254E0F8A3E0F9A3E0FAA31E
:100CBB00E0FBC000C001C002C003AC25AD26E412AE
:100CCB0024787B007ABA795B784A122254C004C02C
:100CDB0005C006C007900244E0FCA3E0FDA3E0FEC4
:100CEB00A3E0FF900240E0F8A3E0F9A3E0FAA3E051
:100CFB00FB122254D003D002D001D00012235DD0BE
:100D0B0003D002D001D0001221639002541228EDBF
:100D1B009002381228F9000000009002401228F9C6
:100D2B0000000000D007D006D005D004D003D002BD
:100D3B00D001D000D0D0D082D083D0F0D0E032E43C
:100D4B00F52B78027C007D017BFF7A3679C0FE7F24
:100D5B00071227A478097C007D017BFF7A3679C7BF
:100D6B007E007F0C1227A47B017A0079021216CF2A
:100D7B00201D28D21D7B007A00796C7544007545C7
:100D8B00017F207E00121BAE7B007A0079657544D3
:100D9B00007545017F217E00121BAE900007E070AD
:100DAB0011A3E0D3941E500A9002541228F90000AC
:100DBB0000007B017A007909120715900009E020E9
:100DCB00E71890000CE020E71190000FE020E70AF5
:100DDB00900012E020E703C21E22D21EE4F52BE5A1
:100DEB002B75F003A42409F582E43400F583E05459
:100DFB007FFD900004E0FF121EAD4002E16FE52B7A
:100E0B0075F003A42409F582E43400F583E0C413E0
:100E1B001313540120E002E16FE52B75F003A424BA
:100E2B000AF582E43400F583E0131313541F75F0B5
:100E3B003CA4FFAEF0E52B75F003A4240BF582E484
:100E4B003400F583E07C002FFDEC3EFC900006E0C7
:100E5B0075F03CA4FFA3E07A002FFFEA35F0FEEF1C
:100E6B006D7002EE6C7068A3E0D394055061740151
:100E7B007E00A82B088005C333CE33CED8F9FFEF05
:100E8B00556B602CAF2B7401A807088002C333D8B5
:100E9B00FCF4526BE52B75F003A42410FFE435F042
:100EAB00FE7BFF7A3679D3753D00753E01121951E1
:100EBB00E52B75F003A4240AF582E43400F583E0F6
:100ECB00540730E005E4F568E16F756801E16FE503
:100EDB002B75F003A4240AF582E43400F583E013A8
:100EEB001313541F75F03CA4FFAEF0E52B75F00304
:100EFB00A4240BF582E43400F583E07C002FFDEC99
:100F0B003EFC900006E075F03CA4FFA3E07A002FB6
:100F1B00FFEA35F0FED3EF9DEC6480F8EE64809829
:100F2B00404274017E00A82B088005C333CE33CE1C
:100F3B00D8F9FFEF556B602CAF2B7401A807088015
:100F4B0002C333D8FCF4526BE52B75F003A42410C9
:100F5B00FFE435F0FE7BFF7A3679D4753D00753EA4
:100F6B0001121951052BE52BC394045002A1EA225F
:100F7B008F2A8E298D288C2743A08FE4FFFE7DA01E
:100F8B007C40AB2AAA29A928A8271223FA6004407F
:100F9B0002C2A0E4FFFE7DC87C42AB2AAA29A92885
:100FAB00A8271223FA60044002C2A1E4FFFE7D4889
:100FBB007C43AB2AAA29A928A8271223FA6004404C
:100FCB0002C2A2E4FFFE7D967C43AB2AAA29A92884
:100FDB00A8271223FA60044002C2A3E4FFFE7DC8D7
:100FEB007C43AB2AAA29A928A8271223FA6004401C
:040FFB0002C2A72265
:1010000078027C007D017BFF7A3279CA7E007F0402
:101010001227A478067C007D017BFF7A3279CE7E90
:10102000007F281227A4752B13752C88C2A67FC8B1
:101030007E001220DED2A67FB87E0B80143093167D
:10104000E52C152CAE2B7002152B4E60097F017E0E
:10105000001220DE80E7E52C452B7002C3227F0FB3
:10106000121A5E400122121C284001227F0A7E00D3
:101070001220DE7A327989121C2C40012278387CC9
:10108000007D007BFF7A3279A3121C344001227B61
:10109000017A0079027544007545047F307E0012A4
:1010A0001BAE753BFF753C32753D51900002E075FB
:1010B0003E00F53FA3E0754000F541A3E075420016
:1010C000F543A3E0754400F5457B017A00790612EB
:1010D0002BEF7F0A7E001220DE7549FF754A3275BC
:1010E0004BA6754CFF754D32754EAC9032AEE49305
:1010F000F54F740193F5507551057B017A0079061F
:101100001215924001227F0A7E001220DE90329654
:10111000E493FB740193FA740293F9123556AD0708
:10112000903296E493FB740193FA740293F91221BE
:10113000597FC87E001220DE903296E493FB740142
:1011400093FA740293F9123556AD07903296E493F0
:10115000FB740193FA740293F9122159309316E546
:101160002C152CAE2B7002152B4E60097F017E00D2
:101170001220DE80E7E52C452BD37001C3228B358E
:101180008A3689378D38E51D147002417304600278
:1011900041DD786E7C007D017BFF7A3379487E00EB
:1011A0007F201227A4AB35AA36A93774CC12281099
:1011B000AB35E5372401F9E43536FA786E7C007DED
:1011C000017E007F201227A4E537240DF9E435368F
:1011D000A801FCAD357B017A00796E7E007F20127C
:1011E00027A4E5372401F9E43536A801FCAD357BA9
:1011F000017A0179B17E007F061227A4E537240821
:10120000F9E43536A801FCAD357B017A0279717EAF
:10121000007F051227A4AB35AA36A93790000D74BC
:101220002D12282290000EE53812282290000FE59A
:101230003912282220040EAB35AA36A937900016A1
:101240007407122822E5372411F9E43536A801FC89
:10125000AD357B017A0279717E007F051227A4AB40
:1012600035E5372411121D67AB35AA36A937900032
:10127000108066AB35AA36A93774AA122810AB3590
:10128000AA36A9379000017421122822900002E5A5
:1012900038122822900003E53912282220040EABD0
:1012A00035AA36A93790000A7407122822E5372498
:1012B00005F9E43536A801FCAD357B017A02797178
:1012C0007E007F051227A4AB35E5372405121D6784
:1012D000AB35AA36A937900004EF122822228B35AD
:1012E0008A368937787A7C007D007BFF7A3279F6FE
:1012F0007E007F281227A478A27C007D007BFF7AE5
:1013000033791E7E007F041227A47B007A0079A225
:101310007544007545047F307E00121BAE78A27CB8
:10132000007D00AB35AA36A9377E007F04122B1C46
:10133000EF7002D322AB35AA36A937753D00753E52
:10134000047F307E00121951753BFF753C32753DAC
:1013500051AB35AA36A9371227CA753E00F53F9022
:1013600000011227E3754000F5419000021227E3C7
:10137000754200F5439000031227E3754400F545DC
:101380007B007A00797A122BEF7F0A121A5E4001F5
:1013900022121C284001227549FF754A32754BA65E
:1013A000754CFF754D32754EAC9032AEE493F54FEF
:1013B000740193F5507551057B007A00797A121506
:1013C00092400122903296E493FB740193FA7402E6
:1013D00093F9123556AD07903296E493FB7401935E
:1013E000FA740293F91221597FC87E001220DE9010
:1013F0003296E493FB740193FA740293F912355612
:10140000AD07903296E493FB740193FA740293F95A
:10141000122159D322782B7C007D007BFF7A36790C
:10142000A87E007F141227A47F0A7E001220DE7B94
:10143000007A00792B7544007545017F017E00120A
:101440001BAE7F0A7E001220DEE52B64A1700281B4
:10145000EBE4FFFE12201F7F0A7E001220DE752BB8
:10146000A17B007A00792B7544007545017F017ED0
:1014700000121BEB7F0A7E001220DEE4F52BFB7AC4
:1014800000792BF5447545017F05FE121BEB7F0AA1
:101490007E001220DE7E007F0C7D007B007A0079CA
:1014A0002B122B407B007A00792B75440075450D7B
:1014B0007F107E00121BEB7F0A7E001220DE782B4D
:1014C0007C007D007BFF7A3679BC7E007F0412278A
:1014D000A47B007A00792B7544007545047F307E2B
:1014E00000121BEB7F0A7E001220DE228B2B8A2C3F
:1014F000892D1200564062D21B201C02D21C78A6F5
:10150000E6FE08E6FFD39036EA7401939FE4939ECB
:101510005019C39036EC7401939FE4939E400C20C5
:101520001909AA2FA930122990D21978A6E6FE0827
:10153000E6FFD39036EC7401939FE4939E5052C320
:101540009036EE7401939FE4939E4045201A42AA80
:1015500032A933122990D21A22C21C301B33C21B6B
:1015600078A6E6FE08E6FFD39036EA7401939FE47E
:10157000939E40139036E87401939FE4939E500726
:10158000AA2CA92D122990E478A6F608F6C219C251
:101590001A228B468A478948E4F552F553F554F5EB
:1015A00055C212F552E552C395514002C133854FE1
:1015B00054855055AB46AA47A948123556AD07ABDE
:1015C00046AA47A948122159E5551555AE5470024F
:1015D00015544E605A7F027E001220DE3012E9C29E
:1015E00012E4F553E553C3940250DD900237E0FD59
:1015F000AB49AA4AA94B75F003E553A4F58285F0DF
:101600008312293A8B5A8A5B895CAB4CAA4DA94E4E
:101610008553827583001227E3F55D7B017A01799A
:10162000B7121765EA494B6002D322055380B5050E
:1016300052A1A5C322C0E0C0F0C083C082C0D07553
:10164000D000C000C001C002C003C004C005C00675
:10165000C007C2AF309831C298E574702B201114C6
:10166000D211F516F517FE7F407DFF7B017A0079D8
:10167000EE122B40AF17051774EE2FF582E43400FD
:10168000F583E599F0751600309927C299E56F65E5
:1016900070601C742E256FF582E43401F583E0F54B
:1016A00099056FE56FC394804008756F00800375DE
:1016B0007100D2AFD007D006D005D004D003D0023D
:1016C000D001D000D0D0D082D083D0F0D0E0328B07
:1016D0002C8A2D892E7F08121E27122119AB2CAAC5
:1016E0002DA92EEF1228107F07121E27122119ABE9
:1016F0002CAA2DA92E900001EF1228227F06121E7F
:1017000027122119AB2CAA2DA92E900002EF122826
:10171000227F05121E27122119AB2CAA2DA92E906B
:101720000003EF1228227F04121E27122119AB2C6E
:10173000AA2DA92E900004EF1228227F03121E2743
:10174000122119AB2CAA2DA92E900005EF122822E8
:101750007F02121E27122119AB2CAA2DA92E900050
:1017600006EF0228228D598B568A578958E4F55E78
:101770008B5F8A608961855A62855B63855C64C31F
:10178000E5619558FFE5609557FE7C00EF255DFF0C
:10179000EC3EFED3EF95597480F86E985047AB62DB
:1017A0000564E564AA637002056314F91227CAFF91
:1017B000AB5F0561E561AA607002056014F912274C
:1017C000CAB50713055EE55EB55DD3C3E561955DFA
:1017D000F9E5609400FA22855A62855B63855C6452
:1017E000E4F55E809A7B007A00790022EF1F700199
:0F17F0001E144E60090000000000000080EE2271
:101800008B39753A0AEF75F032A4AEF02464F53CDA
:10181000E43EF53BAE04AF057C037DE8122844AC02
:101820003BAD3C1228568E3D8F3EE4FBFAC3EB9550
:101830003EEA953D503DC2B2E53AFD7C00AE3BAF7D
:101840003C122856AD397C001228441217ECD2B253
:10185000E53AF582AE3BAF3CFD122856C3E58295D2
:1018600039FDE49400FC1228441217EC0BBB000174
:101870000A80BA22C2AFD2BCE598543F4440F598E2
:10188000E4752E38752D01F52CF52BC3952EF52E0C
:10189000E4952DF52D7401952CF52CE4952BF52B65
:1018A000AF2EAE2DAD2CFC78081228CA8FD6852E0F
:1018B000D7538EEF438E01538EF7438E0453AFFB05
:1018C000538EF7438E10D2ACD29C53A23F7E007F42
:1018D000807D007B017A01792E122B40D2AF7BFFF5
:1018E0007A33792202210678357C007BFF7A3479BD
:1018F000957F071227A4AF351220F3AD077F08129A
:101900001F4AAF361220F3AD077F07121F4AE53793
:10191000600BFF1220F3AD077F06121F4AAF38128B
:1019200020F3AD077F05121F4AAF391220F3AD0730
:101930007F04121F4AAF3A1220F3AD077F03121F34
:101940004AE53B600BFF1220F3AD077F02121F4AEE
:10195000228E388F398B3A8A3B893C786E7C007DA9
:10196000017BFF7A3579F27E007F801227A47B010C
:101970007A00796E754400754580E4FFFE121BAE57
:10198000E4FF12201FAE3DAF3E746E2539F974009E
:101990003538A801FC7D01AB3AAA3BA93C1227A42B
:1019A0007B017A00796E754400754580E4FFFE0284
:1019B0001BEBC0E0C0F0C083C082C0D075D000C0B7
:1019C00000C001C002C003C004C005C006C007902B
:1019D0000240E0FCA3E0FDA3E0FEA3E0FFE4FBFA8D
:1019E0007980783F1221639002401228EDD007D011
:1019F00006D005D004D003D002D001D000D0D0D082
:101A000082D083D0F0D0E032C0E0C0F0C083C0828A
:101A1000C0D075D000C000C001C002C003C004C067
:101A200005C006C007900238E0FCA3E0FDA3E0FE7D
:101A3000A3E0FFE4FBFA7980783F1221639002383B
:101A40001228EDD007D006D005D004D003D002D0A4
:101A500001D000D0D0D082D083D0F0D0E0328F3807
:101A6000853839E599646160141539E539600E7F70
:101A70002B1221567FC87E001220DE80E6E53970E9
:101A800002C322853839E599644160141539E53976
:101A9000600E7F611221567F647E001220DE80E698
:101AA000E539D37002C32222E4787AF653B1F743C2
:101AB000B208C2B3E578B4011C7B007A00797A756C
:101AC00044007545017F027E00121BAE787AE62441
:101AD000FF92208014E4787AF6FB7A00797AF53D5B
:101AE000753E017F02FE121951A22092B322E4F545
:101AF0002BEF24FE600B14600C2402700AB22080CD
:101B000006D2208002C220302005E4F569F56AA2E1
:101B10002092B3E578B40119A220E433F52B7B00C1
:101B20007A00792B753D00753E017F027E00121907
:101B30005122AD07121EFE7B077A00121EFEC296CE
:101B40007F01121F04AF03EDA807088002C313D85A
:101B5000FC30E004D2968002C296121F00D2971287
:101B60001F00EB1B70011ABAFFD1BBFFCE121EFE85
:101B7000228F35E4F536E53590356B93FFE536C3B6
:101B80009F502AE53575F008A4247AF582E43435AF
:101B9000F583E5822536F582E43583F583E493FF0A
:101BA0007B087D047C00122093053680C922AD0796
:101BB000AC06C2AF75C78075C5018CC3AF058FC4B5
:101BC00075C65A75C6A500E5C21228100DBD0001E4
:101BD0000C740129F9E43AFAE545154570021544FB
:101BE00014454470D5122128D2AF22AD07AC06C2ED
:101BF000AF75C78075C5028CC3AF058FC41227CAE5
:101C0000F5C275C65A75C6A5000DBD00010C74015C
:101C100029F9E43AFAE5451545700215441445449E
:101C200070D5122128D2AF227A32796F78387C00B1
:101C30007D007BFF7E007F0D1227A4754505754949
:101C400000754A00754B3B754C00754D00754E4153
:101C500085434F854450854551AB38AA39A93A127E
:101C6000159222121415121DC97510027512027FE9
:101C70000A121B71120D4A121DF812005E121D98F5
:101C8000752EFF752F2175304A7531FF753221751C
:101C900033507BFF7A2079781214EC80D7E4FDFB77
:101CA000FAC2977F01FE121F04D2977F01121F0410
:101CB000309610C3EB94D0EA940750070BBB000199
:101CC0000A80EDA296E433FD121F00C297AF0522F1
:101CD000E4FDC2977F01FE121F047B077A00ED2509
:101CE000E0FDD297121F0030960543050180035393
:101CF00005FE121EFEEB1B70011ABAFFE1BBFFDEF0
:101D0000AF0522EF30E004C2A08002D2A0EF30E1A4
:101D100004C2A18002D2A1EF30E204C2A28002D2AA
:101D2000A2EF30E304C2A38002D2A3EF30E403C2E7
:101D3000A722D2A722301709C217E4F50BC216F565
:101D40000AE50BD394064006E4F50BB21622050B08
:101D5000AF0A121D03E50A20160825E0F50A430A1A
:101D60000122C313F50A22F9E43536FA7D1C8B3AB9
:101D70008A3B893CE4FFFEEFC39D5013AB3AAA3B7C
:101D8000A93C8F827583001227E32EFE0F80E86343
:101D900006FF6306A7AF0622A20D301E01B3401056
:101DA000A20E302001B34008A20F301301B3501827
:101DB0009001AEE51BF0A3E51CF0C210A21E920D2F
:101DC000A220920EA213920F2212203E12000E1297
:101DD00020AD122143122136121F6E121F911200E4
:101DE00003121874121AA8538EFDD2AF7512017522
:101DF000100112100050FB22E51814600A04700F45
:101E00007518027F0280057518027F03121AEEE52D
:101E10006814600A04700F7568027F028005756897
:101E2000027F03121AEE22AC07E4FDFF1220007FAE
:101E3000A2121B32121C9DAF04121B32121C9D12E7
:101E400020007FA3121B32121C9D121CD0AD071262
:101E5000205BAF0522900278E0D39410400AE4F0B2
:101E6000FF121D0375100622900278E004F0E020B6
:101E7000E002B215301504E4FF80027FFF121D035B
:101E800022301707C217E4F50DF50CE50DD39406C3
:101E9000400AE4F50D751006FF021D03050DAF0C99
:101EA000121D03E50C25E0F50C430C0122AC07A93B
:101EB000051CE4FD74017E00A805088005C333CE2F
:101EC00033CED8F9FFE9FBEF5B6006EDB50402D332
:101ED000220DBD07DFC322301708C217E4F50F75C6
:101EE0000E1FE50FD394064007E4F50FFF021D0314
:101EF000050FAF0E121D03E50EC313F50E22C29798
:101F00007F017E00EF25E07901F3EE3319F37800CD
:101F100008E224FFFFF218E234FFF24F6005121FBF
:101F2000F880EB228B568A578958E4FEEEC39D5009
:101F300018AB560558E558AA577002055714F91200
:101F400027CAFF121FB40E80E3228F3CAC05E4FFCA
:101F50001220007FA2121B32121C9DAF3C121B32BA
:101F6000121C9DAF04121B32121C9D02205B53B148
:101F7000FB43B2047B087D037C007F031220937F28
:101F8000327E001220DE7B087D037C007F0302206E
:101F9000935395BF4396405391FB4392044391085A
:101FA0005392F753B1FD43B20243B10153B2FED293
:101FB000A6D29222742E2570F582E43401F583EFC7
:101FC000F00570E570C394804003E4F570E571702E
:101FD00005757101D29922E509D394064006E4F50E
:101FE00009B214220509201403430801AF08121D89
:0F1FF00003E50825E0F5082200007F03DFFE224D
:10200000121EFED2967F01121F04D2977F01121F6B
:1020100004C2967F01121F04C2977F01021F04AD04
:1020200007AC06C2AF8CC3AF058FC475C78075C53A
:102030000375C65A75C6A500122128D2AF227FF8B3
:102040007E3FEF24FAFFEE34FFFAA9077BFF78709A
:102050007C027D017E007F060227A4C296121F002B
:10206000D2977F01121F04D2967F01121F04C297DC
:102070007F05121F04D297227F01121AEE3020072B
:10208000D2177510038005751004D21775120275EA
:102090001101228F378B38AF05A907E9600EAB38E5
:1020A0007D327C00AF371218001980EF225393FD68
:1020B00043940243B1C053B23F438F10438F20C2B9
:1020C000B8C2BAD28122C2929002767413F0A3747D
:1020D00088F07F04121B717FD07E070220DEAB07E1
:1020E000AA06EB1B70011A144A60077F011207F061
:1020F00080F022EF75F00A84C454F0FEEF75F00A08
:1021000084E5F02EFF221227CAFF600C121FB47460
:102110000129F9E43AFA80EE22EFC4540F75F00A6F
:10212000A4FEEF540F2EFF22E4F5C7F5C5F5C675E2
:10213000C3FF75C4FF224395204396205395504317
:1021400096AF2253913F53923F227512030200260D
:102150007512040220C6021FB4021F2402251DE8C6
:102160006480F8E933E83360110460F0ED33EC3358
:102170007009E8FCE9FDEAFEEBFF220460DED3EB28
:102180009FEA9EE99DE8C2E78CF0C2F795F0400C0B
:10219000E8CCF8E9CDF9EACEFAEBCFFB1224E885DA
:1021A000D0F05804700320D5B3E80470075002B291
:1021B000D502252792D5EC0460F7E4CCC0E0C398A3
:1021C000F8603B94186008400DD0E0FB0224FFE467
:1021D000FBFAC9FC8028E830E406E4C9FBE4CAFC49
:1021E000E830E305E4C9CACBFCE854076010F8C343
:1021F000E913F9EA13FAEB13FBEC13FCD8F130F511
:102200002FC3E49CFCEF9BFFEE9AFEED99FDD0E01E
:10221000FBEF4E4D4C701222DB03022524EC2CFC0C
:10222000EF33FFEE33FEED33FDED30E7EB0224FF3D
:10223000EF2BFFEE3AFEED39FDD0E0FB50130BBB68
:102240000003022527ED13FDEE13FEEF13FFEC1341
:10225000FC0224FFEC4D6011E8497017ED33EC33BC
:1022600004600DE4FCFFFEFD22E933E8330470F85E
:1022700002251D1224E858046009E4CC248150068C
:10228000285009022527284003022524C0E0EB4AF4
:102290007044B98006D0E0FB022513EF4E701CBDE0
:1022A0008008EBFFEAFEE9FD80EBE98DF0A4FEE596
:1022B000F002233DE9CDF9EAFEEBFFEF89F0A4FC43
:1022C000E5F0CE89F0A42EFFE435F0CD89F0A42D01
:1022D000FEE435F08067EF4E7005BD80D780C3EF18
:1022E0008BF0A4ACF0EE8BF0A42CFCE435F0F8EF0E
:1022F0008AF0A42CE5F038FCE433CB8DF0A42CFC60
:10230000E5F03BF8EE8AF0A42CFCE5F038F8E43375
:10231000CF89F0A42CFCE5F038CF3400CE89F0A4AE
:102320002FFFE5F03EFEE433C98DF0A42EFEE5F06C
:1023300039CD8AF0A42FFFE5F03EFEE43DFD33D019
:10234000E0FB50070BBB000F022527EC2CFCEF3302
:10235000FFEE33FEED33FD0224FF022527EC5D0482
:102360006005E85904700302251D1224E858046032
:10237000F6EC4860F2EC7004FDFEFF22C860DB243E
:1023800081C85009C398600250060225249850CA9B
:10239000F582E9294B4A7005AB8202251375F000DE
:1023A0007C1A7880C3EF9BEE9AED99400DC3EF9BAA
:1023B000FFEE9AFEED99FDE842F0DC23ACF0D0E0B0
:1023C000FFD0E0FED0E0FDAB8220E7101BEB60BA4F
:1023D000EC2CFCEF33FFEE33FEED33FD0224FFE87F
:1023E00003F830E705C0F075F000EF2FFFEE33FE85
:1023F000ED33FD40B830E7C280AA74F8CC6480CCDD
:10240000C86480C8F58204604FC3EB9FF5F0EA9E74
:1024100042F0E99D42F0E89C45F0603C501DE582A9
:102420005FFFE582D313CB5BCBF42B5582FB5028A7
:102430000ABA002409B9002008801DE5825BFBE58B
:1024400082D313CF5FCFF4C3132F5582FF50090EF1
:10245000BE00050DBD00010CC3EB9FF5F0EA9E42E6
:10246000F0E99D42F0E89C45F06007CC4820E70188
:10247000B3EC2275F020800E75F010800575F00821
:102480007D007E007F003392D530D5031228ABEC5F
:10249000334010EF33FFEE33FEED33FDEC33FCD56C
:1024A000F0ED22E5F0247EA2D513CC92E7CDCEFF4D
:1024B00022EDD2E7CD33EC3392D524814006E4FF00
:1024C000FEFDFC22FCE4CFCECDCC24E0501174FF05
:1024D00080EDC3CC13CCCD13CDCE13CECF13CF0410
:1024E00070F030D5DE0228ABE9D2E7C933E833F823
:1024F00092D5EDD2E7CD33EC33FC5002B2D522ECCD
:1025000030E7100FBF000C0EBE00080DBD00040B1D
:10251000EB6014A2D5EB13FCED92E7FD2274FFFCF7
:10252000FDFEFF22E480F8A2D574FF13FC7D80E459
:1025300080EFF920E72824F950037907E4F4240216
:10254000FB18DBFDE624FB5014E9600DE4F618E609
:1025500004F6B40A08E4F6D9F57401F60A22C2D5E5
:1025600022ED33EC3392D5FA602AB4FF33EDC2E7A3
:102570007BFF60067A257986E4227A25798F20D53B
:10258000047A25798A224E614E002B494E46002D51
:10259000494E4600E47A08F608DAFC7B007407220C
:1025A000E8C0E0ECC0E0EDC0E0EEC0E0EFC0E0EA83
:1025B00075F010A4CAABF075F04DA42BFBE435F018
:1025C000FCEA2410FAEB34C5FBEC34D9FCEDC2E78D
:1025D000FF75F056A4F42411C5F0F434C58FF0A4AF
:1025E0002AE5F03BE43CF620E714122694D0E0FF05
:1025F000D0E0FED0E0FDD0E0FC12235D8014F404B6
:10260000122694D0E0FFD0E0FED0E0FDD0E0FC1236
:102610002254D0E0F8E6FAEDD2E7CD33EC33248251
:10262000FBE4C3CF33CFCE33CECD33CD33DBF37B1F
:102630000775F00A846004F6081B0AE5F0F6088FB7
:10264000F0740AA4FFACF08EF0740AA42CFEACF077
:1026500050010C8DF0740AA42CFDE435F0F608DB73
:10266000DE7407223F8000004120000042C80000C5
:10267000447A0000461C400047C3500049742400BF
:102680004B1896804CBEBC205A0E1BCA6753C21C06
:10269000749DC5AEFB60065407601C23231226C23E
:1026A000EB543860091226AE1226BD122254ECF803
:1026B000EDF9EEFAEFCB22EB1226BD80F154380390
:1026C000241C902664FE93FC0EEE93FD0EEE930EFA
:1026D000CE93FF22E709F608DFFA8046E709F20801
:1026E000DFFA803E88828C83E709F0A3DFFA80322C
:1026F000E309F608DFFA8078E309F208DFFA807070
:1027000088828C83E309F0A3DFFA806489828A835C
:10271000E0A3F608DFFA805889828A83E0A3F208F2
:10272000DFFA804C80D280FA80C680D4806980F243
:102730008033801080A680EA809A80A880DA80E2C8
:1027400080CA803389828A83ECFAE493A3C8C58265
:10275000C8CCC583CCF0A3C8C582C8CCC583CCDFA8
:10276000E9DEE7800D89828A83E493A3F608DFF926
:10277000ECFAA9F0EDFB2289828A83ECFAE0A3C887
:10278000C582C8CCC583CCF0A3C8C582C8CCC583DC
:10279000CCDFEADEE880DB89828A83E493A3F20857
:1027A000DFF980CC88F0EF60010E4E60C388F0ED59
:1027B0002402B4040050B9F582EB2402B4040050A2
:1027C000AF232345822390272473BB010689828A85
:1027D00083E0225002E722BBFE02E32289828A8341
:1027E000E49322BB010CE58229F582E5833AF58367
:1027F000E0225006E92582F8E622BBFE06E92582A2
:10280000F8E222E58229F582E5833AF583E4932212
:10281000BB010689828A83F0225002F722BBFE01A7
:10282000F322F8BB010DE58229F582E5833AF583B1
:10283000E8F0225006E92582C8F622BBFE05E9250C
:1028400082C8F222EF8DF0A4A8F0CF8CF0A428CE9D
:102850008DF0A42EFE22BC000BBE0029EF8DF0846B
:10286000FFADF022E4CCF875F008EF2FFFEE33FE59
:10287000EC33FCEE9DEC984005FCEE9DFE0FD5F090
:10288000E9E4CEFD22EDF8F5F0EE8420D21CFEAD99
:10289000F075F008EF2FFFED33FD4007985006D597
:1028A000F0F222C398FD0FD5F0EA22C3E49FFFE4C3
:1028B0009EFEE49DFDE49CFC22EB9FF5F0EA9E4227
:1028C000F0E99D42F0E89C45F022E8600FECC3136C
:1028D000FCED13FDEE13FEEF13FFD8F122E493FCA1
:1028E000740193FD740293FE740393FF22ECF0A332
:1028F000EDF0A3EEF0A3EFF022A8828583F0D08361
:10290000D082122910122910122910122910E473F2
:10291000E493A3C583C5F0C583C8C582C8F0A3C529
:1029200083C5F0C583C8C582C822FAE6FB0808E65D
:10293000F925F0F618E6CA3AF622BB010DE5822920
:10294000F582E5833AF583022B755007E92582F875
:10295000022B6CBBFE07E92582F8022B7EE582295B
:10296000F582E5833AF583022B87D083D082F8E4A1
:10297000937012740193700DA3A393F8740193F5EF
:10298000828883E4737402936860EFA3A3A380DF5B
:102990008A838982E473E3F5F009E208B5F06BDF1E
:1029A000F58067E3F5F009E608B5F05EDFF5805ADB
:1029B00087F009E608B5F052DFF6804E87F009E2AD
:1029C00008B5F046DFF6804288828C8387F009E004
:1029D000A3B5F036DFF6803288828C8387F009E475
:1029E00093A3B5F025DFF5802188828C83E3F5F091
:1029F00009E0A3B5F014DFF5801088828C83E3F53D
:102A0000F009E493A3B5F002DFF4022AC5808780C1
:102A1000E9809080D4803E8015806E807E809D808D
:102A2000B7808D80A380518074803C022AD1898236
:102A30008A83ECFAE493F5F0A3C8C582C8CCC583B9
:102A4000CCE493A3C8C582C8CCC583CCB5F076DFEF
:102A5000E3DEE1807089828A83E493F5F0A3E208E3
:102A6000B5F062DFF4805E89828A83E0F5F0A3E648
:102A700008B5F051DFF5804D89828A83E0F5F0A337
:102A8000E208B5F040DFF5803C89828A83E493F563
:102A9000F0A3E608B5F02EDFF4802A800280578983
:102AA000828A83ECFAE493F5F0A3C8C582C8CCC54A
:102AB00083CCE0A3C8C582C8CCC583CCB5F006DF03
:102AC000E4DEE280007FFFB5F0020F2240027F01CA
:102AD0002289828A83ECFAE0F5F0A3C8C582C8CCCB
:102AE000C583CCE0A3C8C582C8CCC583CCB5F0D51E
:102AF000DFE5DEE380CF89828A83ECFAE0F5F0A39C
:102B0000C8C582C8CCC583CCE493A3C8C582C8CC51
:102B1000C583CCB5F0AFDFE4DEE280A988F0EF60DA
:102B2000010E4E60ABED2402B404005098F582EB28
:102B30002402B40400508E2323458223902A0D736F
:102B4000EF4E6012EF60010EEDBB010B89828A83AC
:102B5000F0A3DFFCDEFA2289F05007F709DFFCA9B9
:102B6000F022BBFEFCF309DFFCA9F022E6FB08E63D
:102B7000FA08E6F922E0FBA3E0FAA3E0F922E2FB7F
:102B800008E2FA08E2F922E493FB740193FA740272
:102B900093F922E54F243BF8E6054F227838300BB5
:102BA00002783BE475F00112292A0227CA2004EBBF
:102BB0007F2ED2048018EF540F2490D43440D4FFD9
:102BC00030080BEF24BFB41A0050032461FFE55016
:102BD000600215500553E55370020552300B0D7815
:102BE00038E475F00112292AEF02281002352F74FB
:102BF00003D20B8003E4C20BF54F8B388A39893A34
:102C0000E4F550F552F553E55060077F20122BCEC6
:102C100080F57551FFC205C204C206C207C209C2CF
:102C20000AC20C122B9CFF700D300B057F00122B7B
:102C3000DFAF53AE5222B4255FC2D5C208122B9C1F
:102C4000FF24D0B40A00501A75F00A785030D50528
:102C500008B6FF0106C6A426F620D5047002D207E6
:102C600080D924CFB41A00EF5004C2E5D208022E56
:102C7000CCD20580C6D20480C0D20680BCD2D5801A
:102C8000BAD20980B47F20122BCE2006077401B57A
:102C9000500040F1122B93FF122BCE022C07D20CC6
:102CA000D20A8095122B93FB122B93FA122B93F9D5
:102CB0004A4B700679C37A2F7BFF20062EE55060C1
:102CC0002A7E008E827583001227E360060EEE6571
:102CD0005170F0C2D5EBC0E0EAC0E0E9C0E0EE120E
:102CE0002F2CD0E0F9D0E0FAD0E0FB1227CAFF6029
:102CF000AAEBC0E0EAC0E0E9C0E0122BCED0E024AD
:102D000001F9D0E03400FAD0E0FBE5510460DCD5F5
:102D100051D98087D20680A2122F0F60F7E551703B
:102D20000104122532A951600DE551600914F551D5
:102D3000122FB6EF60F3EA30E702F404C39950773C
:102D4000EAF425510430E701E404F551800D122F17
:102D50000F60C1EA05512551122532EA784EF6304E
:102D6000E701E4255104D5510420090114122F2C48
:102D7000E4C0E0122FB6784EE6601320E70714F6A1
:102D8000122BB6802204F6D0E014C0E07F00122B94
:102D9000B6E5516007122BAD1551800B30090312B7
:102DA0002BADD0E0022C07D0E00480C5122F0F60BD
:102DB000A0E55104122532784EEAF6E551200902C9
:102DC0006001042404122F2C74FF04C0E0122FB6FB
:102DD000122BB6E5512009026003122BADD0E0B5ED
:102DE00051E87F45122BC0784EE67F2B30E7047FF9
:102DF0002DF404C0E0122BCED0E075F00A84C0F0B0
:102E0000122BB7D0E0122BB7022C07791080027971
:102E100008C20AC20C8008D2D5790A8004790AC295
:102E2000D5E551047002F551E4FAFDFEFF122B9333
:102E3000FC7B08200513122B93FD7B1030040A1233
:102E40002B93FE122B93FF7B20EC3382D592D5502F
:102E500013C3E43004069FFFE49EFEE42005039DB7
:102E6000FDE49CFCE4CBF8C205EC700CCFCECDCCDD
:102E7000E824F8F870F38017C3EF33FFEE33FEED6C
:102E800033FDEC33FCEB33FB994002FB0FD8E9EB4D
:102E9000300505F8D0E0C448B205C0E00AEC4D4E5C
:102EA0004F78207B0070C2EAB5510040BCC0E012F0
:102EB0002F2ED0F0D0E0200504C4C0E0C4B205C07D
:102EC000F0122BB7D0F0D5F0EB022C0712296A2CA8
:102ED000A4532E0B582C754C2C71422E0F4F2E17CD
:102EE000442E17492C8A432E1D552D4E462DAC4598
:102EF0002D18472FE3502C792D2C7D2E2CA02B2C18
:102F000081232C9E202FCC2A2C394800002C98E5B8
:102F100051B4FF03755106122B93FC122B93FD1233
:102F20002B93FE122B93FF7847022561790AA2D5D5
:102F3000200714300909B910020404B9080104A2D9
:102F4000D5200A025001042006689206B5500050B0
:102F500034C0E07F203007197F30A206720A720960
:102F6000500F122F85C206C20AC209C20C7F3080E0
:102F70000F300903E9C0E0122BCE300903D0E0F98D
:102F8000D0E0B550CC3009177F30B9100C122BCEE1
:102F90007F583008077F788003B90803122BCE30A2
:102FA00006057F2D022BCE7F20200CF87F2B200AD8
:102FB000F322920680CF7F00B4070050052447F823
:102FC000E6FF22286E756C6C2900D205122B933017
:102FD00005F8C205785030D50108F6022C392D507D
:102FE000434958122B932403B405004001E4902F69
:102FF000DE93122BBF743A122BBFD2077550040216
:103000002E0B016802016B00C11E016C00026600FC
:1030100000016D00C11F02690000016500C11D446F
:1030200002660000000042026A00000176004202CF
:103030006C000042026E000001770042025C00005A
:1030400042025E000001753C4202600000440262E0
:1030500000000000460270000000000000011001A6
:10306000011201011100C118C11701080001090076
:10307000C11441027800C115010A00010B00C116FC
:10308000010C00010D00010E1F010F00C11C02A662
:103090000000C119C11AC11BC112C11101160001E2
:1030A0001700608101B70000000000000000000070
:1030B0000000000000000000000000000000000010
:1030C0000000000000000000000000000000000000
:1030D00000000000000000000000000000000000F0
:1030E00000000000000000000000000000000000E0
:1030F00000000000000000000000000000000000D0
:1031000000000000000000000000000000000000BF
:1031100000000000000000000000000000000000AF
:1031200000000000000000011D010118024101B073
:1031300021C1134601B1000000000000C11042018E
:10314000AE0000041900001F40C10DC10EC10F01E7
:1031500013000114000115004402383F80000044B0
:1031600002403F80000044023C3F80000044025087
:103170003F8000004402583F8000004C02443A83E4
:10318000126F3A83126F3A83126F440254322BCC7F
:1031900077021E00004202760000017802C1200181
:1031A00079000041542B450D0A0041542B45004144
:1031B000542B574D4F44453D41500D0A002B6F6B2A
:1031C0000D0A006F6B0041542B574D4F44453D5342
:1031D00054410D0A0041542B5A0D0A0041542B4E04
:1031E0004554503D5544502C5345525645522C3869
:1031F0003836362C3139322E3136382E352E310DC7
:103200000A0041542B4E4554503D5544502C5345D3
:10321000525645522C383836362C3235352E32350A
:10322000352E3235352E3235350D0A0041542B53AB
:103230004F434B423D554450532C383836362C3290
:1032400035352E3235352E3235352E3235350D0A9F
:103250000041542B534F434B423D5544502C383082
:103260002C25642E25642E25642E25640D0A00FF6E
:1032700031A3FF31AAFF31AA04040096FF31AFFF4A
:1032800031BDFF31C3050200C8FF31C6FF31BDFFAC
:1032900031C305020096FF31D5FF31BDFF31C305B3
:1032A0000200C8FF31DCFF31BDFF31C3050200C899
:1032B000FF3202FF31BDFF31C3050200C8FF322CCF
:1032C000FF31BDFF31C3050200C80000000000004F
:1032D00000000000000000000000000000000000EE
:1032E00000000000000000000000000000000000DE
:1032F00000000000000000000000000000000000CE
:1033000000000000000000000000000000000000BD
:1033100000000000000000000000000000000000AD
:10332000000069276D20554152543120666F72208C
:10333000776966692064617461207472616E736C70
:1033400061746520212121000000000000000000C0
:10335000000000000000000000000000000000006D
:10336000000000000000000000000000000000005D
:10337000000000000000000000000000000000004D
:10338000000000000000000000000000000000003D
:10339000000000000000000000000000000000002D
:1033A000000000000000000000000000000000001D
:1033B000000000000000000000000000000000000D
:1033C00000000000000000000000000000000000FD
:1033D00000000000000000000000000000000000ED
:1033E00000000000000000000000000000000000DD
:1033F00000000000000000000000000000000000CD
:1034000000000A3E3E3D3D3DCAB1BCE4B4C13D3D75
:103410003D3C3C0A20202020323025642F253032CC
:10342000642F253032642D57253031640A20202046
:103430002020202020253032643A253032643A257D
:103440003032640A000000000000000000000000AC
:10345000000000000000000000000000000000006C
:10346000000000000000000000000000000000005C
:10347000000000000000000000000000000000004C
:10348000000000000000000000000000000000003C
:1034900000000000001205040309261700000000C8
:1034A000000000787FE4F6D8FD7581A70234EA02B7
:1034B0001C63E493A3F8E493A34003F68001F208AD
:1034C000DFF48029E493A3F85407240CC8C333C461
:1034D000540F4420C8834004F456800146F6DFE4CC
:1034E000800B0102040810204080903002E47E012D
:1034F0009360BCA3FF543F30E509541FFEE493A33F
:1035000060010ECF54C025E060A840B8E493A3FA50
:10351000E493A3F8E493A3C8C582C8CAC583CAF0DC
:10352000A3C8C582C8CAC583CADFE9DEE780BEEF8B
:10353000B40A07740D12353A740A309811A899B874
:10354000130CC2983098FDA899C298B811F630991A
:10355000FDC299F59922E4FFFE1227CA600C0FEF15
:1035600070010E09E970F20A80EF220202020404DF
:10357000040707070606030300000301000000001C
:10358000000007020000000000000303000000002C
:103590000000010204050000000005040302000011
:1035A00000000102060700000000050506040301F3
:1035B00005000707050601020400060602030104D0
:1035C00007000102050603040000050403030403C9
:1035D00000000502020000000000070404000000D3
:1035E00000000000000000000000000000000000DB
:1035F00000000000000000000000000000000000CB
:1036000000000000000000000000000000000000BA
:1036100000000000000000000000000000000000AA
:10362000000000000000000000000000000000009A
:10363000000000000000000000000000000000008A
:10364000000000000000000000000000000000007A
:10365000000000000000000000000000000000006A
:10366000000000000000000000000000000000005A
:10367000000000000000000000000000000000004A
:10368000000000000000000000000000000000003A
:10369000000000000000000000000000000000002A
:1036A000000000002F34056C000000000000000046
:1036B0000000000000000000000000002F34056C36
:1036C00000000000000000000000000000000000FA
:1036D0000000000000000186A003E8144E2003E86B
:1036E000020BB80BB83CD4C000141F404E20EA6057
:00000001FF
