:0A0000000235785395EF5396EF2276
:10000B00020800438E805389F0758A50758CFBC2B1
:10001B008DD2A9C2B9D28C22021642E4F52DC22090
:10002B00FB7A00792DF53F7540017F05FE121A4BC7
:10003B00C2929002767403F0A374E8F07F03121C53
:10004B006A7FDC7E050207EB0218FBE4FF021E2E23
:10005B00021B0578067C007D017BFF7A34795D7E7F
:10006B00007F2D12287478337C007D017BFF7A345E
:10007B00798A7E007F2D122874E4F52DC200C2010F
:10008B0078607C007D017BFF7A3479B7FE7F0E129E
:10009B002874201802217DC2187E007F2D7D007BE5
:1000AB00017A007933122C109001B7E064CC704FB9
:1000BB009001C4E0642D7047A3E064A070419002EE
:1000CB0037E0C3942D403878B17C017D017B017AF8
:1000DB000179BE7E007F061228749001B7E0900074
:1000EB0033F078347C007D017B017A0179C47E008A
:1000FB007F20122874E4F5139001B0742D80369094
:10010B0001B7E064AA7035A3E06421702FA3E0640B
:10011B00A07029900237E0B4212278337C007D0156
:10012B007B017A0179B77E007F2112287475130148
:10013B009001B07421F0F52DD20080369001B7E01C
:10014B0064AA7029A3E0B41424900237E0B40E1D06
:10015B0078337C007D017B017A0179B77E007F0EBD
:10016B00122874751302752D14D2008005751303B4
:10017B00C200300078C202C203C200E52D24EC603D
:10018B005024E76004240C70627B017A0079387D7F
:10019B001C121E99900037E0B50702D20278387C0A
:1001AB00007D017B017A0279717E007F05122BECB9
:1001BB00EF7002D203900036E0B41402D20290002A
:1001CB0036E0B40902D203A20382035020D201808D
:1001DB001C78367C007D017B017A0279717E007F71
:1001EB0005122BECEF7006D2018002C20120010236
:1001FB00A188C201E51314600B147002A130240214
:10020B006002A188C202D203900036E0F52E7E0078
:10021B007F2D7D007B017A007906122C10E52E24B0
:10022B00F7B413004002A10B90023D25E0500205EC
:10023B008373417FA10BA10BA10BA10BA10BA10BF5
:10024B00416341F5A10BA10B610CA10BA10B813EED
:10025B008155816CA105A10990003EE01460080452
:10026B007008750E018003E4F50E90003EE09000DF
:10027B0011F0A10BE4F52FFB7A00792FF5467547AA
:10028B00017F05FE121CA7E52F705B78027C007DB9
:10029B00017BFF7A3479C5FE7F0412287478027CC7
:1002AB00007D017B017A0079397E007F041228746E
:1002BB007B017A0079021212E290003FE0F509A36C
:1002CB00E0F50A7B007A007909753F007540017FE4
:1002DB00037E00121A4B7B007A00790A753F00757A
:1002EB0040017F048151C203A10BE4F52FFB7A007F
:1002FB00792FF5467547017F05FE121CA7E52FA147
:10030B000BE4F52F78307C00FD7BFF7A3479C9FE46
:10031B007F0712287490004DE0F530A3E0F531A370
:10032B00E0F533A3E0F53485340BA3E0F535A3E01A
:10033B00F53278377C007D007B007A0079307E00C7
:10034B007F071228741219F0900040E0245F60734D
:10035B0014700261EE24026002812CE4F52FE52F6C
:10036B0075F003A42441F582E43400F583E0B480F6
:10037B003BAF2F7401A807088002C333D8FC426D32
:10038B00E52F75F003A42441F582E43400F583C016
:10039B0083C082E0FF900052E014FE7401A80608AF
:1003AB008002C333D8FC4FD082D083F0052FE52FCA
:1003BB00B404AB7B017A007941753F0075400C7F2B
:1003CB00108059900041E0600E436E02F56FA3E080
:1003DB0024FF921FE48006536EFDE4F56FF568F57C
:1003EB0069803E900041E06008436E01F567E48050
:1003FB0006536EFEE4F567F56BF56C7B007A0079BE
:10040B006E753F007540017F207E00121A4B7B00FA
:10041B007A007967753F007540017F217E00121AC3
:10042B004B90003FE0900012F0900040E0900013E2
:10043B00F0A10B752F01D2207B007A00792F753F2D
:10044B00007540017F057E008012E4F52FC220FB72
:10045B007A00792FF53F7540017F05FE121A4BA1EB
:10046B000B90003FE0900012F0900040E0900013E2
:10047B00F09000402460600A14605214607424A24F
:10048B00707EE4F52F7B017A007914F54675470CE5
:10049B007F10FE121CA7E4F52F74017E00A82F0815
:1004AB008005C333CE33CED8F9FFEF556D6013E51E
:1004BB002F75F003A42414F582E43400F583E05483
:1004CB0080F0052FE52FB404D0D2028033E56945C7
:1004DB00687002800FAE68AF697C007D3C122926E4
:1004EB00C3E56F9F900014F0A21FE433900015F04A
:1004FB00800E900014E567F08006D2108002C210C7
:10050B0030037A7B017A007906852E3BA202920496
:10051B007D0A12117E7B017A0079069001B0E0FD15
:10052B001222298058900035E024DE7050782E7C02
:10053B00007D007BFF7A3479D07E007F0712287410
:10054B0090003CE0F535A3E0F536752E1285352F7E
:10055B0085363190003BE0F53090003EE0F532A35C
:10056B00E0F533A3E0F53478377C007D007B007A2F
:10057B0000792E7E007F071228741219F09001AEBD
:10058B00E0FEA3E0FFE4FCFDAB12AA11A910A80F3B
:10059B00D31229894002E10FE49001AEF0A3F0FEE3
:1005AB007F14FD7B017A007960122C10900060742F
:1005BB00AAF0A37414F0201602C1C5B216A37422BC
:1005CB00F078637C007D017B017A0279717E007F7C
:1005DB00051228747B007A0079097546007547016E
:1005EB007F037E00121CA77B007A00790A754600F8
:1005FB007547017F047E00121CA7900068E509F087
:10060B00A3E50AF0900258E0FCA3E0FDA3E0FEA3F3
:10061B00E0FF122581752E008F2FAC2EAD2FE4122B
:10062B002548A804A905AA06AB07900258E0FCA32D
:10063B00E0FDA3E0FEA3E0FF12222F7B007A4079BE
:10064B001C78461223241225818E308F3190006A3C
:10065B00E52FF0EEA3F0A3E531F0900248E0FCA308
:10066B00E0FDA3E0FEA3E0FF1225818E2E8F2FACC1
:10067B002EAD2FE4122548A804A905AA06AB0790B6
:10068B000248E0FCA3E0FDA3E0FEA3E0FF12222F53
:10069B007B007A40791C78461223241225818E30F8
:1006AB008F31E52E90006DF0A3E52FF0E530A3F030
:1006BB00A3E531F0A3E50BF08035B2169000627420
:1006CB0023F078637C007D017B017A0279717E00D7
:1006DB007F05122874A220E433900068F0A21EE478
:1006EB0033A3F0A221E433A3F0E56E5401A3F09001
:1006FB0000727407F0A374ABF07B017A0079607D14
:10070B0014122229228B2E8A2F89307B007A0079B2
:10071B003175460075470C7F107E00121CA7E4F55F
:10072B003DE53D75F003A42431F8E6547FFFAB2E75
:10073B0075F003E53DA42530F9E52F35F0FA1228C5
:10074B009A54804FFF1228E0E53D75F003A4243145
:10075B00F8E65480C41313135401C4333333548059
:10076B00FEEF547F4E1228E0E53D75F003A42432D2
:10077B00F8E654E0C4135407FDE53D75F003A4AB54
:10078B002E2530F9E52F35F0FAE92401F9E43AFA90
:10079B0012289A54F84DFF1228E0E53D75F003A49A
:1007AB002432F8E6541F33333354F8FEEF54074E1C
:1007BB001228E0E53D75F003A42433F8E6FDE53D92
:1007CB0075F003A4AB2E2530F9E52F35F0FA900028
:1007DB0002ED1228F2053DE53D64046002E12C2296
:1007EB00AB07AA06EB1B70011A144A60077F0112B4
:1007FB000FEF80F022C0E0C0F0C083C082C0D07584
:10080B00D000C000C001C002C003C004C005C006B8
:10081B00C0079037B5E493FFE579C39F5004057982
:10082B00804D757900E51D147043301209C212908A
:10083B000260E4F0A3F09037B6E493FE740193FFEB
:10084B00C3900261E09F900260E09E5013A3E0040E
:10085B00F07006900260E004F0301013B2B2800F1B
:10086B00900260E4F0A3F0D2B2F51D8002D2B290F8
:10087B0037B3E493FE740193FFC390026FE09F9034
:10088B00026EE09E500EA3E004F0705490026EE0F6
:10089B0004F0804C90026EE4F0A3F0E51C24FE60A3
:1008AB001514601714601914601B14601D24057057
:1008BB002C1220B3802A121F208025121F4C80205F
:1008CB00121FA2801B121E608016900248E0FCA330
:1008DB00E0FDA3E0FEA3E0FF121800800312005618
:1008EB00E51E24FE60101460181460562403600289
:1008FB002182C2A52184302104C2A5807CD2A5808F
:10090B00789037B8E493FE740193FFC3900263E0D1
:10091B009F900262E09E500EA3E004F0705B900289
:10092B0062E004F08053900262E4F0A3F0E577609C
:10093B00061577B2A58042D2A59037BAE493F57726
:10094B008030C2A59037BBE493FE740193FFC39034
:10095B000265E09F900264E09E500EA3E004F070ED
:10096B0018900264E004F08010900264E4F0A3F0AD
:10097B00D2A5751E028002D2A59037B1E493FE7406
:10098B000193FFC390026DE09F90026CE09E500EAE
:10099B00A3E004F0700690026CE004F08073900208
:1009AB006CE4F0A3F0E56E30E138AF6F7E007C00B5
:1009BB007D3C122914C3E5699FE5689E500A0569C1
:1009CB00E569701E0568801AE569456860147568ED
:1009DB0000756900536EFD301F05756A0080037545
:1009EB006A01E56E30E02A302127AF677E007C007C
:1009FB007D3C122914C3E56C9FE56B9E500A056C78
:100A0B00E56C700D056B8009756B00756C00756A74
:100A1B00019037B0E493FFE578C39F5004057861EC
:100A2B00747578009001AFE004F070069001AEE0B1
:100A3B0004F0301C0878AA06E618700106900276BE
:100A4B00E07002A3E06010900277E024FFF09002C8
:100A5B0076E034FFF08002D2929037AEE493FE74CE
:100A6B000193FFC390026BE09F90026AE09E500ED1
:100A7B00A3E004F0700690026AE004F06174900247
:100A8B006AE4F0A3F0900244E0FCA3E0FDA3E0FED7
:100A9B00A3E0FF90025C1229BD9002441229C90009
:100AAB000000002021026174900254E0F8A3E0F9E9
:100ABB00A3E0FAA3E0FB90025CE0FCA3E0FDA3E063
:100ACB00FEA3E0FF12222FE4FBFA792078411224D7
:100ADB00CA5007751C05D211617490025CE0F8A333
:100AEB00E0F9A3E0FAA3E0FB900254E0FCA3E0FDE5
:100AFB00A3E0FEA3E0FF12222FE4FBFA792078415A
:100B0B001224CA5007751C00D211805D900254E06C
:100B1B00F8A3E0F9A3E0FAA3E0FB90025CE0FCA3EE
:100B2B00E0FDA3E0FEA3E0FF12222FE4FBFA7940E5
:100B3B0078401224CA60324030900254E0F8A3E0AF
:100B4B00F9A3E0FAA3E0FB90025CE0FCA3E0FDA3B9
:100B5B00E0FEA3E0FF12222FE4FBFA794078C012EB
:100B6B0024CA5005751C06D21130173AE50CC394F4
:100B7B000A5004050C802F20182AD2187E007F40C3
:100B8B007DFF7B017A0179B7122C10AF0D7E0078B7
:100B9B00B77C017D017B017A0079EE1228749002FB
:100BAB0037E50DF0C2179037AA1229AD900266E017
:100BBB00F8A3E0F9A3E0FAA3E0FBD31229895021B3
:100BCB00900266E0FCA3E0FDA3E0FEA3E02401FF9E
:100BDB00E43EFEE43DFDE43CFC9002661229BDA11F
:100BEB00AB9002661229C900000000E4FBFA79A061
:100BFB007840900238E0FCA3E0FDA3E0FEA3E0FF09
:100C0B0012242D90023C1229BDE4FBFA79A0784006
:100C1B00900240E0FCA3E0FDA3E0FEA3E0FF122462
:100C2B002D9002541229BD3081427FF97E1D7D5CCF
:100C3B007C3590023CE0F8A3E0F9A3E0FAA3E0FBDB
:100C4B00122324A804A905AA06AB077F737EDB7DBC
:100C5B00B67C3E12222F90023CE0F8A3E0F9A3E011
:100C6B00FAA3E0FB12232490024C80387F7A7E1685
:100C7B007D257C3690023CE0F8A3E0F9A3E0FAA3D3
:100C8B00E0FB1223247B4F7A9279E47840122233D3
:100C9B0090023CE0F8A3E0F9A3E0FAA3E0FB1223F7
:100CAB00249002501229BD7F777ECC7D2B7C329015
:100CBB000254E0F8A3E0F9A3E0FAA3E0FB1223242B
:100CCB00A804A905AA06AB077F727E277D8D7C4001
:100CDB0012222F900254E0F8A3E0F9A3E0FAA3E06C
:100CEB00FB1223249002481229BD900254E0FCA36E
:100CFB00E0FDA3E0FEA3E0F5288E278D268C257F53
:100D0B00CD7ECC7DCC7C3DAB28AA27A926A825126D
:100D1B0024CA500C7528CD7527CC7526CC75253D6E
:100D2B00900258E0F8A3E0F9A3E0FAA3E0FBC000BF
:100D3B00C001C002C0037F007EBA7D5B7C4AAB283A
:100D4B00AA27A926A825122324C004C005C006C0C3
:100D5B0007900248E0FCA3E0FDA3E0FEA3E0FF90B8
:100D6B000240E0F8A3E0F9A3E0FAA3E0FB1223248E
:100D7B00D003D002D001D00012242DD003D002D04A
:100D8B0001D0001222339002581229BD9002381262
:100D9B0029C9000000009002401229C90000000080
:100DAB00D007D006D005D004D003D002D001D0009C
:100DBB00D0D0D082D083D0F0D0E032E4F52D7802C1
:100DCB007C007D017BFF7A377995FE7F07122874B3
:100DDB0078097C007D017BFF7A37799C7E007F0C44
:100DEB001228747B017A0079021216DC201D28D29E
:100DFB001D7B007A00796E7546007547017F207E5A
:100E0B0000121CA77B007A007967754600754701B5
:100E1B007F217E00121CA7900007E07011A3E0D386
:100E2B00941E500A9002581229C9000000007B0141
:100E3B007A007909120710900009E020E71890005A
:100E4B000CE020E71190000FE020E70A900012E081
:100E5B0020E703C21E22D21EE4F52DE52D75F0030B
:100E6B00A42409F582E43400F583E0547FFD90005F
:100E7B0004E0FF121F784002E1E3E52D75F003A4B7
:100E8B002409F582E43400F583E0C41313135401F1
:100E9B0020E002E1E3E52D75F003A4240AF582E4DA
:100EAB003400F583E0131313541FFF7E007C007D89
:100EBB003C122914E52D75F003A4240BF582E434C0
:100ECB0000F583E02FFBEC3EFA900006E0FF7E007E
:100EDB00122914A3E02FFFEC3EFEEF6B7002EE6ABB
:100EEB007068A3E0D39405506174017E00A82D08AF
:100EFB008005C333CE33CED8F9FFEF556D602CAFE1
:100F0B002D7401A807088002C333D8FCF4526DE599
:100F1B002D75F003A42410FFE435F0FE7BFF7A3728
:100F2B0079A8753F00754001121A4BE52D75F0033A
:100F3B00A4240AF582E43400F583E0540730E0057D
:100F4B00E4F56AE1E3756A01E1E3E52D75F003A4CD
:100F5B00240AF582E43400F583E0131313541FFFC6
:100F6B007E007C007D3C122914E52D75F003A42432
:100F7B000BF582E43400F583E02FFBEC3EFA900096
:100F8B0006E0FF7E00122914A3E02FFFEC3EFED3F8
:100F9B00EF9BEE9A404274017E00A82D088005C39A
:100FAB0033CE33CED8F9FFEF556D602CAF2D7401D6
:100FBB00A807088002C333D8FCF4526DE52D75F0F9
:100FCB0003A42410FFE435F0FE7BFF7A3779A97573
:100FDB003F00754001121A4B052DE52DC3940450AB
:100FEB0002C166227D367C07ED1D70011C144C700E
:040FFB00F7DFF12209
:1010000078027C007D017BFF7A33799F7E007F042C
:1010100012287478067C007D017BFF7A3379A37EE9
:10102000007F28122874752D13752E88C2A67F2C78
:101030007E011207EBD2A67FB87E0B801430931688
:10104000E52E152EAE2D7002152D4E60097F017E06
:10105000001207EB80E7E52E452D7002C3227F0FBB
:10106000121B5B400122121D214001227F0A7E00DB
:101070001207EB7A33795E121D25400122783A7C03
:10108000007D007BFF7A337978121D2D4001227B91
:10109000017A0079027546007547047F307E0012A0
:1010A0001CA7753DFF753E33753F26900002E07525
:1010B0004000F541A3E0754200F543A3E07544000C
:1010C000F545A3E0754600F5477B017A00790612E5
:1010D0002CBF7F0A7E001207EB754BFF754C3375F2
:1010E0004D7B754EFF754F33755081903383E4937C
:1010F000F551740193F5527553057B017A00790619
:1011000012159F4001227F0A7E001207EB90336B7D
:10111000E493FB740193FA740293F912362BAD0732
:1011200090336BE493FB740193FA740293F91222E7
:10113000297FC87E001207EB90336BE493FB7401A8
:1011400093FA740293F912362BAD0790336BE49344
:10115000FB740193FA740293F9122229309316E575
:101160002E152EAE2D7002152D4E60097F017E00CA
:101170001207EB80E7E52E452DD37001C3228B3794
:101180008A3889398D3A9001B0E024DF70024177C6
:1011900024F4600241E1786E7C007D017BFF7A34AB
:1011A000791D7E007F20122874AB37AA38A93974C4
:1011B000CC1228E0AB37E5392401F9E43538FA7868
:1011C0006E7C007D017E007F20122874E539240D9D
:1011D000F9E43538A801FCAD377B017A00796E7EE1
:1011E000007F20122874E5392401F9E43538A8017C
:1011F000FCAD377B017A0179B17E007F061228743D
:10120000E5392408F9E43538A801FCAD377B017ACB
:101210000279717E007F05122874AB37AA38A9398C
:1012200090000D742D1228F290000EE53A1228F26B
:1012300090000FE53B1228F220040EAB37AA38A924
:101240003990001674071228F2E5392411F9E435B3
:1012500038A801FCAD377B017A0279717E007F05E9
:10126000122874AB37E5392411121E92AB37AA3815
:10127000A9399000108066AB37AA38A93974AA1230
:1012800028E0AB37AA38A93990000174211228F25E
:10129000900002E53A1228F2900003E53B1228F292
:1012A00020040EAB37AA38A93990000A7407122817
:1012B000F2E5392405F9E43538A801FCAD377B01A6
:1012C0007A0279717E007F05122874AB37E53924E4
:1012D00005121E92AB37AA38A939900004EF1228E4
:1012E000F2228B378A388939787D7C007D007BFF3C
:1012F0007A3379CB7E007F2812287478A57C007D14
:10130000007BFF7A3379F37E007F041228747B0020
:101310007A0079A57546007547047F307E00121C5F
:10132000A778A57C007D00AB37AA38A9397E007F5D
:1013300004122BECEF7002D322AB37AA38A939750F
:101340003F007540047F307E00121A4B753DFF75DB
:101350003E33753F26AB37AA38A93912289A754013
:1013600000F5419000011228B3754200F54390004A
:10137000021228B3754400F5459000031228B37596
:101380004600F5477B007A00797D122CBF7F0A1258
:101390001B5B400122121D21400122754BFF754C41
:1013A00033754D7B754EFF754F3375508190338388
:1013B000E493F551740193F5527553057B007A005F
:1013C000797D12159F40012290336BE493FB7401E9
:1013D00093FA740293F912362BAD0790336BE493B2
:1013E000FB740193FA740293F91222297FC87E00DC
:1013F0001207EB90336BE493FB740193FA7402933E
:10140000F912362BAD0790336BE493FB740193FA1A
:10141000740293F9122229D322782D7C007D007B5F
:10142000FF7A37797D7E007F141228747F0A7E0050
:101430001207EB7B007A00792D7546007547017F16
:10144000017E00121CA77F0A7E001207EBE52D64C7
:10145000A1700281EFE4FFFE1220F37F0A7E0012EA
:1014600007EB752DA17B007A00792D754600754735
:10147000017F017E00121CE47F0A7E001207EBE46C
:10148000F52DFB7A00792DF5467547017F05FE1293
:101490001CE47F0A7E001207EB7E007F0C7D007B40
:1014A000007A00792D122C107B007A00792D754678
:1014B0000075470D7F107E00121CE47F0A7E00122B
:1014C00007EB782D7C007D007BFF7A3779917E00D9
:1014D0007F041228747B007A00792D7546007547C9
:1014E000047F307E00121CE47F0A7E001207EB228C
:1014F0008B2D8A2E892F1222234062D21B201C02A0
:10150000D21C78A9E6FE08E6FFD39037BF7401939A
:101510009FE4939E5019C39037C17401939FE49345
:101520009E400C201909AA31A932122A60D21978DA
:10153000A9E6FE08E6FFD39037C17401939FE493B8
:101540009E505BC39037C37401939FE4939E404EBB
:10155000201A4BAA34A935122A60D21A2220190364
:10156000301A03751E02C21C301B33C21B78A9E659
:10157000FE08E6FFD39037BF7401939FE4939E402B
:10158000139037BD7401939FE4939E5007AA2EA930
:101590002F122A60E478A9F608F6C219C21A228B23
:1015A000488A49894AE4F554F555F556F557C21865
:1015B000F554E554C395534002C1408551568552B8
:1015C00057AB48AA49A94A12362BAD07AB48AA49DE
:1015D000A94A122229E5571557AE56700215564EE4
:1015E000605A7F027E001207EB3018E9C218E4F55A
:1015F00055E555C3940250DD900237E0FDAB4BAA90
:101600004CA94D75F003E555A4F58285F083122AA7
:101610000A8B5C8A5D895EAB4EAA4FA950855582C4
:101620007583001228B3F55F7B017A0179B7121731
:1016300072EA494B6002D322055580B50554A1B228
:10164000C322C0E0C0F0C083C082C0D075D000C04B
:1016500000C001C002C003C004C005C006C007C26C
:10166000AF309831C298E576702B201714D217F559
:101670000CF50DFE7F407DFF7B017A0079EE122C88
:1016800010AF0D050D74EE2FF582E43400F583E5FF
:1016900099F0750C00309927C299E5716572601C4C
:1016A000742E2571F582E43401F583E0F599057116
:1016B000E571C3948040087571008003757300D292
:1016C000AFD007D006D005D004D003D002D001D0CF
:1016D00000D0D0D082D083D0F0D0E0328B2E8A2FB1
:1016E00089307F08121EF2121FEFAB2EAA2FA930ED
:1016F000EF1228E07F07121EF2121FEFAB2EAA2F67
:10170000A930900001EF1228F27F06121EF2121F7C
:10171000EFAB2EAA2FA930900002EF1228F27F051E
:10172000121EF2121FEFAB2EAA2FA930900003EF6A
:101730001228F27F04121EF2121FEFAB2EAA2FA95D
:1017400030900004EF1228F27F03121EF2121FEFF6
:10175000AB2EAA2FA930900005EF1228F27F0212BB
:101760001EF2121FEFAB2EAA2FA930900006EF0237
:1017700028F28D5B8B588A59895AE4F5608B618A0F
:10178000628963855C64855D65855E66C3E5639596
:101790005AFFE5629559FE7C00EF255FFFEC3EFEA7
:1017A000D3EF955B7480F86E985047AB640566E59F
:1017B00066AA657002056514F912289AFFAB6105E7
:1017C00063E563AA627002056214F912289AB507EC
:1017D000130560E560B55FD3C3E563955FF9E56226
:1017E0009400FA22855C64855D65855E66E4F5603B
:1017F000809A7B007A0079002200007F03DFFE22BE
:101800008F2C8E2B8D2A8C2943A08FE4FFFE7DA088
:101810007C40AB2CAA2BA92AA8291224CA60044018
:1018200002C2A0E4FFFE7DC87C42AB2CAA2BA92AF1
:10183000A8291224CA60044002C2A1E4FFFE7D4828
:101840007C43AB2CAA2BA92AA8291224CA600440E5
:1018500002C2A2E4FFFE7D967C43AB2CAA2BA92AF0
:10186000A8291224CA60044002C2A3E4FFFE7DC876
:101870007C43AB2CAA2BA92AA8291224CA600440B5
:1018800002C2A7228B3275330AEF75F032A4AEF094
:101890002464F535E43EF534AE04AF057C037DE801
:1018A000122914AC34AD351229268E368F37E4FB5D
:1018B000FAC3EB9537EA95365040301002C2B2E5D4
:1018C00033FD7C00AE34AF35122926AD327C0012D8
:1018D00029141221B7D2B2E533F582AE34AF35FD0B
:1018E000122926C3E5829532FDE49400FC122914E6
:1018F0001221B70BBB00010A80B722C0E0C0F0C0C4
:1019000083C082C0D075D000C000C001C002C00337
:10191000C004C005C006C007900240E0FCA3E0FD83
:10192000A3E0FEA3E0FFE4FBFA7980783F122233C4
:101930009002401229BD900244E0FCA3E0FDA3E028
:10194000FEA3E0FFE4FBFA7980783F122233900295
:10195000441229BDD007D006D005D004D003D00250
:10196000D001D000D0D0D082D083D0F0D0E032C22D
:10197000AFD2BCE598543F4440F598E4753034F557
:101980002FF52EF52DC39530F530E4952FF52F74F6
:1019900001952EF52EE4952DF52DAF30AE2FAD2E01
:1019A000FC780812299A8FD68530D7538EEF438E54
:1019B00001538EF7438E0453AFFB538EF7438E10C3
:1019C000D2ACD29C53A23F7E007F807D007B017A07
:1019D00001792E122C10D2AF7BFF7A3379F70221D6
:1019E000DD78377C007BFF7A35796A7F07122874AF
:1019F000AF371221CAAD077F08122026AF38122157
:101A0000CAAD077F07122026E539600BFF1221CAF5
:101A1000AD077F06122026AF3A1221CAAD077F0517
:101A2000122026AF3B1221CAAD077F04122026AF39
:101A30003C1221CAAD077F03122026E53D600BFF53
:101A40001221CAAD077F02122026228E3A8F3B8BCD
:101A50003C8A3D893E786E7C007D017BFF7A367939
:101A6000C77E007F801228747B017A00796E7546EC
:101A700000754780E4FFFE121CA7E4FF1220F3AEBE
:101A80003FAF40746E253BF97400353AA801FC7DE8
:101A900001AB3CAA3DA93E1228747B017A00796E05
:101AA000754600754780E4FFFE021CE4E4F52DEF67
:101AB00024FE600B14600C2402700AB2218006D24E
:101AC000218002C221302107D211751C03800575C7
:101AD0001C04D211751E02751D01302105E4F56B41
:101AE000F56CA22192B3E51FB40119A221E433F5EC
:101AF0002D7B007A00792D753F007540017F027EB5
:101B000000121A4B22C0E0C0F0C083C082C0D07562
:101B1000D000C000C001C002C003C004C005C006A0
:101B2000C007900238E0FCA3E0FDA3E0FEA3E0FFC5
:101B3000E4FBFA7980783F1222339002381229BDF3
:101B4000D007D006D005D004D003D002D001D000F9
:101B5000D0D0D082D083D0F0D0E0328F3A853A3BDB
:101B6000E59964616014153BE53B600E7F2B122202
:101B7000267FC87E001207EB80E6E53B7002C32299
:101B8000853A3BE59964416014153BE53B600E7F67
:101B9000611222267F647E001207EB80E6E53BD3CC
:101BA0007002C32222E4787DF653B1F743B208C233
:101BB000B3E51FB4011C7B007A00797D7546007582
:101BC00047017F027E00121CA7787DE624FF922148
:101BD0008014E4787DF6FB7A00797DF53F7540014D
:101BE0007F02FE121A4BA22192B322A213301E01D1
:101BF000B34016A214302101B3400EA215302001CB
:101C0000B34006E508656E6021E512249CFEE511EF
:101C100034FF9001AEF0A3CEF0C216A21E9213A222
:101C2000219214A2209215856E0822AD07121FC9B9
:101C30007B077A00121FC9C2967F01121FCFAF0324
:101C4000EDA807088002C313D8FC30E004D29680C8
:101C500002C296121FCBD297121FCBEB1B70011A38
:101C6000BAFFD1BBFFCE121FC9228F2EE4F52FE59C
:101C70002E90364093FFE52FC39F502AE52E75F036
:101C800008A4244FF582E43436F583E582252FF548
:101C900082E43583F583E493FF7B087D047C0012A6
:101CA0002184052F80C922AD07AC06C2AF75C7805D
:101CB00075C5018CC3AF058FC475C65A75C6A5001E
:101CC000E5C21228E00DBD00010C740129F9E43AC7
:101CD000FAE54715477002154614454670D512219E
:101CE000F0D2AF22AD07AC06C2AF75C78075C50292
:101CF0008CC3AF058FC412289AF5C275C65A75C633
:101D0000A5000DBD00010C740129F9E43AFAE5477C
:101D100015477002154614454670D51221F0D2AF12
:101D2000227A337944783A7C007D007BFF7E007F05
:101D30000D122874754705754B00754C00754D3DA7
:101D4000754E00754F007550438545518546528547
:101D50004753AB3AAA3BA93C12159F221214191201
:101D60001DFC751C02751E027F0A121C6A120DC62C
:101D7000121EC312005E121BEB7530FF7531227507
:101D800032127533FF7534227535187BFF7A22794C
:101D90001E1214F080D7E4FDFBFAC2977F01FE12F9
:101DA0001FCFD2977F01121FCF309610C3EB94D074
:101DB000EA940750070BBB00010A80EDA296E433BA
:101DC000FD121FCBC297AF0522E4FDC2977F01FE33
:101DD000121FCF7B077A00ED25E0FDD297121FCBB3
:101DE00030960543050180035305FE121FC9EB1B06
:101DF00070011ABAFFE1BBFFDEAF052212211212F9
:101E0000212F12000E12219E12220B1221FE1220EF
:101E10004A12206D12000312196F121BA5538EFD7A
:101E2000D2AF751E01751C0112100050FB22EF305D
:101E3000E004C2A08002D2A0EF30E104C2A180027F
:101E4000D2A1EF30E204C2A28002D2A2EF30E304BA
:101E5000C2A38002D2A3EF30E403C2A722D2A722FA
:101E6000301109C211E4F517C20FF516E517D39426
:101E7000064006E4F517B20F220517AF16121E2E04
:101E8000E516200F0825E0F51643160122C313F5C9
:101E90001622F9E43538FA7D1C8B3C8A3D893EE4F4
:101EA000FFFEEFC39D5013AB3CAA3DA93E8F827548
:101EB00083001228B32EFE0F80E86306FF6306A797
:101EC000AF0622E50E14600A04700F750E027F0241
:101ED0008005750E027F03121AACE56A14600A04CD
:101EE000700F756A027F028005756A027F03121AFD
:101EF000AC22AC07E4FDFF1220D47FA2121C2B12EF
:101F00001D96AF04121C2B121D961220D47FA31213
:101F10001C2B121D96121DC9AD0712214CAF0522B4
:101F2000900278E0D39410400AE4F0FF121E2E7560
:101F30001C0622900278E004F0E020E002B20E30AD
:101F40000E04E4FF80027FFF121E2E22301107C212
:101F500011E4F519F518E519D39406400AE4F519CA
:101F6000751C06FF021E2E0519AF18121E2EE5184D
:101F700025E0F51843180122AC07A9051CE4FD74FF
:101F8000017E00A805088005C333CE33CED8F9FF03
:101F9000E9FBEF5B6006EDB50402D3220DBD07DF60
:101FA000C322301108C211E4F51B751A1FE51BD3BB
:101FB00094064007E4F51BFF021E2E051BAF1A1204
:101FC0001E2EE51AC313F51A22C2977F017E00EF79
:101FD00025E07901F3EE3319F3780008E224FFFFDE
:101FE000F218E234FFF24F60051217F980EB22EF8E
:0E1FF000C4540F75F00AA4FEEF540F2EFF220A
:102000008B588A59895AE4FEEEC39D5018AB580587
:102010005AE55AAA597002055914F912289AFF1262
:1020200020900E80E3228F3EAC05E4FF1220D47F87
:10203000A2121C2B121D96AF3E121C2B121D96AF26
:1020400004121C2B121D9602214C53B1FB43B20407
:102050007B087D037C007F031221847F327E001287
:1020600007EB7B087D037C007F030221845395BF2F
:102070004396405391FB4392044391085392F75384
:10208000B1FD43B20243B10153B2FED2A6D29222B5
:10209000742E2572F582E43401F583EFF00572E5C4
:1020A00072C394804003E4F572E5737005757301A3
:1020B000D29922E515D394064006E4F515B20D2217
:1020C0000515200D03431401AF14121E2EE514252F
:1020D000E0F51422121FC9D2967F01121FCFD297AA
:1020E0007F01121FCFC2967F01121FCFC2977F01BF
:1020F000021FCFAD07AC06C2AF8CC3AF058FC4754E
:10210000C78075C50375C65A75C6A5001221F0D2E1
:10211000AF227FF87E3FEF24FAFFEE34FFFAA907E3
:102120007BFF78707C027D017E007F06022874E4CC
:10213000F52DFB7A00792DF5467547017F05FE12D6
:102140001CA7E52D6003D22022C22022C296121FB6
:10215000CBD2977F01121FCFD2967F01121FCFC221
:10216000977F05121FCFD29722C2929002767413E6
:10217000F0A37488F07F04121C6A7F707E17120728
:10218000EB0200008F308B31AF05A907E9600EAB81
:10219000317D327C00AF301218841980EF225393C6
:1021A000FD43940243B1C053B23F438F10438F208D
:1021B000C2B8C2BAD28122EF1F70011E144E60094C
:1021C0000000000000000080EE22EF75F00A84C4D9
:1021D00054F0FEEF75F00A84E5F02EFF2212289AE3
:1021E000FF600C122090740129F9E43AFA80EE2283
:1021F000E4F5C7F5C5F5C675C3FF75C4FF22439561
:10220000204396205395504396AF2253913F5392CB
:102210003F22751E03020026751E040221697F01FC
:10222000021AACA2A4220220900220000225EDE8AE
:102230006480F8E933E83360110460F0ED33EC3387
:102240007009E8FCE9FDEAFEEBFF220460DED3EB57
:102250009FEA9EE99DE8C2E78CF0C2F795F0400C3A
:10226000E8CCF8E9CDF9EACEFAEBCFFB1225B88538
:10227000D0F05804700320D5B3E80470075002B2C0
:10228000D50225F792D5EC0460F7E4CCC0E0C39802
:10229000F8603B94186008400DD0E0FB0225CFE4C5
:1022A000FBFAC9FC8028E830E406E4C9FBE4CAFC78
:1022B000E830E305E4C9CACBFCE854076010F8C372
:1022C000E913F9EA13FAEB13FBEC13FCD8F130F540
:1022D0002FC3E49CFCEF9BFFEE9AFEED99FDD0E04E
:1022E000FBEF4E4D4C701222DB030225F4EC2CFC6C
:1022F000EF33FFEE33FEED33FDED30E7EB0225CF9C
:10230000EF2BFFEE3AFEED39FDD0E0FB50130BBB97
:1023100000030225F7ED13FDEE13FEEF13FFEC13A0
:10232000FC0225CFEC4D6011E8497017ED33EC331A
:1023300004600DE4FCFFFEFD22E933E8330470F88D
:102340000225ED1225B858046009E4CC248150061A
:102350002850090225F72840030225F4C0E0EB4A83
:102360007044B98006D0E0FB0225E3EF4E701CBD3F
:102370008008EBFFEAFEE9FD80EBE98DF0A4FEE5C5
:10238000F002240DE9CDF9EAFEEBFFEF89F0A4FCA1
:10239000E5F0CE89F0A42EFFE435F0CD89F0A42D30
:1023A000FEE435F08067EF4E7005BD80D780C3EF47
:1023B0008BF0A4ACF0EE8BF0A42CFCE435F0F8EF3D
:1023C0008AF0A42CE5F038FCE433CB8DF0A42CFC8F
:1023D000E5F03BF8EE8AF0A42CFCE5F038F8E433A5
:1023E000CF89F0A42CFCE5F038CF3400CE89F0A4DE
:1023F0002FFFE5F03EFEE433C98DF0A42EFEE5F09C
:1024000039CD8AF0A42FFFE5F03EFEE43DFD33D048
:10241000E0FB50070BBB000F0225F7EC2CFCEF3361
:10242000FFEE33FEED33FD0225CF0225F7EC5D0410
:102430006005E8590470030225ED1225B8580460C0
:10244000F6EC4860F2EC7004FDFEFF22C860DB246D
:1024500081C85009C398600250060225F49850CAFA
:10246000F582E9294B4A7005AB820225E375F0003D
:102470007C1A7880C3EF9BEE9AED99400DC3EF9BD9
:10248000FFEE9AFEED99FDE842F0DC23ACF0D0E0DF
:10249000FFD0E0FED0E0FDAB8220E7101BEB60BA7E
:1024A000EC2CFCEF33FFEE33FEED33FD0225CFE8DD
:1024B00003F830E705C0F075F000EF2FFFEE33FEB4
:1024C000ED33FD40B830E7C280AA74F8CC6480CC0C
:1024D000C86480C8F58204604FC3EB9FF5F0EA9EA4
:1024E00042F0E99D42F0E89C45F0603C501DE582D9
:1024F0005FFFE582D313CB5BCBF42B5582FB5028D7
:102500000ABA002409B9002008801DE5825BFBE5BA
:1025100082D313CF5FCFF4C3132F5582FF50090E20
:10252000BE00050DBD00010CC3EB9FF5F0EA9E4215
:10253000F0E99D42F0E89C45F06007CC4820E701B7
:10254000B3EC2275F020800E75F010800575F00850
:102550007D007E007F003392D530D50312297BECBD
:10256000334010EF33FFEE33FEED33FDEC33FCD59B
:10257000F0ED22E5F0247EA2D513CC92E7CDCEFF7C
:1025800022EDD2E7CD33EC3392D524814006E4FF2F
:10259000FEFDFC22FCE4CFCECDCC24E0501174FF34
:1025A00080EDC3CC13CCCD13CDCE13CECF13CF043F
:1025B00070F030D5DE02297BE9D2E7C933E833F881
:1025C00092D5EDD2E7CD33EC33FC5002B2D522ECFC
:1025D00030E7100FBF000C0EBE00080DBD00040B4D
:1025E000EB6014A2D5EB13FCED92E7FD2274FFFC27
:1025F000FDFEFF22E480F8A2D574FF13FC7D80E489
:1026000080EFF920E72824F950037907E4F4240245
:10261000FB18DBFDE624FB5014E9600DE4F618E638
:1026200004F6B40A08E4F6D9F57401F60A22C2D514
:1026300022ED33EC3392D5FA602AB4FF33EDC2E7D2
:102640007BFF60067A267956E4227A26795F20D5C8
:10265000047A26795A224E614E002B494E46002DAF
:10266000494E4600E47A08F608DAFC7B007407223B
:10267000E8C0E0ECC0E0EDC0E0EEC0E0EFC0E0EAB2
:1026800075F010A4CAABF075F04DA42BFBE435F047
:10269000FCEA2410FAEB34C5FBEC34D9FCEDC2E7BC
:1026A000FF75F056A4F42411C5F0F434C58FF0A4DE
:1026B0002AE5F03BE43CF620E714122764D0E0FF63
:1026C000D0E0FED0E0FDD0E0FC12242D8014F40414
:1026D000122764D0E0FFD0E0FED0E0FDD0E0FC1295
:1026E0002324D0E0F8E6FAEDD2E7CD33EC332482B0
:1026F000FBE4C3CF33CFCE33CECD33CD33DBF37B4F
:102700000775F00A846004F6081B0AE5F0F6088FE6
:10271000F0740AA4FFACF08EF0740AA42CFEACF0A6
:1027200050010C8DF0740AA42CFDE435F0F608DBA2
:10273000DE7407223F8000004120000042C80000F4
:10274000447A0000461C400047C3500049742400EE
:102750004B1896804CBEBC205A0E1BCA6753C21C35
:10276000749DC5AEFB60065407601C23231227929C
:10277000EB5438600912277E12278D122324ECF8BF
:10278000EDF9EEFAEFCB22EB12278D80F1543803EE
:10279000241C902734FE93FC0EEE93FD0EEE930E58
:1027A000CE93FF22E709F608DFFA8046E709F20830
:1027B000DFFA803E88828C83E709F0A3DFFA80325B
:1027C000E309F608DFFA8078E309F208DFFA80709F
:1027D00088828C83E309F0A3DFFA806489828A838C
:1027E000E0A3F608DFFA805889828A83E0A3F20822
:1027F000DFFA804C80D280FA80C680D4806980F273
:102800008033801080A680EA809A80A880DA80E2F7
:1028100080CA803389828A83ECFAE493A3C8C58294
:10282000C8CCC583CCF0A3C8C582C8CCC583CCDFD7
:10283000E9DEE7800D89828A83E493A3F608DFF955
:10284000ECFAA9F0EDFB2289828A83ECFAE0A3C8B6
:10285000C582C8CCC583CCF0A3C8C582C8CCC5830B
:10286000CCDFEADEE880DB89828A83E493A3F20886
:10287000DFF980CC88F0EF60010E4E60C388F0ED88
:102880002402B4040050B9F582EB2402B4040050D1
:10289000AF23234582239027F473BB010689828AE4
:1028A00083E0225002E722BBFE02E32289828A8370
:1028B000E49322BB010CE58229F582E5833AF58396
:1028C000E0225006E92582F8E622BBFE06E92582D1
:1028D000F8E222E58229F582E5833AF583E4932242
:1028E000BB010689828A83F0225002F722BBFE01D7
:1028F000F322F8BB010DE58229F582E5833AF583E1
:10290000E8F0225006E92582C8F622BBFE05E9253B
:1029100082C8F222EF8DF0A4A8F0CF8CF0A428CECC
:102920008DF0A42EFE22BC000BBE0029EF8DF0849A
:10293000FFADF022E4CCF875F008EF2FFFEE33FE88
:10294000EC33FCEE9DEC984005FCEE9DFE0FD5F0BF
:10295000E9E4CEFD22EDF8F5F0EE8420D21CFEADC8
:10296000F075F008EF2FFFED33FD4007985006D5C6
:10297000F0F222C398FD0FD5F0EA22C3E49FFFE4F2
:102980009EFEE49DFDE49CFC22EB9FF5F0EA9E4256
:10299000F0E99D42F0E89C45F022E8600FECC3139B
:1029A000FCED13FDEE13FEEF13FFD8F122E493FCD0
:1029B000740193FD740293FE740393FF22ECF0A361
:1029C000EDF0A3EEF0A3EFF022A8828583F0D08390
:1029D000D0821229E01229E01229E01229E0E473E2
:1029E000E493A3C583C5F0C583C8C582C8F0A3C559
:1029F00083C5F0C583C8C582C822FAE6FB0808E68D
:102A0000F925F0F618E6CA3AF622BB010DE582294F
:102A1000F582E5833AF583022C455007E92582F8D3
:102A2000022C3CBBFE07E92582F8022C4EE58229E8
:102A3000F582E5833AF583022C57D083D082F8E4FF
:102A4000937012740193700DA3A393F8740193F51E
:102A5000828883E4737402936860EFA3A3A380DF8A
:102A60008A838982E473E3F5F009E208B5F06BDF4D
:102A7000F58067E3F5F009E608B5F05EDFF5805A0A
:102A800087F009E608B5F052DFF6804E87F009E2DC
:102A900008B5F046DFF6804288828C8387F009E033
:102AA000A3B5F036DFF6803288828C8387F009E4A4
:102AB00093A3B5F025DFF5802188828C83E3F5F0C0
:102AC00009E0A3B5F014DFF5801088828C83E3F56C
:102AD000F009E493A3B5F002DFF4022B9580878020
:102AE000E9809080D4803E8015806E807E809D80BD
:102AF000B7808D80A380518074803C022BA1898295
:102B00008A83ECFAE493F5F0A3C8C582C8CCC583E8
:102B1000CCE493A3C8C582C8CCC583CCB5F076DF1E
:102B2000E3DEE1807089828A83E493F5F0A3E20812
:102B3000B5F062DFF4805E89828A83E0F5F0A3E677
:102B400008B5F051DFF5804D89828A83E0F5F0A366
:102B5000E208B5F040DFF5803C89828A83E493F592
:102B6000F0A3E608B5F02EDFF4802A8002805789B2
:102B7000828A83ECFAE493F5F0A3C8C582C8CCC579
:102B800083CCE0A3C8C582C8CCC583CCB5F006DF32
:102B9000E4DEE280007FFFB5F0020F2240027F01F9
:102BA0002289828A83ECFAE0F5F0A3C8C582C8CCFA
:102BB000C583CCE0A3C8C582C8CCC583CCB5F0D54D
:102BC000DFE5DEE380CF89828A83ECFAE0F5F0A3CB
:102BD000C8C582C8CCC583CCE493A3C8C582C8CC81
:102BE000C583CCB5F0AFDFE4DEE280A988F0EF600A
:102BF000010E4E60ABED2402B404005098F582EB58
:102C00002402B40400508E2323458223902ADD73CE
:102C1000EF4E6012EF60010EEDBB010B89828A83DB
:102C2000F0A3DFFCDEFA2289F05007F709DFFCA9E8
:102C3000F022BBFEFCF309DFFCA9F022E6FB08E66C
:102C4000FA08E6F922E0FBA3E0FAA3E0F922E2FBAE
:102C500008E2FA08E2F922E493FB740193FA7402A1
:102C600093F922E551243DF8E6055122783A300BDC
:102C700002783DE475F0011229FA02289A2004EB4B
:102C80007F2ED2048018EF540F2490D43440D4FF08
:102C900030080BEF24BFB41A0050032461FFE55243
:102CA000600215520555E55570020554300B0D783C
:102CB0003AE475F0011229FAEF0228E002360474B2
:102CC00003D20B8003E4C20BF5518B3A8A3B893C5B
:102CD000E4F552F554F555E55260077F20122C9E1D
:102CE00080F57553FFC205C204C206C207C209C2FD
:102CF0000AC20C122C6CFF700D300B057F00122CD9
:102D0000AFAF55AE5422B4255FC2D5C208122C6CA9
:102D1000FF24D0B40A00501A75F00A785230D50555
:102D200008B6FF0106C6A426F620D5047002D20715
:102D300080D924CFB41A00EF5004C2E5D208022F84
:102D40009CD20580C6D20480C0D20680BCD2D58079
:102D5000BAD20980B47F20122C9E2006077401B5D8
:102D6000520040F1122C63FF122C9E022CD7D20C81
:102D7000D20A8095122C63FB122C63FA122C63F991
:102D80004A4B700679937A307BFF20062EE552601D
:102D90002A7E008E827583001228B360060EEE65CF
:102DA0005370F0C2D5EBC0E0EAC0E0E9C0E0EE123B
:102DB0002FFCD0E0F9D0E0FAD0E0FB12289AFF60B7
:102DC000AAEBC0E0EAC0E0E9C0E0122C9ED0E0240B
:102DD00001F9D0E03400FAD0E0FBE5530460DCD523
:102DE00053D98087D20680A2122FDF60F7E5537097
:102DF0000104122602A953600DE553600914F5532E
:102E0000123086EF60F3EA30E702F404C39950779A
:102E1000EAF425530430E701E404F553800D122F42
:102E2000DF60C1EA05532553122602EA7850F630D6
:102E3000E701E4255304D5530420090114122FFCA3
:102E4000E4C0E01230867850E6601320E70714F6FD
:102E5000122C86802204F6D0E014C0E07F00122CF1
:102E600086E5536007122C7D1553800B3009031241
:102E70002C7DD0E0022CD7D0E00480C5122FDF607B
:102E8000A0E553041226027850EAF6E55320090221
:102E90006001042404122FFC74FF04C0E012308689
:102EA000122C86E5532009026003122C7DD0E0B578
:102EB00053E87F45122C907850E67F2B30E7047F53
:102EC0002DF404C0E0122C9ED0E075F00A84C0F00E
:102ED000122C87D0E0122C87022CD779108002792F
:102EE00008C20AC20C8008D2D5790A8004790AC2C5
:102EF000D5E553047002F553E4FAFDFEFF122C638E
:102F0000FC7B08200513122C63FD7B1030040A1291
:102F10002C63FE122C63FF7B20EC3382D592D550BC
:102F200013C3E43004069FFFE49EFEE42005039DE6
:102F3000FDE49CFCE4CBF8C205EC700CCFCECDCC0C
:102F4000E824F8F870F38017C3EF33FFEE33FEED9B
:102F500033FDEC33FCEB33FB994002FB0FD8E9EB7C
:102F6000300505F8D0E0C448B205C0E00AEC4D4E8B
:102F70004F78207B0070C2EAB5530040BCC0E0121D
:102F80002FFED0F0D0E0200504C4C0E0C4B205C0DC
:102F9000F0122C87D0F0D5F0EB022CD7122A3A2D64
:102FA00074532EDB582D454C2D41422EDF4F2EE71A
:102FB000442EE7492D5A432EED552E1E462E7C45B4
:102FC0002DE84730B3502D492D2D4D2E2D702B2D32
:102FD00051232D6E20309C2A2D094800002D68E5D4
:102FE00053B4FF03755306122C63FC122C63FD12BD
:102FF0002C63FE122C63FF7849022631790AA2D590
:10300000200714300909B910020404B9080104A208
:10301000D5200A025001042006689206B5520050DD
:1030200034C0E07F203007197F30A206720A72098F
:10303000500F123055C206C20AC209C20C7F30803E
:103040000F300903E9C0E0122C9E300903D0E0F9EB
:10305000D0E0B552CC3009177F30B9100C122C9E3D
:103060007F583008077F788003B90803122C9E3000
:1030700006057F2D022C9E7F20200CF87F2B200A36
:10308000F322920680CF7F00B4070050052449F850
:10309000E6FF22286E756C6C2900D205122C633075
:1030A00005F8C205785230D50108F6022D092D50D9
:1030B000434958122C632403B405004001E49030C6
:1030C000AE93122C8F743A122C8FD20775520402D1
:1030D0002EDB016A02016D00C11E016E0002680054
:1030E00000016F00C11F026B0000016700C11D4499
:1030F00002660000000042026A00000178004202FD
:103100006C000042026E0000017900420260000083
:10311000420262000001773C4202640000460270F5
:10312000000000000000C120011C01011E01011D62
:1031300000C112C111C190011400011500C10D415F
:10314000027800C10E011600011700C10F0118001E
:10315000011900011A1F011B00C11C02A90000C1B6
:1031600019C11AC11BC118C117010C00010D006063
:103170008101B70000000000000000000000000016
:10318000000000000000000000000000000000003F
:10319000000000000000000000000000000000002F
:1031A000000000000000000000000000000000001F
:1031B000000000000000000000000000000000000F
:1031C00000000000000000000000000000000000FF
:1031D00000000000000000000000000000000000EF
:1031E00000000000000000000000000000000000DF
:1031F00000000000011301010E024101B02146014F
:10320000B1000000000000C1164201AE0000040F32
:1032100000001F40C113C114C115010800010900BD
:10322000010A00010B004402383F800000440240C4
:103230003F8000004402443F80000044023C3F8045
:1032400000004402543F80000044025C3F800000C4
:103250004C02483A83126F3A83126F3A83126F44DA
:103260000258322BCC77027A00004202760000012D
:103270001F02C121017C000041542B450D0A004171
:10328000542B450041542B574D4F44453D41500D63
:103290000A002B6F6B0D0A006F6B0041542B574DCA
:1032A0004F44453D5354410D0A0041542B5A0D0AD9
:1032B0000041542B4E4554503D5544502C534552DB
:1032C0005645522C383836362C3139322E31363874
:1032D0002E352E310D0A0041542B4E4554503D558C
:1032E00044502C5345525645522C383836362C32E1
:1032F00035352E3235352E3235352E3235350D0AEF
:103300000041542B534F434B423D554450532C38AE
:103310003836362C3235352E3235352E3235352E7F
:103320003235350D0A0041542B534F434B423D5526
:1033300044502C38302C25642E25642E25642E25EF
:10334000640D0A00FF3278FF327FFF327F040400F1
:1033500096FF3284FF3292FF3298050200C8FF3296
:103360009BFF3292FF329805020096FF32AAFF328D
:1033700092FF3298050200C8FF32B1FF3292FF324D
:1033800098050200C8FF32D7FF3292FF329805023B
:1033900000C8FF3301FF3292FF3298050200C800D7
:1033A000000000000000000000000000000000001D
:1033B000000000000000000000000000000000000D
:1033C00000000000000000000000000000000000FD
:1033D00000000000000000000000000000000000ED
:1033E00000000000000000000000000000000000DD
:1033F0000000000000000069276D20554152543143
:1034000020666F7220776966692064617461207438
:1034100072616E736C6174652021212100000000CF
:10342000000000000000000000000000000000009C
:10343000000000000000000000000000000000008C
:10344000000000000000000000000000000000007C
:10345000000000000000000000000000000000006C
:10346000000000000000000000000000000000005C
:10347000000000000000000000000000000000004C
:10348000000000000000000000000000000000003C
:10349000000000000000000000000000000000002C
:1034A000000000000000000000000000000000001C
:1034B000000000000000000000000000000000000C
:1034C00000000000000000000000000000000000FC
:1034D000000000000000000A3E3E3D3D3DCAB1BC78
:1034E000E4B4C13D3D3D3C3C0A2020202032302543
:1034F000642F253032642F253032642D572530312A
:10350000640A2020202020202020253032643A2503
:103510003032643A253032640A00000000000000B6
:10352000000000000000000000000000000000009B
:10353000000000000000000000000000000000008B
:10354000000000000000000000000000000000007B
:10355000000000000000000000000000000000006B
:10356000000000000000000000001205040309260E
:103570001700000000000000787FE4F6D8FD758198
:10358000AA0235BF021D5CE493A3F8E493A34003B1
:10359000F68001F208DFF48029E493A3F8540724AD
:1035A0000CC8C333C4540F4420C8834004F456806D
:1035B0000146F6DFE4800B010204081020408090F1
:1035C00030D2E47E019360BCA3FF543F30E5095440
:1035D0001FFEE493A360010ECF54C025E060A84015
:1035E000B8E493A3FAE493A3F8E493A3C8C582C80C
:1035F000CAC583CAF0A3C8C582C8CAC583CADFE9E1
:10360000DEE780BEEFB40A07740D12360F740A307D
:103610009811A899B8130CC2983098FDA899C2982F
:10362000B811F63099FDC299F59922E4FFFE1228EF
:103630009A600C0FEF70010E09E970F20A80EF2218
:10364000020202040404070707060603030000033E
:10365000010000000000000702000000000000035D
:103660000300000000000001020405000000000546
:10367000040302000000000102060700000000052C
:1036800005060403010500070705060102040006FC
:1036900006020301040700010205060304000005F9
:1036A00004030304030000050202000000000007F9
:1036B0000404000000000000000000000000000002
:1036C00000000000000000000000000000000000FA
:1036D00000000000000000000000000000000000EA
:1036E00000000000000000000000000000000000DA
:1036F00000000000000000000000000000000000CA
:1037000000000000000000000000000000000000B9
:1037100000000000000000000000000000000000A9
:103720000000000000000000000000000000000099
:103730000000000000000000000000000000000089
:103740000000000000000000000000000000000079
:103750000000000000000000000000000000000069
:103760000000000000000000000000000000000059
:103770000000000000000000002F34056C00000075
:103780000000000000000000000000000000000039
:10379000002F34056C000000000000000000000055
:1037A00000000000000000000000000186A003E807
:1037B000144E2003E8020BB80BB83CD4C000141F11
:0537C000404E20EA600C
:00000001FF
