:0A0000000234F65395EF5396EF22F9
:10000B00020800438E805389F0758A50758CFBC2B1
:10001B008DD2A9C2B9D28C22021642E4F52BC2139F
:10002B00FB7A00792BF53D753E017F05FE1219D544
:10003B00C2929002767403F0A374E8F07F03121C53
:10004B000B7FDC7E05022109021A8FE4FF021D9D46
:10005B00021AE578067C007D017BFF7A3379DB7E23
:10006B00007F2D1227F478337C007D017BFF7A34DF
:10007B0079087E007F2D1227F4E4F52BC200C20114
:10008B0078607C007D017BFF7A347935FE7F0E1220
:10009B0027F4201202217DC2127E007F2D7D007B72
:1000AB00017A007933122B909001B7E064CC704F3A
:1000BB009001C4E0642D7047A3E064A070419002EE
:1000CB0037E0C3942D403878B17C017D017B017AF8
:1000DB000179BE7E007F061227F49001B7E09000F5
:1000EB0033F078347C007D017B017A0179C47E008A
:1000FB007F201227F4E4F5139001B0742D80369015
:10010B0001B7E064AA7035A3E06421702FA3E0640B
:10011B00A07029900237E0B4212278337C007D0156
:10012B007B017A0179B77E007F211227F4751301C9
:10013B009001B07421F0F52BD20080369001B7E01E
:10014B0064AA7029A3E0B41424900237E0B40E1D06
:10015B0078337C007D017B017A0179B77E007F0EBD
:10016B001227F4751302752B14D200800575130337
:10017B00C200300078C202C203C200E52B24EC603F
:10018B005024E76004240C70627B017A0079387D7F
:10019B001C121E08900037E0B50702D20278387C9B
:1001AB00007D017B017A0279717E007F05122B6C39
:1001BB00EF7002D203900036E0B41402D20290002A
:1001CB0036E0B40902D203A20382035020D201808D
:1001DB001C78367C007D017B017A0279717E007F71
:1001EB0005122B6CEF7006D2018002C201200102B6
:1001FB00A17CC201E51314600B147002A12424022C
:10020B006002A17CC202D203900036E0F52C7E0086
:10021B007F2D7D007B017A007906122B90E52C2433
:10022B00F7B41100400281FF90023D25E05002051A
:10023B008373417B81FF81FF81FF81FF81FF81FF01
:10024B00415F41F181FF81FF610881FF81FF813AAD
:10025B008151816890003EE0146008047008750EAF
:10026B00018003E4F50E90003EE0900011F081FF59
:10027B00E4F52DFB7A00792DF5447545017F05FEDC
:10028B00121C48E52D705B78027C007D017BFF7AA8
:10029B00347943FE7F041227F478027C007D017BC6
:1002AB00017A0079397E007F041227F47B017A00F2
:1002BB0079021212E290003FE0F509A3E0F50A7B08
:1002CB00007A007909753D00753E017F037E0012AF
:1002DB0019D57B007A00790A753D00753E017F04C4
:1002EB00814DC20381FFE4F52DFB7A00792DF54496
:1002FB007545017F05FE121C48E52D81FFE4F52DA8
:10030B00782E7C00FD7BFF7A347947FE7F0712271E
:10031B00F490004DE0F52EA3E0F52FA3E0F531A30B
:10032B00E0F53285320BA3E0F533A3E0F5307835F9
:10033B007C007D007B007A00792E7E007F071227E0
:10034B00F412197A900040E0245F6073147002611C
:10035B00EA240260028128E4F52DE52D75F003A453
:10036B002441F582E43400F583E0B4803BAF2D7477
:10037B0001A807088002C333D8FC426BE52D75F04A
:10038B0003A42441F582E43400F583C083C082E0EA
:10039B00FF900052E014FE7401A806088002C333DC
:1003AB00D8FC4FD082D083F0052DE52DB404AB7B68
:1003BB00017A007941753D00753E0C7F1080599094
:1003CB000041E0600E436C02F56DA3E024FF921F29
:1003DB00E48006536CFDE4F56DF566F567803E90A1
:1003EB000041E06008436C01F565E48006536CFE48
:1003FB00E4F565F569F56A7B007A00796C753D006B
:10040B00753E017F207E001219D57B007A0079653D
:10041B00753D00753E017F217E001219D590003F7E
:10042B00E0900012F0900040E0900013F081FF7517
:10043B002D01D2137B007A00792D753D00753E019D
:10044B007F057E008012E4F52DC213FB7A00792D17
:10045B00F53D753E017F05FE1219D581FF90003FDA
:10046B00E0900012F0900040E0900013F0900040FC
:10047B002460600A14605214607424A27076E4F550
:10048B002D7B017A007914F54475450C7F10FE1213
:10049B001C48E4F52D74017E00A82D088005C3339C
:1004AB00CE33CED8F9FFEF556B6013E52D75F00306
:1004BB00A42414F582E43400F583E05480F0052D78
:1004CB00E52DB404D0D202802BE56745667002801F
:1004DB000FAE66AF677C007D3C1228A6C3E56D9F0F
:1004EB00900014F0A21FE433900015F080069000EA
:1004FB0014E565F030037A7B017A007906852C3997
:10050B00A20292047D0A12117E7B017A0079069079
:10051B0001B0E0FD1221A98058900035E024DE7077
:10052B0050782C7C007D007BFF7A34794E7E007FE7
:10053B00071227F490003CE0F533A3E0F534752C5B
:10054B001285332D85342F90003BE0F52E90003E25
:10055B00E0F530A3E0F531A3E0F53278357C007D92
:10056B00007B007A00792C7E007F071227F412198A
:10057B007A9001AEE0FEA3E0FFE4FCFDAB12AA1102
:10058B00A910A80FD31229094002E103E49001AE90
:10059B00F0A3F0FE7F14FD7B017A007960122B90A3
:1005AB0090006074AAF0A37414F0201002C1B9B2C9
:1005BB0010A37422F078637C007D017B017A0279B1
:1005CB00717E007F051227F47B007A007909754450
:1005DB00007545017F037E00121C487B007A007971
:1005EB000A7544007545017F047E00121C4890007B
:1005FB0068E509F0A3E50AF0900254E0FCA3E0FDE6
:10060B00A3E0FEA3E0FF122501752C008F2DAC2C6F
:10061B00AD2DE41224C8A804A905AA06AB079002C5
:10062B0054E0FCA3E0FDA3E0FEA3E0FF1221AF7BAF
:10063B00007A40791C78461222A41225018E2E8F47
:10064B002F90006AE52DF0EEA3F0A3E52FF09002BA
:10065B0044E0FCA3E0FDA3E0FEA3E0FF1225018E26
:10066B002C8F2DAC2CAD2DE41224C8A804A905AAFF
:10067B0006AB07900244E0FCA3E0FDA3E0FEA3E081
:10068B00FF1221AF7B007A40791C78461222A4120C
:10069B0025018E2E8F2FE52C90006DF0A3E52DF00C
:1006AB00E52EA3F0A3E52FF0A3E50BF08035B210F8
:1006BB009000627423F078637C007D017B017A02E9
:1006CB0079717E007F051227F4A213E43390006842
:1006DB00F0A21EE433A3F0A220E433A3F0E56C54A4
:1006EB0001A3F09000727407F0A374ABF07B017A56
:1006FB000079607D141221A9228B2C8A2D892E7BE7
:10070B00007A00792F75440075450C7F107E00121E
:10071B001C48E4F53BE53B75F003A4242FF8E654A5
:10072B007FFFAB2C75F003E53BA4252EF9E52D35AA
:10073B00F0FA12281A54804FFF122860E53B75F02F
:10074B0003A4242FF8E65480C41313135401C433A9
:10075B0033335480FEEF547F4E122860E53B75F027
:10076B0003A42430F8E654E0C4135407FDE53B75AD
:10077B00F003A4AB2C252EF9E52D35F0FAE9240175
:10078B00F9E43AFA12281A54F84DFF122860E53BA7
:10079B0075F003A42430F8E6541F33333354F8FEBA
:1007AB00EF54074E122860E53B75F003A42431F893
:1007BB00E6FDE53B75F003A4AB2C252EF9E52D35B5
:1007CB00F0FA900002ED122872053BE53B640460E1
:1007DB0002E12022E515D394064006E4F515B21488
:1007EB00220515201403431401AF14121D9DE514AB
:1007FB0025E0F51422C0E0C0F0C083C082C0D075E4
:10080B00D000C000C001C002C003C004C005C006B8
:10081B00C007903733E493FFE577C39F5004057708
:10082B00804A757700E51D147040301809C2189086
:10083B00025CE4F0A3F0903734E493FE740193FF71
:10084B00C390025DE09F90025CE09E5010A3E00419
:10085B00F0700690025CE004F0B2B2800F90025C84
:10086B00E4F0A3F0D2B2F51D8002D2B2903731E49E
:10087B0093FE740193FFC390026FE09F90026EE0B2
:10088B009E500EA3E004F0705490026EE004F080D2
:10089B004C90026EE4F0A3F0E51C24FE601514608E
:1008AB001714601914601B14601D2405702C12079B
:1008BB00DF802A121EBE8025121EEA8020121F40E6
:1008CB00801B121DCF8016900244E0FCA3E0FDA319
:1008DB00E0FEA3E0FF1218008003120056E51E2471
:1008EB00FE601014601814605624036002217FC24E
:1008FB00A52181302004C2A5807CD2A580789037B9
:10090B0036E493FE740193FFC390025FE09F900265
:10091B005EE09E500EA3E004F0705B90025EE0047C
:10092B00F0805390025EE4F0A3F0E5756006157558
:10093B00B2A58042D2A5903738E493F5758030C2CA
:10094B00A5903739E493FE740193FFC3900261E0E5
:10095B009F900260E09E500EA3E004F0701890028E
:10096B0060E004F08010900260E4F0A3F0D2A57573
:10097B001E028002D2A590372FE493FE740193FFE1
:10098B00C390026DE09F90026CE09E500EA3E004BA
:10099B00F0700690026CE004F0807390026CE4F04F
:1009AB00A3F0E56C30E138AF6D7E007C007D3C122E
:1009BB002894C3E5679FE5669E500A0567E5677057
:1009CB001E0566801AE567456660147566007567D7
:1009DB0000536CFD301F057568008003756801E5D9
:1009EB006C30E02A302027AF657E007C007D3C1206
:1009FB002894C3E56A9FE5699E500A056AE56A700B
:100A0B000D05698009756900756A00756801903775
:100A1B002EE493FFE576C39F50040576613075761F
:100A2B00009001AFE004F070069001AEE004F030EE
:100A3B001C0878A806E618700106900276E0700292
:100A4B00A3E06010900277E024FFF0900276E03490
:100A5B00FFF08002D29290372CE493FE740193FF47
:100A6B00C390026BE09F90026AE09E500EA3E004DD
:100A7B00F0700690026AE004F0613090026AE4F0D4
:100A8B00A3F0900240E0FCA3E0FDA3E0FEA3E0FF97
:100A9B0090025812293D302078E4FFFE7DA07C4067
:100AAB00900258E0F8A3E0F9A3E0FAA3E0FB1224CC
:100ABB004A60254023E4FFFE7DA07C40900262E06B
:100ACB00F8A3E0F9A3E0FAA3E0FB12244A6002507A
:100ADB0007751C05D2178039E4FFFE7DA07C409082
:100AEB000262E0F8A3E0F9A3E0FAA3E0FB12244AC8
:100AFB00401FE4FFFE7DA07C40900258E0F8A3E08D
:100B0B00F9A3E0FAA3E0FB12244A5005751C00D2AE
:100B1B0017900258E0FCA3E0FDA3E0FEA3E0FF90DA
:100B2B00026212293D30113AE50CC3940F500405B3
:100B3B000C802F20122AD2127E007F407DFF7B017A
:100B4B007A0179B7122B90AF0D7E0078B77C017DBF
:100B5B00017B017A0079EE1227F4900237E50DF054
:100B6B00C21190372812292D900266E0F8A3E0F904
:100B7B00A3E0FAA3E0FBD31229095021900266E00F
:100B8B00FCA3E0FDA3E0FEA3E02401FFE43EFEE4B2
:100B9B003DFDE43CFC90026612293DA17590026676
:100BAB0012294900000000E4FBFA79A0784090027A
:100BBB0038E0FCA3E0FDA3E0FEA3E0FF1223AD9021
:100BCB00023C12293DE4FBFA79A07840900240E008
:100BDB00FCA3E0FDA3E0FEA3E0FF1223AD900250C7
:100BEB0012293DE4FFFE7DA07C40900250E0F8A36B
:100BFB00E0F9A3E0FAA3E0FB12244A600A400830B4
:100C0B002005751C06D2173081427FF97E1D7D5C55
:100C1B007C3590023CE0F8A3E0F9A3E0FAA3E0FBFB
:100C2B001222A4A804A905AA06AB077F737EDB7D5D
:100C3B00B67C3E1221AF90023CE0F8A3E0F9A3E0B2
:100C4B00FAA3E0FB1222A490024880387F7A7E162A
:100C5B007D257C3690023CE0F8A3E0F9A3E0FAA3F3
:100C6B00E0FB1222A47B4F7A9279E478401221B3F5
:100C7B0090023CE0F8A3E0F9A3E0FAA3E0FB122218
:100C8B00A490024C12293D7F777ECC7D2B7C329039
:100C9B000250E0F8A3E0F9A3E0FAA3E0FB1222A4D0
:100CAB00A804A905AA06AB077F727E277D8D7C4021
:100CBB001221AF900250E0F8A3E0F9A3E0FAA3E011
:100CCB00FB1222A490024412293D900250E0FCA397
:100CDB00E0FDA3E0FEA3E0FF1225018E258F26E5A4
:100CEB002645257005F525752601900254E0F8A3DD
:100CFB00E0F9A3E0FAA3E0FBC000C001C002C0030F
:100D0B00AC25AD26E41224C87B007ABA795B784A0D
:100D1B001222A4C004C005C006C007900244E0FC28
:100D2B00A3E0FDA3E0FEA3E0FF900240E0F8A3E008
:100D3B00F9A3E0FAA3E0FB1222A4D003D002D00166
:100D4B00D0001223ADD003D002D001D0001221B3BA
:100D5B0090025412293D90023812294900000000DC
:100D6B0090024012294900000000D007D006D005A0
:100D7B00D004D003D002D001D000D0D0D082D08309
:100D8B00D0F0D0E032E4F52B78027C007D017BFFC4
:100D9B007A377913FE7F071227F478097C007D01DF
:100DAB007BFF7A37791A7E007F0C1227F47B017A4E
:100DBB000079021216DC201D28D21D7B007A0079E7
:100DCB006C7544007545017F207E00121C487B002A
:100DDB007A0079657544007545017F217E00121CF0
:100DEB0048900007E07011A3E0D3941E500A9002C4
:100DFB0054122949000000007B017A00790912077F
:100E0B0004900009E020E71890000CE020E7119017
:100E1B00000FE020E70A900012E020E703C21E2239
:100E2B00D21EE4F52BE52B75F003A42409F582E41F
:100E3B003400F583E0547FFD900004E0FF121F1691
:100E4B004002E1B5E52B75F003A42409F582E434E7
:100E5B0000F583E0C4131313540120E002E1B5E560
:100E6B002B75F003A4240AF582E43400F583E01318
:100E7B001313541F75F03CA4FFAEF0E52B75F00374
:100E8B00A4240BF582E43400F583E07C002FFDEC09
:100E9B003EFC900006E075F03CA4FFA3E07A002F27
:100EAB00FFEA35F0FEEF6D7002EE6C7068A3E0D3D5
:100EBB009405506174017E00A82B088005C333CEC6
:100ECB0033CED8F9FFEF556B602CAF2B7401A8070D
:100EDB00088002C333D8FCF4526BE52B75F003A4E6
:100EEB002410FFE435F0FE7BFF7A377926753D0041
:100EFB00753E011219D5E52B75F003A4240AF58272
:100F0B00E43400F583E0540730E005E4F568E1B51F
:100F1B00756801E1B5E52B75F003A4240AF582E4AD
:100F2B003400F583E0131313541F75F03CA4FFAE8C
:100F3B00F0E52B75F003A4240BF582E43400F58364
:100F4B00E07C002FFDEC3EFC900006E075F03CA42D
:100F5B00FFA3E07A002FFFEA35F0FED3EF9DEC64A0
:100F6B0080F8EE648098404274017E00A82B0880C4
:100F7B0005C333CE33CED8F9FFEF556B602CAF2BB7
:100F8B007401A807088002C333D8FCF4526BE52B1D
:100F9B0075F003A42410FFE435F0FE7BFF7A37795C
:100FAB0027753D00753E011219D5052BE52BC39412
:100FBB00045002C13022AD07121F677B077A001263
:100FCB001F67C2967F01121F6DAF03EDA807088044
:100FDB0002C313D8FC30E004D2968002C296121FD3
:100FEB0069D297121F69EB1B70011ABAFFD1BBFFB5
:100FFB00CE121F672278027C007D017BFF7A33794A
:10100B001D7E007F041227F478067C007D017BFF98
:10101B007A3379217E007F281227F4752B13752CD8
:10102B0088C2A67FC87E00122109D2A67FB87E0B8C
:10103B008014309316E52C152CAE2B7002152B4E0D
:10104B0060097F017E0012210980E7E52C452B709A
:10105B0002C3227F0F121B3B400122121CC2400114
:10106B00227F0A7E001221097A3279DC121CC640DB
:10107B00012278387C007D007BFF7A3279F6121CD6
:10108B00CE4001227B017A0079027544007545043C
:10109B007F307E00121C48753BFF753C32753DA4BA
:1010AB00900002E0753E00F53FA3E0754000F5416E
:1010BB00A3E0754200F543A3E0754400F5457B01C1
:1010CB007A007906122C3F7F0A7E0012210975499E
:1010DB00FF754A32754BF9754CFF754D32754EFFE6
:1010EB00903301E493F54F740193F5507551057BE3
:1010FB00017A00790612159F4001227F0A7E0012A9
:10110B0021099032E9E493FB740193FA740293F989
:10111B001235A9AD079032E9E493FB740193FA748D
:10112B000293F91221A97FC87E001221099032E99E
:10113B00E493FB740193FA740293F91235A9AD078A
:10114B009032E9E493FB740193FA740293F9122140
:10115B00A9309316E52C152CAE2B7002152B4E6077
:10116B00097F017E0012210980E7E52C452BD37006
:10117B0001C3228B358A3689378D389001B0E02434
:10118B00DF7002417724F4600241E1786E7C007DD0
:10119B00017BFF7A33799B7E007F201227F4AB35DE
:1011AB00AA36A93774CC122860AB35E5372401F980
:1011BB00E43536FA786E7C007D017E007F201227A5
:1011CB00F4E537240DF9E43536A801FCAD357B0188
:1011DB007A00796E7E007F201227F4E5372401F91F
:1011EB00E43536A801FCAD357B017A0179B17E007F
:1011FB007F061227F4E5372408F9E43536A801FCFD
:10120B00AD357B017A0279717E007F051227F4AB35
:10121B0035AA36A93790000D742D12287290000E46
:10122B00E53812287290000FE53912287220040E4F
:10123B00AB35AA36A9379000167407122872E5371A
:10124B002411F9E43536A801FCAD357B017A02791E
:10125B00717E007F051227F4AB35E5372411121E82
:10126B0001AB35AA36A9379000108066AB35AA368C
:10127B00A93774AA122860AB35AA36A9379000019A
:10128B007421122872900002E53812287290000324
:10129B00E53912287220040EAB35AA36A937900017
:1012AB000A7407122872E5372405F9E43536A801CC
:1012BB00FCAD357B017A0279717E007F051227F434
:1012CB00AB35E5372405121E01AB35AA36A937908D
:1012DB000004EF122872228B358A368937787B7C93
:1012EB00007D007BFF7A3379497E007F281227F43B
:1012FB0078A37C007D007BFF7A3379717E007F04BD
:10130B001227F47B007A0079A37544007545047F9E
:10131B00307E00121C4878A37C007D00AB35AA36CA
:10132B00A9377E007F04122B6CEF7002D322AB35F2
:10133B00AA36A937753D00753E047F307E00121921
:10134B00D5753BFF753C32753DA4AB35AA36A93735
:10135B0012281A753E00F53F900001122833754094
:10136B0000F541900002122833754200F5439000BE
:10137B0003122833754400F5457B007A00797B1204
:10138B002C3F7F0A121B3B400122121CC240012240
:10139B007549FF754A32754BF9754CFF754D3275B2
:1013AB004EFF903301E493F54F740193F550755153
:1013BB00057B007A00797B12159F4001229032E960
:1013CB00E493FB740193FA740293F91235A9AD07F8
:1013DB009032E9E493FB740193FA740293F91221AE
:1013EB00A97FC87E001221099032E9E493FB7401B6
:1013FB0093FA740293F91235A9AD079032E9E4938D
:10140B00FB740193FA740293F91221A9D322782B5E
:10141B007C007D007BFF7A3679FB7E007F141227E0
:10142B00F47F0A7E001221097B007A00792B754428
:10143B00007545017F017E00121C487F0A7E001259
:10144B002109E52B64A1700281EFE4FFFE122065F8
:10145B007F0A7E00122109752BA17B007A00792B64
:10146B007544007545017F017E00121C857F0A7E45
:10147B0000122109E4F52BFB7A00792BF544754515
:10148B00017F05FE121C857F0A7E001221097E005A
:10149B007F0C7D007B007A00792B122B907B007ADE
:1014AB0000792B75440075450D7F107E00121C854D
:1014BB007F0A7E00122109782B7C007D007BFF7A4E
:1014CB0037790F7E007F041227F47B007A00792B8B
:1014DB007544007545047F307E00121C857F0A7EA3
:1014EB0000122109228B2B8A2C892D1221A34062F9
:1014FB00D21B201C02D21C78A7E6FE08E6FFD39075
:10150B00373D7401939FE4939E5019C390373F74FA
:10151B0001939FE4939E400C201909AA2FA9301226
:10152B0029E0D21978A7E6FE08E6FFD390373F747F
:10153B0001939FE4939E505BC39037417401939F3B
:10154B00E4939E404E201A4BAA32A9331229E0D2C3
:10155B001A22201903301A03751E02C21C301B33CA
:10156B00C21B78A7E6FE08E6FFD390373D740193C4
:10157B009FE4939E401390373B7401939FE4939E9B
:10158B005007AA2CA92D1229E0E478A7F608F6C279
:10159B0019C21A228B468A478948E4F552F553F54E
:1015AB0054F555C212F552E552C395514002C14054
:1015BB00854F54855055AB46AA47A9481235A9AD5E
:1015CB0007AB46AA47A9481221A9E5551555AE54B4
:1015DB00700215544E605A7F027E001221093012A0
:1015EB00E9C212E4F553E553C3940250DD90023780
:1015FB00E0FDAB49AA4AA94B75F003E553A4F5826C
:10160B0085F08312298A8B5A8A5B895CAB4CAA4D75
:10161B00A94E855382758300122833F55D7B017AC1
:10162B000179B7121772EA494B6002D32205538036
:10163B00B50552A1B2C322C0E0C0F0C083C082C0C6
:10164B00D075D000C000C001C002C003C004C005EB
:10165B00C006C007C2AF309831C298E574702B201A
:10166B001114D211F50CF50DFE7F407DFF7B017A35
:10167B000079EE122B90AF0D050D74EE2FF582E471
:10168B003400F583E599F0750C00309927C299E584
:10169B006F6570601C742E256FF582E43401F58341
:1016AB00E0F599056FE56FC394804008756F008076
:1016BB0003757100D2AFD007D006D005D004D0038C
:1016CB00D002D001D000D0D0D082D083D0F0D0E0E7
:1016DB00328B2C8A2D892E7F08121E90122167AB1C
:1016EB002CAA2DA92EEF1228607F07121E90122113
:1016FB0067AB2CAA2DA92E900001EF1228727F0642
:10170B00121E90122167AB2CAA2DA92E900002EF6E
:10171B001228727F05121E90122167AB2CAA2DA9DD
:10172B002E900003EF1228727F04121E9012216775
:10173B00AB2CAA2DA92E900004EF1228727F031256
:10174B001E90122167AB2CAA2DA92E900005EF122B
:10175B0028727F02121E90122167AB2CAA2DA92E84
:10176B00900006EF0228728D598B568A578958E4E0
:10177B00F55E8B5F8A608961855A62855B63855CE8
:10178B0064C3E5619558FFE5609557FE7C00EF2536
:10179B005DFFEC3EFED3EF95597480F86E98504781
:1017AB00AB620564E564AA637002056314F9122841
:1017BB001AFFAB5F0561E561AA607002056014F961
:1017CB0012281AB50713055EE55EB55DD3C3E56157
:1017DB00955DF9E5609400FA22855A62855B638515
:1017EB005C64E4F55E809A7B007A0079002200004D
:1017FB007F03DFFE228F2A8E298D288C2743A08F13
:10180B00E4FFFE7DA07C40AB2AAA29A928A82712B9
:10181B00244A60044002C2A0E4FFFE7DC87C42ABB8
:10182B002AAA29A928A82712244A60044002C2A187
:10183B00E4FFFE7D487C43AB2AAA29A928A82712DE
:10184B00244A60044002C2A2E4FFFE7D967C43ABB7
:10185B002AAA29A928A82712244A60044002C2A355
:10186B00E4FFFE7DC87C43AB2AAA29A928A827122E
:10187B00244A60044002C2A7228B3075310AEF75EF
:10188B00F032A4AEF02464F533E43EF532AE04AF8F
:10189B00057C037DE8122894AC32AD331228A68E5A
:1018AB00348F35E4FBFAC3EB9535EA9534503DC2E2
:1018BB00B2E531FD7C00AE32AF331228A6AD307CE1
:1018CB000012289412211ED2B2E531F582AE32AF4E
:1018DB0033FD1228A6C3E5829530FDE49400FC127B
:1018EB00289412211E0BBB00010A80BA22C2AFD270
:1018FB00BCE598543F4440F598E4752E38752D019E
:10190B00F52CF52BC3952EF52EE4952DF52D7401A5
:10191B00952CF52CE4952BF52BAF2EAE2DAD2CFC89
:10192B00780812291A8FD6852ED7538EEF438E0146
:10193B00538EF7438E0453AFFB538EF7438E10D267
:10194B00ACD29C53A23F7E007F807D007B017A014D
:10195B00792E122B90D2AF7BFF7A3379750221440B
:10196B0078357C007BFF7A3479E87F071227F4AF58
:10197B0035122131AD077F08121FB3AF361221315B
:10198B00AD077F07121FB3E537600BFF122131AD97
:10199B00077F06121FB3AF38122131AD077F051237
:1019AB001FB3AF39122131AD077F04121FB3AF3A0A
:1019BB00122131AD077F03121FB3E53B600BFF1202
:1019CB002131AD077F02121FB3228E388F398B3A2C
:1019DB008A3B893C786E7C007D017BFF7A367945AA
:1019EB007E007F801227F47B017A00796E754400AC
:1019FB00754580E4FFFE121C48E4FF122065AE3DE6
:101A0B00AF3E746E2539F974003538A801FC7D01A1
:101A1B00AB3AAA3BA93C1227F47B017A00796E758D
:101A2B004400754580E4FFFE021C85E4F52BEF2492
:101A3B00FE600B14600C2402700AB2208006D220C8
:101A4B008002C220302007D217751C038005751C3D
:101A5B0004D217751E02751D01302005E4F569F5DA
:101A6B006AA22092B3E51FB40119A220E433F52B2F
:101A7B007B007A00792B753D00753E017F027E005D
:101A8B001219D522C0E0C0F0C083C082C0D075D07F
:101A9B0000C000C001C002C003C004C005C006C026
:101AAB0007900240E0FCA3E0FDA3E0FEA3E0FFE40F
:101ABB00FBFA7980783F1221B390024012293DD076
:101ACB0007D006D005D004D003D002D001D000D06F
:101ADB00D0D082D083D0F0D0E032C0E0C0F0C08351
:101AEB00C082C0D075D000C000C001C002C003C00E
:101AFB0004C005C006C007900238E0FCA3E0FDA3BC
:101B0B00E0FEA3E0FFE4FBFA7980783F1221B3906B
:101B1B00023812293DD007D006D005D004D003D00F
:101B2B0002D001D000D0D0D082D083D0F0D0E03220
:101B3B008F38853839E599646160141539E539605A
:101B4B000E7F2B1221A67FC87E0012210980E6E5AD
:101B5B00397002C322853839E5996441601415390F
:101B6B00E539600E7F611221A67F647E0012210988
:101B7B0080E6E539D37002C32222E4787BF653B1B9
:101B8B00F743B208C2B3E51FB4011C7B007A00799E
:101B9B007B7544007545017F027E00121C48787BE3
:101BAB00E624FF92208014E4787BF6FB7A00797BA5
:101BBB00F53D753E017F02FE1219D5A22092B3228C
:101BCB00A20D301E01B34016A20E302001B3400E01
:101BDB00A20F301301B34006E508656C6021E512D6
:101BEB00249CFEE51134FF9001AEF0A3CEF0C210A1
:101BFB00A21E920DA220920EA213920F856C0822A8
:101C0B008F2CE4F52DE52C9035BE93FFE52DC39F6E
:101C1B00502AE52C75F008A424CDF582E43435F573
:101C2B0083E582252DF582E43583F583E493FF7BF1
:101C3B00087D047C001220BE052D80C922AD07ACA7
:101C4B0006C2AF75C78075C5018CC3AF058FC47550
:101C5B00C65A75C6A500E5C21228600DBD00010C61
:101C6B00740129F9E43AFAE5451545700215441457
:101C7B00454470D5122176D2AF22AD07AC06C2AF68
:101C8B0075C78075C5028CC3AF058FC412281AF5B2
:101C9B00C275C65A75C6A5000DBD00010C7401298D
:101CAB00F9E43AFAE54515457002154414454470BC
:101CBB00D5122176D2AF227A3279C278387C007D68
:101CCB00007BFF7E007F0D1227F4754505754900DB
:101CDB00754A00754B3B754C00754D00754E418533
:101CEB00434F854450854551AB38AA39A93A121553
:101CFB009F22121419121E32751C02751E027F0AC6
:101D0B00121C0B120D90121E6112005E121BCB7572
:101D1B002EFF752F1F7530FA7531FF753221753314
:101D2B00987BFF7A21799E1214F080D7E4FDFBFAA1
:101D3B00C2977F01FE121F6DD2977F01121F6D306C
:101D4B009610C3EB94D0EA940750070BBB00010A23
:101D5B0080EDA296E433FD121F69C297AF0522E412
:101D6B00FDC2977F01FE121F6D7B077A00ED25E008
:101D7B00FDD297121F693096054305018003530569
:101D8B00FE121F67EB1B70011ABAFFE1BBFFDEAF40
:101D9B000522EF30E004C2A08002D2A0EF30E104B4
:101DAB00C2A18002D2A1EF30E204C2A28002D2A271
:101DBB00EF30E304C2A38002D2A3EF30E403C2A747
:101DCB0022D2A722301709C217E4F517C216F5164F
:101DDB00E517D394064006E4F517B216220517AFA4
:101DEB0016121D9DE51620160825E0F51643160163
:101DFB0022C313F51622F9E43536FA7D1C8B3A8A89
:101E0B003B893CE4FFFEEFC39D5013AB3AAA3BA9C1
:101E1B003C8F827583001228332EFE0F80E86306F9
:101E2B00FF6306A7AF062212208412000E1220D8E1
:101E3B00122191122184121FD712200012000312BB
:101E4B0018F8121B85538EFDD2AF751E01751C0140
:101E5B0012100050FB22E50E14600A04700F750E71
:101E6B00027F028005750E027F03121A36E5681495
:101E7B00600A04700F7568027F0280057568027F27
:101E8B0003121A3622AC07E4FDFF1220467FA21282
:101E9B000FC1121D37AF04120FC1121D371220468E
:101EAB007FA3120FC1121D37121D6AAD071220A19D
:101EBB00AF0522900278E0D39410400AE4F0FF12B1
:101ECB001D9D751C0622900278E004F0E020E002D4
:101EDB00B215301504E4FF80027FFF121D9D2230E6
:101EEB001707C217E4F519F518E519D39406400A3C
:101EFB00E4F519751C06FF021D9D0519AF18121D7F
:101F0B009DE51825E0F51843180122AC07A9051C1F
:101F1B00E4FD74017E00A805088005C333CE33CEE3
:101F2B00D8F9FFE9FBEF5B6006EDB50402D3220D98
:101F3B00BD07DFC322301708C217E4F51B751A1F44
:101F4B00E51BD394064007E4F51BFF021D9D051B03
:101F5B00AF1A121D9DE51AC313F51A22C2977F0102
:101F6B007E00EF25E07901F3EE3319F3780008E2F8
:101F7B0024FFFFF218E234FFF24F60051217F980CD
:101F8B00EB228B568A578958E4FEEEC39D5018AB53
:101F9B00560558E558AA577002055714F912281A16
:101FAB00FF1220230E80E3228F3CAC05E4FF1220AE
:101FBB00467FA2120FC1121D37AF3C120FC1121D6B
:101FCB0037AF04120FC1121D370220A153B1FB43CF
:101FDB00B2047B087D037C007F031220BE7F327E20
:101FEB00001221097B087D037C007F030220BE7554
:101FFB001E030200265395BF4396405391FB439219
:10200B00044391085392F753B1FD43B20243B1011C
:10201B0053B2FED2A6D29222742E2570F582E434EE
:10202B0001F583EFF00570E570C394804003E4F590
:10203B0070E5717005757101D29922121F67D296E6
:10204B007F01121F6DD2977F01121F6DC2967F0108
:10205B00121F6DC2977F01021F6DAD07AC06C2AF99
:10206B008CC3AF058FC475C78075C50375C65A750C
:10207B00C6A500122176D2AF227FF87E3FEF24FA5D
:10208B00FFEE34FFFAA9077BFF78707C027D017E9F
:10209B00007F060227F4C296121F69D2977F0112A6
:1020AB001F6DD2967F01121F6DC2977F05121F6D98
:1020BB00D297228F2E8B2FAF05A907E9600EAB2F7E
:1020CB007D327C00AF2E1218841980EF225393FDC2
:1020DB0043940243B1C053B23F438F10438F20C28E
:1020EB00B8C2BAD28122C2929002767413F0A37452
:1020FB0088F07F04121C0B7FD07E07022109AB07EF
:10210B00AA06EB1B70011A144A60077F01122157B4
:10211B0080F022EF1F70011E144E600900000000BA
:10212B0000000080EE22EF75F00A84C454F0FEEF3D
:10213B0075F00A84E5F02EFF2212281AFF600C12AC
:10214B002023740129F9E43AFA80EE227D367C07CC
:10215B00ED1D70011C144C70F7DFF122EFC4540F0E
:10216B0075F00AA4FEEF540F2EFF22E4F5C7F5C558
:10217B00F5C675C3FF75C4FF2243952043962053C4
:10218B0095504396AF2253913F53923F22751E04B5
:10219B000220F17F01021A36A2A422022023021F81
:1021AB008D02256DE86480F8E933E8336011046033
:1021BB00F0ED33EC337009E8FCE9FDEAFEEBFF22AE
:1021CB000460DED3EB9FEA9EE99DE8C2E78CF0C288
:1021DB00F795F0400CE8CCF8E9CDF9EACEFAEBCF65
:1021EB00FB12253885D0F05804700320D5B3E804D2
:1021FB0070075002B2D502257792D5EC0460F7E454
:10220B00CCC0E0C398F8603B94186008400DD0E058
:10221B00FB02254FE4FBFAC9FC8028E830E406E416
:10222B00C9FBE4CAFCE830E305E4C9CACBFCE854BB
:10223B00076010F8C3E913F9EA13FAEB13FBEC137D
:10224B00FCD8F130F52FC3E49CFCEF9BFFEE9AFE1C
:10225B00ED99FDD0E0FBEF4E4D4C701222DB0302EB
:10226B002574EC2CFCEF33FFEE33FEED33FDED303C
:10227B00E7EB02254FEF2BFFEE3AFEED39FDD0E0F9
:10228B00FB50130BBB0003022577ED13FDEE13FE82
:10229B00EF13FFEC13FC02254FEC4D6011E8497076
:1022AB0017ED33EC3304600DE4FCFFFEFD22E93344
:1022BB00E8330470F802256D12253858046009E4E0
:1022CB00CC2481500628500902257728400302258B
:1022DB0074C0E0EB4A7044B98006D0E0FB02256382
:1022EB00EF4E701CBD8008EBFFEAFEE9FD80EBE9C9
:1022FB008DF0A4FEE5F002238DE9CDF9EAFEEBFFAC
:10230B00EF89F0A4FCE5F0CE89F0A42EFFE435F0C4
:10231B00CD89F0A42DFEE435F08067EF4E7005BD3E
:10232B0080D780C3EF8BF0A4ACF0EE8BF0A42CFC29
:10233B00E435F0F8EF8AF0A42CE5F038FCE433CB6D
:10234B008DF0A42CFCE5F03BF8EE8AF0A42CFCE518
:10235B00F038F8E433CF89F0A42CFCE5F038CF3417
:10236B0000CE89F0A42FFFE5F03EFEE433C98DF0DB
:10237B00A42EFEE5F039CD8AF0A42FFFE5F03EFE4A
:10238B00E43DFD33D0E0FB50070BBB000F0225777C
:10239B00EC2CFCEF33FFEE33FEED33FD02254F0249
:1023AB002577EC5D046005E85904700302256D1276
:1023BB002538580460F6EC4860F2EC7004FDFEFF23
:1023CB0022C860DB2481C85009C398600250060202
:1023DB0025749850CAF582E9294B4A7005AB8202E5
:1023EB00256375F0007C1A7880C3EF9BEE9AED990C
:1023FB00400DC3EF9BFFEE9AFEED99FDE842F0DC3A
:10240B0023ACF0D0E0FFD0E0FED0E0FDAB8220E7C4
:10241B00101BEB60BAEC2CFCEF33FFEE33FEED330D
:10242B00FD02254FE803F830E705C0F075F000EF2B
:10243B002FFFEE33FEED33FD40B830E7C280AA74B8
:10244B00F8CC6480CCC86480C8F58204604FC3EBC1
:10245B009FF5F0EA9E42F0E99D42F0E89C45F06062
:10246B003C501DE5825FFFE582D313CB5BCBF42B96
:10247B005582FB50280ABA002409B9002008801D98
:10248B00E5825BFBE582D313CF5FCFF4C3132F55EC
:10249B0082FF50090EBE00050DBD00010CC3EB9F62
:1024AB00F5F0EA9E42F0E99D42F0E89C45F06007AA
:1024BB00CC4820E701B3EC2275F020800E75F010AC
:1024CB00800575F0087D007E007F003392D530D5F6
:1024DB00031228FBEC334010EF33FFEE33FEED33EA
:1024EB00FDEC33FCD5F0ED22E5F0247EA2D513CC28
:1024FB0092E7CDCEFF22EDD2E7CD33EC3392D5244C
:10250B00814006E4FFFEFDFC22FCE4CFCECDCC24C3
:10251B00E0501174FF80EDC3CC13CCCD13CDCE1393
:10252B00CECF13CF0470F030D5DE0228FBE9D2E713
:10253B00C933E833F892D5EDD2E7CD33EC33FC5009
:10254B0002B2D522EC30E7100FBF000C0EBE000814
:10255B000DBD00040BEB6014A2D5EB13FCED92E761
:10256B00FD2274FFFCFDFEFF22E480F8A2D574FF70
:10257B0013FC7D80E480EFF920E72824F9500379E0
:10258B0007E4F42402FB18DBFDE624FB5014E9609E
:10259B000DE4F618E604F6B40A08E4F6D9F574016E
:1025AB00F60A22C2D522ED33EC3392D5FA602AB467
:1025BB00FF33EDC2E77BFF60067A2579D6E4227AFA
:1025CB002579DF20D5047A2579DA224E614E002B4E
:1025DB00494E46002D494E4600E47A08F608DAFCCF
:1025EB007B00740722E8C0E0ECC0E0EDC0E0EEC079
:1025FB00E0EFC0E0EA75F010A4CAABF075F04DA4A3
:10260B002BFBE435F0FCEA2410FAEB34C5FBEC347D
:10261B00D9FCEDC2E7FF75F056A4F42411C5F0F414
:10262B0034C58FF0A42AE5F03BE43CF620E7141206
:10263B0026E4D0E0FFD0E0FED0E0FDD0E0FC12239A
:10264B00AD8014F4041226E4D0E0FFD0E0FED0E01D
:10265B00FDD0E0FC1222A4D0E0F8E6FAEDD2E7CDF3
:10266B0033EC332482FBE4C3CF33CFCE33CECD3325
:10267B00CD33DBF37B0775F00A846004F6081B0A85
:10268B00E5F0F6088FF0740AA4FFACF08EF0740A34
:10269B00A42CFEACF050010C8DF0740AA42CFDE4BC
:1026AB0035F0F608DBDE7407223F80000041200086
:1026BB000042C80000447A0000461C400047C3504B
:1026CB0000497424004B1896804CBEBC205A0E1B3C
:1026DB00CA6753C21C749DC5AEFB60065407601CD1
:1026EB002323122712EB543860091226FE12270DF2
:1026FB001222A4ECF8EDF9EEFAEFCB22EB12270D38
:10270B0080F1543803241C9026B4FE93FC0EEE93F8
:10271B00FD0EEE930ECE93FF22E709F608DFFA804B
:10272B0046E709F208DFFA803E88828C83E709F0DE
:10273B00A3DFFA8032E309F608DFFA8078E309F2C7
:10274B0008DFFA807088828C83E309F0A3DFFA80BC
:10275B006489828A83E0A3F608DFFA805889828A2B
:10276B0083E0A3F208DFFA804C80D280FA80C68027
:10277B00D4806980F28033801080A680EA809A80B2
:10278B00A880DA80E280CA803389828A83ECFAE4FB
:10279B0093A3C8C582C8CCC583CCF0A3C8C582C8D7
:1027AB00CCC583CCDFE9DEE7800D89828A83E49395
:1027BB00A3F608DFF9ECFAA9F0EDFB2289828A83F4
:1027CB00ECFAE0A3C8C582C8CCC583CCF0A3C8C5BE
:1027DB0082C8CCC583CCDFEADEE880DB89828A83C2
:1027EB00E493A3F208DFF980CC88F0EF60010E4E82
:1027FB0060C388F0ED2402B4040050B9F582EB24D9
:10280B0002B4040050AF232345822390277473BB7B
:10281B00010689828A83E0225002E722BBFE02E393
:10282B002289828A83E49322BB010CE58229F582FB
:10283B00E5833AF583E0225006E92582F8E622BBD0
:10284B00FE06E92582F8E222E58229F582E5833A44
:10285B00F583E49322BB010689828A83F02250021E
:10286B00F722BBFE01F322F8BB010DE58229F582AD
:10287B00E5833AF583E8F0225006E92582C8F62273
:10288B00BBFE05E92582C8F222EF8DF0A4A8F0CF9C
:10289B008CF0A428CE8DF0A42EFE22BC000BBE0023
:1028AB0029EF8DF084FFADF022E4CCF875F008EF42
:1028BB002FFFEE33FEEC33FCEE9DEC984005FCEE67
:1028CB009DFE0FD5F0E9E4CEFD22EDF8F5F0EE8498
:1028DB0020D21CFEADF075F008EF2FFFED33FD405D
:1028EB0007985006D5F0F222C398FD0FD5F0EA22D7
:1028FB00C3E49FFFE49EFEE49DFDE49CFC22EB9F62
:10290B00F5F0EA9E42F0E99D42F0E89C45F022E8A2
:10291B00600FECC313FCED13FDEE13FEEF13FFD8AA
:10292B00F122E493FC740193FD740293FE74039300
:10293B00FF22ECF0A3EDF0A3EEF0A3EFF022A882C0
:10294B008583F0D083D0821229601229601229600E
:10295B00122960E473E493A3C583C5F0C583C8C58E
:10296B0082C8F0A3C583C5F0C583C8C582C822FA47
:10297B00E6FB0808E6F925F0F618E6CA3AF622BB9C
:10298B00010DE58229F582E5833AF583022BC550CB
:10299B0007E92582F8022BBCBBFE07E92582F8026A
:1029AB002BCEE58229F582E5833AF583022BD7D02E
:1029BB0083D082F8E4937012740193700DA3A393E8
:1029CB00F8740193F5828883E4737402936860EF63
:1029DB00A3A3A380DF8A838982E473E3F5F009E282
:1029EB0008B5F06BDFF58067E3F5F009E608B5F0A5
:1029FB005EDFF5805A87F009E608B5F052DFF68006
:102A0B004E87F009E208B5F046DFF6804288828CEB
:102A1B008387F009E0A3B5F036DFF6803288828C2D
:102A2B008387F009E493A3B5F025DFF58021888235
:102A3B008C83E3F5F009E0A3B5F014DFF580108883
:102A4B00828C83E3F5F009E493A3B5F002DFF40283
:102A5B002B15808780E9809080D4803E8015806E16
:102A6B00807E809D80B7808D80A380518074803C58
:102A7B00022B2189828A83ECFAE493F5F0A3C8C573
:102A8B0082C8CCC583CCE493A3C8C582C8CCC5830C
:102A9B00CCB5F076DFE3DEE1807089828A83E49344
:102AAB00F5F0A3E208B5F062DFF4805E89828A83D9
:102ABB00E0F5F0A3E608B5F051DFF5804D89828A89
:102ACB0083E0F5F0A3E208B5F040DFF5803C8982A6
:102ADB008A83E493F5F0A3E608B5F02EDFF4802AA1
:102AEB008002805789828A83ECFAE493F5F0A3C8BD
:102AFB00C582C8CCC583CCE0A3C8C582C8CCC5836E
:102B0B00CCB5F006DFE4DEE280007FFFB5F0020F0C
:102B1B002240027F012289828A83ECFAE0F5F0A33E
:102B2B00C8C582C8CCC583CCE0A3C8C582C8CCC5F8
:102B3B0083CCB5F0D5DFE5DEE380CF89828A83ECE9
:102B4B00FAE0F5F0A3C8C582C8CCC583CCE493A347
:102B5B00C8C582C8CCC583CCB5F0AFDFE4DEE2805C
:102B6B00A988F0EF60010E4E60ABED2402B40400B7
:102B7B005098F582EB2402B40400508E2323458237
:102B8B0023902A5D73EF4E6012EF60010EEDBB01D7
:102B9B000B89828A83F0A3DFFCDEFA2289F05007CF
:102BAB00F709DFFCA9F022BBFEFCF309DFFCA9F05F
:102BBB0022E6FB08E6FA08E6F922E0FBA3E0FAA31B
:102BCB00E0F922E2FB08E2FA08E2F922E493FB7453
:102BDB000193FA740293F922E54F243BF8E6054F73
:102BEB00227838300B02783BE475F00112297A0217
:102BFB00281A2004EB7F2ED2048018EF540F249058
:102C0B00D43440D4FF30080BEF24BFB41A00500368
:102C1B002461FFE550600215500553E55370020522
:102C2B0052300B0D7838E475F00112297AEF022837
:102C3B00600235827403D20B8003E4C20BF54F8B19
:102C4B00388A39893AE4F550F552F553E550600767
:102C5B007F20122C1E80F57551FFC205C204C206DF
:102C6B00C207C209C20AC20C122BECFF700D300B4B
:102C7B00057F00122C2FAF53AE5222B4255FC2D565
:102C8B00C208122BECFF24D0B40A00501A75F00ABC
:102C9B00785030D50508B6FF0106C6A426F620D518
:102CAB00047002D20780D924CFB41A00EF5004C2AB
:102CBB00E5D208022F1CD20580C6D20480C0D206F2
:102CCB0080BCD2D580BAD20980B47F20122C1E20B2
:102CDB0006077401B5500040F1122BE3FF122C1EB6
:102CEB00022C57D20CD20A8095122BE3FB122BE34A
:102CFB00FA122BE3F94A4B700679137A307BFF20DB
:102D0B00062EE550602A7E008E82758300122833D2
:102D1B0060060EEE655170F0C2D5EBC0E0EAC0E084
:102D2B00E9C0E0EE122F7CD0E0F9D0E0FAD0E0FB66
:102D3B0012281AFF60AAEBC0E0EAC0E0E9C0E0127B
:102D4B002C1ED0E02401F9D0E03400FAD0E0FBE5F2
:102D5B00510460DCD551D98087D20680A2122F5F37
:102D6B0060F7E551700104122582A951600DE55100
:102D7B00600914F551123006EF60F3EA30E702F404
:102D8B0004C3995077EAF425510430E701E404F5C4
:102D9B0051800D122F5F60C1EA055125511225821A
:102DAB00EA784EF630E701E4255104D551042009A9
:102DBB000114122F7CE4C0E0123006784EE660134B
:102DCB0020E70714F6122C06802204F6D0E014C07C
:102DDB00E07F00122C06E5516007122BFD15518088
:102DEB000B300903122BFDD0E0022C57D0E00480EE
:102DFB00C5122F5F60A0E55104122582784EEAF6CA
:102E0B00E5512009026001042404122F7C74FF0495
:102E1B00C0E0123006122C06E551200902600312A5
:102E2B002BFDD0E0B551E87F45122C10784EE67F94
:102E3B002B30E7047F2DF404C0E0122C1ED0E0757C
:102E4B00F00A84C0F0122C07D0E0122C07022C578A
:102E5B00791080027908C20AC20C8008D2D5790A8F
:102E6B008004790AC2D5E551047002F551E4FAFDEC
:102E7B00FEFF122BE3FC7B08200513122BE3FD7BDB
:102E8B001030040A122BE3FE122BE3FF7B20EC33F2
:102E9B0082D592D55013C3E43004069FFFE49EFE07
:102EAB00E42005039DFDE49CFCE4CBF8C205EC702B
:102EBB000CCFCECDCCE824F8F870F38017C3EF33EA
:102ECB00FFEE33FEED33FDEC33FCEB33FB994002AD
:102EDB00FB0FD8E9EB300505F8D0E0C448B205C0CC
:102EEB00E00AEC4D4E4F78207B0070C2EAB55100E2
:102EFB0040BCC0E0122F7ED0F0D0E0200504C4C04F
:102F0B00E0C4B205C0F0122C07D0F0D5F0EB022CC8
:102F1B00571229BA2CF4532E5B582CC54C2CC1429A
:102F2B002E5F4F2E67442E67492CDA432E6D552D9D
:102F3B009E462DFC452D68473033502CC92D2CCD8A
:102F4B002E2CF02B2CD1232CEE20301C2A2C894834
:102F5B0000002CE8E551B4FF03755106122BE3FC7E
:102F6B00122BE3FD122BE3FE122BE3FF7847022516
:102F7B00B1790AA2D5200714300909B9100204044B
:102F8B00B9080104A2D5200A025001042006689258
:102F9B0006B550005034C0E07F203007197F30A2B7
:102FAB0006720A7209500F122FD5C206C20AC20945
:102FBB00C20C7F30800F300903E9C0E0122C1E30A9
:102FCB000903D0E0F9D0E0B550CC3009177F30B908
:102FDB00100C122C1E7F583008077F788003B9081D
:102FEB0003122C1E3006057F2D022C1E7F20200C79
:102FFB00F87F2B200AF322920680CF7F00B40700C4
:10300B0050052447F8E6FF22286E756C6C2900D218
:10301B0005122BE33005F8C205785030D50108F6C0
:10302B00022C892D50434958122BE32403B405007D
:10303B004001E490302E93122C0F743A122C0FD2C5
:10304B0007755004022E5B016802016B00C11E0163
:10305B006C0002660000016D00C11F0269000001D7
:10306B006500C11D4402660000000042026A0000B8
:10307B0001760042026C000042026E0000017700F4
:10308B0042025C000042025E000001753C4202609D
:10309B0000004402620000000046027000000000C5
:1030AB000000011C01011E01011D00C118C1170107
:1030BB001400011500C11441027800C1150116005E
:1030CB00011700C116011800011900011A1F011B7D
:1030DB0000C11C02A70000C119C11AC11BC112C13A
:1030EB0011010C00010D00608101B7000000000010
:1030FB0000000000000000000000000000000000C5
:10310B0000000000000000000000000000000000B4
:10311B0000000000000000000000000000000000A4
:10312B000000000000000000000000000000000094
:10313B000000000000000000000000000000000084
:10314B000000000000000000000000000000000074
:10315B000000000000000000000000000000000064
:10316B00000000000000000000000000011301013E
:10317B000E024101B021C1134601B1000000000055
:10318B0000C1104201AE0000040F00001F40C10D32
:10319B00C10EC10F010800010900010A00010B005B
:1031AB004402383F8000004402403F80000044024C
:1031BB003C3F8000004402503F8000004402583FD7
:1031CB008000004C02443A83126F3A83126F3A83A9
:1031DB00126F440254322BCC7702780000420276F5
:1031EB000000011F02C120017A000041542B450D44
:1031FB000A0041542B450041542B574D4F44453D3C
:10320B0041500D0A002B6F6B0D0A006F6B00415480
:10321B002B574D4F44453D5354410D0A0041542B00
:10322B005A0D0A0041542B4E4554503D5544502CD9
:10323B005345525645522C383836362C3139322EAE
:10324B003136382E352E310D0A0041542B4E455454
:10325B00503D5544502C5345525645522C38383618
:10326B00362C3235352E3235352E3235352E32352C
:10327B00350D0A0041542B534F434B423D5544509F
:10328B00532C383836362C3235352E3235352E32E6
:10329B0035352E3235350D0A0041542B534F434BE8
:1032AB00423D5544502C38302C25642E25642E2558
:1032BB00642E25640D0A00FF31F6FF31FDFF31FD51
:1032CB0004040096FF3202FF3210FF321605020093
:1032DB00C8FF3219FF3210FF321605020096FF327B
:1032EB0028FF3210FF3216050200C8FF322FFF32C3
:1032FB0010FF3216050200C8FF3255FF3210FF32A5
:10330B0016050200C8FF327FFF3210FF321605028E
:10331B0000C80000000000000000000000000000DA
:10332B000000000000000000000000000000000092
:10333B000000000000000000000000000000000082
:10334B000000000000000000000000000000000072
:10335B000000000000000000000000000000000062
:10336B000000000000000000000069276D2055419F
:10337B0052543120666F72207769666920646174DC
:10338B0061207472616E736C617465202121210060
:10339B000000000000000000000000000000000022
:1033AB000000000000000000000000000000000012
:1033BB000000000000000000000000000000000002
:1033CB0000000000000000000000000000000000F2
:1033DB0000000000000000000000000000000000E2
:1033EB0000000000000000000000000000000000D2
:1033FB0000000000000000000000000000000000C2
:10340B0000000000000000000000000000000000B1
:10341B0000000000000000000000000000000000A1
:10342B000000000000000000000000000000000091
:10343B000000000000000000000000000000000081
:10344B00000000000000000000000A3E3E3D3D3D34
:10345B00CAB1BCE4B4C13D3D3D3C3C0A2020202018
:10346B00323025642F253032642F253032642D57AE
:10347B00253031640A2020202020202020253032C6
:10348B00643A253032643A253032640A0000000079
:10349B000000000000000000000000000000000021
:1034AB000000000000000000000000000000000011
:1034BB000000000000000000000000000000000001
:1034CB0000000000000000000000000000000000F1
:1034DB0000000000000000000000000000120504C6
:1034EB000309261700000000000000787FE4F6D8DF
:1034FB00FD7581A802353D021CFDE493A3F8E4930E
:10350B00A34003F68001F208DFF48029E493A3F8CB
:10351B005407240CC8C333C4540F4420C88340043D
:10352B00F456800146F6DFE4800B010204081020FC
:10353B004080903052E47E019360BCA3FF543F3037
:10354B00E509541FFEE493A360010ECF54C025E0A0
:10355B0060A840B8E493A3FAE493A3F8E493A3C858
:10356B00C582C8CAC583CAF0A3C8C582C8CAC583E9
:10357B00CADFE9DEE780BEEFB40A07740D12358DA2
:10358B00740A309811A899B8130CC2983098FDA8FA
:10359B0099C298B811F63099FDC299F59922E4FFBA
:1035AB00FE12281A600C0FEF70010E09E970F20A77
:1035BB0080EF220202020404040707070606030336
:1035CB0000000301000000000000070200000000E3
:1035DB0000000303000000000000010204050000CE
:1035EB0000000504030200000000010206070000B2
:1035FB000000050506040301050007070506010287
:10360B000400060602030104070001020506030479
:10361B000000050403030403000005020200000080
:10362B000000070404000000000000000000000080
:10363B00000000000000000000000000000000007F
:10364B00000000000000000000000000000000006F
:10365B00000000000000000000000000000000005F
:10366B00000000000000000000000000000000004F
:10367B00000000000000000000000000000000003F
:10368B00000000000000000000000000000000002F
:10369B00000000000000000000000000000000001F
:1036AB00000000000000000000000000000000000F
:1036BB0000000000000000000000000000000000FF
:1036CB0000000000000000000000000000000000EF
:1036DB0000000000000000000000000000000000DF
:1036EB000000000000000000000000002F34056CFB
:1036FB0000000000000000000000000000000000BF
:10370B00000000002F34056C0000000000000000DA
:10371B000000000000000000000000000000018617
:10372B00A003E8144E2003E8020BB80BB83CD4C03E
:08373B0000141F404E20EA605B
:00000001FF
