:100000000236F47F01121C4BD21222020800438EEA
:10001000805389F0758A50758CFBC28DD2A9C2B904
:10002000D28C22021760E4F52DC225FB7A00792DCF
:10003000F5427543017F05FE121B94C2929002B6F1
:100040007403F0A374E8F07F03121DAB7FDC7E0520
:100050000222F4021A44E4FF021FAB021BF57810DF
:100060007C007D017BFF7A3579CB7E007F2D1229C4
:10007000DA783D7C007D017BFF7A3579F87E007F60
:100080002D1229DAE4F52DC200C201786A7C007DC8
:10009000017BFF7A367925FE7F141229DA201302BC
:1000A000217DC2137E007F2D7D007B017A00793D8A
:1000B000122D769001F7E064CC704F900204E0645A
:1000C0002D7047A3E064A07041900277E0C3942DA7
:1000D000403878F17C017D017B017A0179FE7E0058
:1000E0007F061229DA9001F7E090003DF0783E7C1F
:1000F000007D017B017A0279047E007F201229DADB
:10010000E4F5139001F0742D80369001F7E064AAB5
:100110007035A3E06421702FA3E064A070299002E1
:1001200077E0B42122783D7C007D017B017A017962
:10013000F77E007F211229DA7513019001F07421F6
:10014000F0F52DD20080369001F7E064AA7029A363
:10015000E0B41424900277E0B40E1D783D7C007D5D
:10016000017B017A0179F77E007F0E1229DA75137F
:1001700002752D14D2008005751303C20030007D76
:10018000C202C203C200E52D24EC605524E76004DE
:10019000240C70677B017A0079427D1C1220399013
:1001A0000041E0B50702D20278427C007D017B016C
:1001B0007A0279B17E007F05122D52EF7002D203D0
:1001C000900040E0B41402D202900040E064096064
:1001D00004E0B41102D203A20382035020D20180B2
:1001E0001C78407C007D017B017A0279B17E007F22
:1001F00005122D52EF7006D2018002C201200102C9
:10020000A1FDC201E51314600B147002A1A5240224
:100210006002A1FDC202D203900040E0F52E7E00F4
:100220007F2D7D007B017A007910122D76E52E243A
:10023000F7B413004002A18090024225E05002056D
:1002400083734184A180A180A180A180A180A1802D
:100250004168611BA180A180617AA180A18081B5E4
:1002600081CC81E3A17AA17E900048E0146008046B
:100270007008750E018003E4F50E900048E09000D0
:100280001BF0A18078027C007D017BFF7A367939F2
:100290007E007F061229DAE4900008F07B017A00E4
:1002A0007908F549754A017F05FE121DE87B017A40
:1002B000007902754900754A067F307E00121DE8FC
:1002C000900008E0705178027C007D017B017A008B
:1002D0007943FE7F041229DA753AFF753B36753C87
:1002E0003F7B017A007902121000900049E0F50985
:1002F000A3E0F50A7B007A00790975420075430195
:100300007F037E00121B947B007A00790A754200FD
:100310007543017F0481C8C203A180E4900009F005
:10032000780A7C007D017BFF7A367941FE7F0612D8
:1003300029DA7B017A007909754900754A017F0540
:100340007E00121DE87B017A00790A754900754A22
:10035000067F307E00121DE8A226E43390001BF0D9
:10036000900009E090001CF0781E7C007D017B016C
:100370007A00790A7E007F0681B0E4F52F78307C20
:1003800000FD7BFF7A367947FE7F071229DA90005D
:1003900057E0F530A3E0F531A3E0F533A3E0F53401
:1003A00085340BA3E0F535753601A3E0F5327837D7
:1003B0007C007D007B007A0079307E007F07122967
:1003C000DA121B3990004AE02460600E1460731446
:1003D0007002816224A2600281A0E4F52FE52F75EE
:1003E000F003A4244BF582E43400F583E0B4803BB1
:1003F000AF2F7401A807088002C333D8FC4270E510
:100400002F75F003A4244BF582E43400F583C083F8
:10041000C082E0FF90005CE014FE7401A806088032
:1004200002C333D8FC4FD082D083F0052FE52FB420
:1004300004AB7B017A00794B75420075430C7F1049
:10044000805990004BE0600E437102F572A3E024E6
:10045000FF921DE480065371FDE4F572F56BF56CB7
:10046000803E90004BE06008437101F56AE480062D
:100470005371FEE4F56AF56EF56F7B007A007971D1
:100480007542007543017F207E00121B947B007A29
:1004900000796A7542007543017F217E00121B942A
:1004A000781C7C007D017B017A0079497E007F0EFB
:1004B0001229DAA180752F01D2257B007A00792FCD
:1004C0007542007543017F057E008012E4F52FC25E
:1004D00025FB7A00792FF5427543017F05FE121B3B
:1004E00094A180900049E090001CF090004AE090B8
:1004F000001DF090004A2460600A1460501460727D
:1005000024A2707CE4F52F7B017A00791EF54975F1
:100510004A0C7F10FE121DE8E4F52F74017E00A83E
:100520002F088005C333CE33CED8F9FFEF55706066
:1005300013E52F75F003A4241EF582E43400F5833F
:10054000E05480F0052FE52FB404D08033E56C45EE
:100550006B7002800FAE6BAF6C7C007D3C122A8CFE
:10056000C3E5729F90001EF0A21DE43390001FF0BF
:10057000800E90001EE56AF08006D2178002C21736
:1005800030037A7B017A007910852E3BA202920417
:100590007D0A12136E7B017A0079109001F0E0FD64
:1005A00012238F805890003FE024DE7050782E7C1C
:1005B000007D007BFF7A36794E7E007F071229DAB4
:1005C000900046E0F535A3E0F536752E1285352FFF
:1005D000853631900045E0F530900048E0F532A3D3
:1005E000E0F533A3E0F53478377C007D007B007ABA
:1005F00000792E7E007F071229DA121B399001EE56
:10060000E0FEA3E0FFE4FCFDAB12AA11A910A80FC5
:10061000D3122AEF4002E184E49001EEF0A3F0FE51
:100620007F14FD7B017A00796A122D7690006A743E
:10063000AAF0A37414F0201002E127B210A37422D0
:10064000F07B007A007909754900754A017F037EC5
:1006500000121DE87B007A00790A754900754A018D
:100660007F047E00121DE8900073E509F0A3E50AFF
:10067000F0900298E0FCA3E0FDA3E0FEA3E0FF12EF
:1006800026E7752E008F2FAC2EAD2FE41226AEA8D4
:1006900004A905AA06AB07900298E0FCA3E0FDA31D
:1006A000E0FEA3E0FF1223957B007A40791C784698
:1006B00012248A1226E78E308F31900075E52FF0D4
:1006C000EEA3F0A3E531F0900288E0FCA3E0FDA3E7
:1006D000E0FEA3E0FF1226E78E2E8F2FAC2EAD2F6B
:1006E000E41226AEA804A905AA06AB07900288E08A
:1006F000FCA3E0FDA3E0FEA3E0FF1223957B007ABC
:1007000040791C784612248A1226E78E308F31E514
:100710002E900078F0A3E52FF0E530A3F0A3E531AB
:10072000F0A3E50BF08022B21090006C7423F0A2CD
:1007300025E433900073F0A21CE433A3F0A226E476
:1007400033A3F0E5715401A3F090007D7407F0A38A
:1007500074ABF0786D7C007D017B017A0279B17E0B
:10076000007F051229DA78727C007D017B017A0016
:1007700079737E007F0C1229DA7B017A00796A7D19
:100780001412238F228B3275330AEF75F032A4AE28
:10079000F02464F535E43EF534AE04AF057C037D0A
:1007A000E8122A7AAC34AD35122A8C8E368F37E4B3
:1007B000FBFAC3EB9537EA95365040301702C2B2C8
:1007C000E533FD7C00AE34AF35122A8CAD327C00AF
:1007D000122A7A122309D2B2E533F582AE34AF354C
:1007E000FD122A8CC3E5829532FDE49400FC122AA6
:0F07F0007A1223090BBB00010A80B722A2A422B0
:10080000C0E0C0F0C083C082C0D075D000C000C0BE
:1008100001C002C003C004C005C006C00790393340
:10082000E493FFE57CC39F5004057C804D757C00FC
:10083000E51D147043301909C2199002A0E4F0A319
:10084000F0903934E493FE740193FFC39002A1E069
:100850009F9002A0E09E5013A3E004F07006900267
:10086000A0E004F0301713B2B2800F9002A0E4F0C1
:10087000A3F0D2B2F51D8002D2B2903931E493FEDA
:10088000740193FFC39002AFE09F9002AEE09E50D0
:100890000EA3E004F070549002AEE004F0804C909F
:1008A00002AEE4F0A3F0E51C24FE601514601714FA
:1008B000601914601B14601D2405702C1221F08037
:1008C0002A12209180251220BD8020122113801B26
:1008D0001220008016900288E0FCA3E0FDA3E0FE59
:1008E000A3E0FF1219C08003120056E51E24FE602B
:1008F00010146018146056240360022182C2A521DE
:1009000084302604C2A5807CD2A58078903936E454
:1009100093FE740193FFC39002A3E09F9002A2E0B4
:100920009E500EA3E004F0705B9002A2E004F08001
:10093000539002A2E4F0A3F0E57A6006157AB2A51E
:100940008042D2A5903938E493F57A8030C2A590E0
:100950003939E493FE740193FFC39002A5E09F90A0
:1009600002A4E09E500EA3E004F070189002A4E0F0
:1009700004F080109002A4E4F0A3F0D2A5751E024A
:100980008002D2A590392FE493FE740193FFC390A7
:1009900002ADE09F9002ACE09E500EA3E004F07028
:1009A000069002ACE004F080759002ACE4F0A3F095
:1009B000E57130E138AF727E007C007D3C122A7A0E
:1009C000C3E56C9FE56B9E500A056CE56C701E05D7
:1009D0006B801AE56C456B6014756B00756C005389
:1009E00071FD301D05756D008003756D01E5713079
:1009F000E02C302629AF6A7E007C007D3C122A7AEA
:100A0000C3E56F9FE56E9E500A056FE56F700F0599
:100A10006E800B756E00756F00C21B756D0190398D
:100A20002EE493FFE57BC39F5004057B6176757BC5
:100A3000009001EFE004F070069001EEE004F03069
:100A40002108788106E6187001069002B6E070026F
:100A5000A3E060109002B7E024FFF09002B6E0340B
:100A6000FFF08002D29290392CE493FE740193FF40
:100A7000C39002ABE09F9002AAE09E500EA3E00458
:100A8000F070069002AAE004F061769002AAE4F009
:100A9000A3F0900284E0FCA3E0FDA3E0FEA3E0FF4E
:100AA00090029C122B23900284122B2F0000000036
:100AB0002026026176900294E0F8A3E0F9A3E0FA20
:100AC000A3E0FB90029CE0FCA3E0FDA3E0FEA3E01A
:100AD000FF122395E4FBFA79207841122630500763
:100AE000751C05D218617690029CE0F8A3E0F9A38A
:100AF000E0FAA3E0FB900294E0FCA3E0FDA3E0FE9B
:100B0000A3E0FF122395E4FBFA7920784112263006
:100B10005007751C00D218805D900294E0F8A3E0A5
:100B2000F9A3E0FAA3E0FB90029CE0FCA3E0FDA3A4
:100B3000E0FEA3E0FF122395E4FBFA79407840122F
:100B4000263060324030900294E0F8A3E0F9A3E050
:100B5000FAA3E0FB90029CE0FCA3E0FDA3E0FEA36F
:100B6000E0FF122395E4FBFA794078C0122630505A
:100B700005751C06D21830113AE50CC3940A5004CE
:100B8000050C802F20132AD2137E007F407DFF7B2F
:100B9000017A0179F7122D76AF0D7E0078F77C018E
:100BA0007D017B017A01792E1229DA900277E50D19
:100BB000F0C211903928122B139002A6E0F8A3E09E
:100BC000F9A3E0FAA3E0FBD3122AEF50219002A68A
:100BD000E0FCA3E0FDA3E0FEA3E02401FFE43EFE71
:100BE000E43DFDE43CFC9002A6122B23A1AD900253
:100BF000A6122B2F00000000E4FBFA79A0784090A9
:100C00000278E0FCA3E0FDA3E0FEA3E0FF12259341
:100C100090027C122B23E4FBFA79A07840900280AA
:100C2000E0FCA3E0FDA3E0FEA3E0FF122593900209
:100C300094122B233081427FF97E1D7D5C7C3590A0
:100C4000027CE0F8A3E0F9A3E0FAA3E0FB12248A17
:100C5000A804A905AA06AB077F737EDB7DB67C3EA0
:100C600012239590027CE0F8A3E0F9A3E0FAA3E058
:100C7000FB12248A90028C80387F7A7E167D257C38
:100C80003690027CE0F8A3E0F9A3E0FAA3E0FB12BF
:100C9000248A7B4F7A9279E4784012239990027CDF
:100CA000E0F8A3E0F9A3E0FAA3E0FB12248A9002A3
:100CB00090122B237F777ECC7D2B7C32900294E0A8
:100CC000F8A3E0F9A3E0FAA3E0FB12248AA804A9A0
:100CD00005AA06AB077F727E277D8D7C4012239587
:100CE000900294E0F8A3E0F9A3E0FAA3E0FB122459
:100CF0008A900288122B23900294E0FCA3E0FDA3CB
:100D0000E0FEA3E0F5288E278D268C257FCD7ECCB6
:100D10007DCC7C3DAB28AA27A926A82512263050D9
:100D20000C7528CD7527CC7526CC75253D9002987D
:100D3000E0F8A3E0F9A3E0FAA3E0FBC000C001C023
:100D400002C0037F007EBA7D5B7C4AAB28AA27A93C
:100D500026A82512248AC004C005C006C007900238
:100D600088E0FCA3E0FDA3E0FEA3E0FF900280E0AA
:100D7000F8A3E0F9A3E0FAA3E0FB12248AD003D0A1
:100D800002D001D000122593D003D002D001D000B0
:100D9000122399900298122B23900278122B2F0085
:100DA000000000900280122B2F00000000D007D01E
:100DB00006D005D004D003D002D001D000D0D0D0CE
:100DC00082D083D0F0D0E032E4F52D78027C007D33
:100DD000017BFF7A397913FE7F071229DA78097CC3
:100DE000007D017BFF7A39791A7E007F0C1229DAA7
:100DF0007B017A0079021218A3201A28D21A7B00EC
:100E00007A007971754900754A017F207E00121DB4
:100E1000E87B007A00796A754900754A017F217E76
:100E200000121DE8900007E07011A3E0D3941E505B
:100E30000A900298122B2F000000007B017A0079A3
:100E4000091215D6900009E020E71890000CE02068
:100E5000E71190000FE020E70A900012E020E7037E
:100E6000C21C22D21CE4F52DE52D75F003A4240943
:100E7000F582E43400F583E0547FFD900004E0FF48
:100E80001220E94002E1E5E52D75F003A42409F5FF
:100E900082E43400F583E0C4131313540120E0020C
:100EA000E1E5E52D75F003A4240AF582E43400F5AC
:100EB00083E0131313541FFF7E007C007D3C122A35
:100EC0007AE52D75F003A4240BF582E43400F58354
:100ED000E02FFBEC3EFA900006E0FF7E00122A7A3B
:100EE000A3E02FFFEC3EFEEF6B7002EE6A7068A38A
:100EF000E0D39405506174017E00A82D088005C3DD
:100F000033CE33CED8F9FFEF5570602CAF2D74017E
:100F1000A807088002C333D8FCF45270E52D75F0A1
:100F200003A42410FFE435F0FE7BFF7A397926759F
:100F30004200754301121B94E52D75F003A4240AA9
:100F4000F582E43400F583E0540730E005E4F56D04
:100F5000E1E5756D01E1E5E52D75F003A4240AF5E1
:100F600082E43400F583E0131313541FFF7E007CEA
:100F7000007D3C122A7AE52D75F003A4240BF5823E
:100F8000E43400F583E02FFBEC3EFA900006E0FF2E
:100F90007E00122A7AA3E02FFFEC3EFED3EF9BEEF9
:100FA0009A404274017E00A82D088005C333CE33D9
:100FB000CED8F9FFEF5570602CAF2D7401A807084B
:100FC0008002C333D8FCF45270E52D75F003A424DD
:100FD00010FFE435F0FE7BFF7A3979277542007502
:100FE0004301121B94052DE52DC394045002C168E2
:100FF00022EFC4540F75F00AA4FEEF540F2EFF2207
:101000008B378A388939787E7C007D017BFF7A3581
:1010100079377E007F281229DA78A67C007D017B53
:10102000FF7A35795F7E007F061229DAE49000AC02
:10103000F0A3F0C222C223C2247B017A0079A6F574
:1010400049754A067F30FE121DE8AB37AA38A93928
:10105000900001122A19FF122A004FFF900002127D
:101060002A194FFF900003122A194F601478A67CAA
:10107000007D017E007F04122D52EF6004D2228099
:1010800002C222AB3AAA3BA93C900001122A19FFE6
:10109000122A004F601478AA7C007D017E007F0236
:1010A000122D52EF6004D2238002C223A2237222A7
:1010B0005041D22430221378A67C007D01AB37AAA0
:1010C00038A9397E007F041229DA30231378AA7CEC
:1010D000007D01AB3AAA3BA93C7E007F021229DACF
:1010E0009000ABE0FD9000AAE0FFED9000ACCFF0E7
:1010F000A3EFF0202402D3227B017A0079A6754267
:10110000007543067F307E00121B947540FF7541C9
:10111000347542909000ACE0FEA3E08E43F544901D
:1011200000A6E0754500F546A3E0754700F548A325
:10113000E0754900F54AA3E0754B00F54C7B017A58
:1011400000797E122E257F0A121C9C400122121E5D
:101150009E400122754EFF754F347550E57551FF65
:101160007552347553EB9034EDE493F55474019358
:10117000F5557556057B017A00797E1218004001FD
:10118000229034D5E493FB740193FA740293F9121C
:1011900037A7AD079034D5E493FB740193FA74023A
:1011A00093F912238F7FC87E001222F49034D5E485
:1011B00093FB740193FA740293F91237A7AD079069
:1011C00034D5E493FB740193FA740293F912238FDC
:1011D000D32278027C007D017BFF7A3579097E007D
:1011E0007F061229DAE4900008F0A3F0780A7C0068
:1011F0007D017BFF7A35790FFE7F281229DA752D64
:1012000013752E88C2A67F2C7E011222F4D2A67FEF
:10121000B87E0B8014309316E52E152EAE2D70027D
:10122000152D4E60097F017E001222F480E7E52E25
:10123000452D7002C3227F0F121C9C400122121EFA
:101240009E4001227F0A7E001222F47A3479C8126D
:101250001EA2400122783D7C007D007BFF7A34791C
:10126000E2121EAA4001227B017A00790275490030
:10127000754A067F307E00121DE8900007E0FD9061
:101280000006E0FEEDFF900008EEF0A3EFF07540E1
:10129000FF7541347542908E43F544900002E0752D
:1012A0004500F546A3E0754700F548A3E075490001
:1012B000F54AA3E0754B00F54C7B017A00790A12E0
:1012C0002E257F0A7E001222F4754EFF754F34756D
:1012D00050E57551FF7552347553EB9034EDE4933E
:1012E000F554740193F5557556057B017A00790A1A
:1012F0001218004001227F0A7E001222F49034D599
:10130000E493FB740193FA740293F91237A7AD07C3
:101310009034D5E493FB740193FA740293F9122389
:101320008F7FC87E001222F49034D5E493FB7401C1
:1013300093FA740293F91237A7AD079034D5E4936A
:10134000FB740193FA740293F912238F309316E51C
:101350002E152EAE2D7002152D4E60097F017E00D8
:101360001222F480E7E52E452DD37001C3228B377E
:101370008A3889398D3A9001F0E024DF7002816764
:1013800024F4600281D1787E7C007D017BFF7A3578
:10139000798B7E007F201229DAAB37AA38A93974FD
:1013A000CC122A46AB37E5392401F9E43538FA780E
:1013B0007E7C007D017E007F201229DAE539240D34
:1013C000F9E43538A801FCAD377B017A00797E7EDF
:1013D000007F201229DAE5392401F9E43538A80123
:1013E000FCAD377B017A0179F17E007F061229DAA4
:1013F000E5392408F9E43538A801FCAD377B017ADA
:101400000279B17E007F051229DAAB37AA38A939F3
:1014100090000D742D122A5890000EE53A122A58A9
:1014200090000FE53B122A5820040EAB37AA38A9CA
:10143000399000167407122A58E5392411F9E43559
:1014400038A801FCAD377B017A0279B17E007F05B7
:101450001229DAAB37E5392411122032AB37AA381A
:10146000A9399000108066AB37AA38A93974AA123E
:101470002A46AB37AA38A9399000017421122A589C
:10148000900002E53A122A58900003E53B122A58D0
:1014900020040EAB37AA38A93990000A7407122A23
:1014A00058E5392405F9E43538A801FCAD377B014E
:1014B0007A0279B17E007F051229DAAB37E539244B
:1014C00005122032AB37AA38A939900004EF122A4E
:1014D0005822782D7C007D007BFF7A3879F97E00D8
:1014E0007F141229DA7F0A7E001222F47B007A0030
:1014F000792D754900754A017F017E00121DE87F34
:101500000A7E001222F4E52D64A17002A1D5E4FF49
:10151000FE1222307F0A7E001222F4752DA17B007C
:101520007A00792D754900754A017F017E00121EEF
:10153000257F0A7E001222F4E4F52DFB7A00792D36
:10154000F549754A017F05FE121E257F0A7E0012AD
:1015500022F47E007F0C7D007B007A00792D122D15
:10156000767B007A00792D754900754A0D7F107ED3
:1015700000121E257F0A7E001222F4E4F52DFB7A6C
:1015800000792DF549754A017F20FE121E257B004A
:101590007A00792D754900754A017F217E00121E5F
:1015A000257F0A7E001222F4782D7C007D007BFFCF
:1015B0007A39790D7E007F061229DA7B007A00796C
:1015C0002D754900754A067F307E00121E257F0A60
:1015D0007E001222F4228B2E8A2F89307B007A0023
:1015E0007931754900754A0C7F107E00121DE8E4C0
:1015F000F53DE53D75F003A42431F8E6547FFFABDB
:101600002E75F003E53DA42530F9E52F35F0FA12EB
:101610002A0054804FFF122A46E53D75F003A424AA
:1016200031F8E65480C41313135401C433333354D4
:1016300080FEEF547F4E122A46E53D75F003A42448
:1016400032F8E654E0C4135407FDE53D75F003A4F9
:10165000AB2E2530F9E52F35F0FAE92401F9E43A0B
:10166000FA122A0054F84DFF122A46E53D75F003A0
:10167000A42432F8E6541F33333354F8FEEF5407F2
:101680004E122A46E53D75F003A42433F8E6FDE545
:101690003D75F003A4AB2E2530F9E52F35F0FA9017
:1016A0000002ED122A58053DE53D64046002A1F2F6
:1016B000228B2D8A2E892F1207FC4062D2202021F6
:1016C00002D2217880E6FE08E6FFD390393D74010E
:1016D000939FE4939E5019C390393F7401939FE404
:1016E000939E400C201E09AA31A932122BC6D21E8D
:1016F0007880E6FE08E6FFD390393F7401939FE4BB
:10170000939E505BC39039417401939FE4939E4034
:101710004E201F4BAA34A935122BC6D21F22201EE1
:1017200003301F03751E02C221302033C22078808F
:10173000E6FE08E6FFD390393D7401939FE4939E43
:10174000401390393B7401939FE4939E5007AA2E57
:10175000A92F122BC6E47880F608F6C21EC21F22FB
:10176000C0E0C0F0C083C082C0D075D000C000C04F
:1017700001C002C003C004C005C006C007C2AF302C
:101780009831C298E579702B201114D211F50CF51F
:101790000DFE7F407DFF7B017A01792E122D76AF01
:1017A0000D050D742E2FF582E43401F583E599F0D3
:1017B000750C00309927C299E5746575601C746ECC
:1017C0002574F582E43401F583E0F5990574E57438
:1017D000C3948040087574008003757600D2AFD042
:1017E00007D006D005D004D003D002D001D000D05D
:1017F000D0D082D083D0F0D0E032751E0302002614
:101800008B4B8A4C894DE4F557F558F559F55AC27A
:1018100013F557E557C39556400201A185545985E4
:10182000555AAB4BAA4CA94D1237A7AD07AB4BAAE3
:101830004CA94D12238FE55A155AAE59700215590D
:101840004E605A7F027E001222F43013E9C213E484
:10185000F558E558C3940250DD900277E0FDAB4E99
:10186000AA4FA95075F003E558A4F58285F08312BC
:101870002B708B5F8A608961AB51AA52A95385583E
:1018800082758300122A19F5627B017A0179F712B9
:101890001939EA494B6002D322055880B505570132
:1018A00013C3228B2E8A2F89307F08122063120FD8
:1018B000F1AB2EAA2FA930EF122A467F0712206320
:1018C000120FF1AB2EAA2FA930900001EF122A5867
:1018D0007F06122063120FF1AB2EAA2FA9309000C1
:1018E00002EF122A587F05122063120FF1AB2EAAC5
:1018F0002FA930900003EF122A587F0412206312A0
:101900000FF1AB2EAA2FA930900004EF122A587FB6
:1019100003122063120FF1AB2EAA2FA930900005FD
:10192000EF122A587F02122063120FF1AB2EAA2F5A
:10193000A930900006EF022A588D5E8B5B8A5C8985
:101940005DE4F5638B648A658966855F6785606899
:10195000856169C3E566955DFFE565955CFE7C0084
:10196000EF2562FFEC3EFED3EF955E7480F86E9833
:101970005047AB670569E569AA687002056814F904
:10198000122A00FFAB640566E566AA65700205656C
:1019900014F9122A00B507130563E563B562D3C3D2
:1019A000E5669562F9E5659400FA22855F678560D2
:1019B00068856169E4F563809A7B007A007900228A
:1019C0008F2C8E2B8D2A8C2943A08FE4FFFE7D70F7
:1019D0007C41AB2CAA2BA92AA829122630600440EE
:1019E00002C2A0E4FFFE7DC87C42AB2CAA2BA92A30
:1019F000A82912263060044002C2A1E4FFFE7D48FF
:101A00007C43AB2CAA2BA92AA829122630600440BB
:101A100002C2A2E4FFFE7D967C43AB2CAA2BA92A2E
:101A2000A82912263060044002C2A3E4FFFE7DC84C
:101A30007C43AB2CAA2BA92AA8291226306004408B
:101A400002C2A722C0E0C0F0C083C082C0D075D05F
:101A500000C000C001C002C003C004C005C006C071
:101A600007900280E0FCA3E0FDA3E0FEA3E0FFE41A
:101A7000FBFA7980783F122399900280122B2390F1
:101A80000284E0FCA3E0FDA3E0FEA3E0FFE4FBFA98
:101A90007980783F122399900284122B23D007D0AB
:101AA00006D005D004D003D002D001D000D0D0D0D1
:101AB00082D083D0F0D0E032C2AFD2BCE598543FA0
:101AC0004440F598E4753034F52FF52EF52DC39587
:101AD00030F530E4952FF52F7401952EF52EE49511
:101AE0002DF52DAF30AE2FAD2EFC7808122B008FC8
:101AF000D68530D7538EEF438E01538EF7438E0435
:101B000053AFFB538EF7438E10D2ACD29C53A23FFF
:101B10007E007F807D007B017A01796E122D76D266
:101B2000AF7BFF7A35796502232F78377C007BFF06
:101B30007A3679E67F071229DAAF3712231CAD0710
:101B40007F08122186AF3812231CAD077F071221B0
:101B500086E539600BFF12231CAD077F0612218634
:101B6000AF3A12231CAD077F05122186AF3B12232B
:101B70001CAD077F04122186AF3C12231CAD077FEA
:101B800003122186E53D600BFF12231CAD077F0287
:101B9000122186228E3D8F3E8B3F8A40894178AE4E
:101BA0007C007D017BFF7A3879437E007F8012299B
:101BB000DA7B017A0079AE754900754A80E4FFFE50
:101BC000121DE8E4FF122230AE42AF4374AE253E50
:101BD000F97400353DA801FC7D01AB3FAA40A94145
:101BE0001229DA7B017A0079AE754900754A80E4E2
:101BF000FFFE021E25C0E0C0F0C083C082C0D075C9
:101C0000D000C000C001C002C003C004C005C006AF
:101C1000C007900278E0FCA3E0FDA3E0FEA3E0FF94
:101C2000E4FBFA7980783F122399900278122B23F3
:101C3000D007D006D005D004D003D002D001D00008
:101C4000D0D0D082D083D0F0D0E032E4F52DEF2494
:101C5000FE600B14600C2402700AB2268006D226A5
:101C60008002C226302607D218751C038005751C19
:101C700004D218751E02751D01A22692B3E51FB489
:101C80000119A226E433F52D7B007A00792D7542E7
:101C9000007543017F027E00121B94228F3D853D1B
:101CA0003EE59964616014153EE53E600E7F2B129F
:101CB000238C7FC87E001222F480E6E53E7002C3CA
:101CC00022853D3EE59964416014153EE53E600E77
:101CD0007F6112238C7F647E001222F480E6E53E51
:101CE000D37002C32222E47882F653B1F743B208DC
:101CF000C2B3E51FB4011C7B007A007982754900EC
:101D0000754A017F027E00121DE87882E624FF9268
:101D1000268014E47882F6FB7A007982F5427543D6
:101D2000017F02FE121B94A22692B322A20D301C48
:101D300001B34016A20E302601B3400EA20F30258B
:101D400001B34006E50865716021E512249CFEE5BB
:101D50001134FF9001EEF0A3CEF0C210A21C920D40
:101D6000A226920EA225920F85710822AD0712219C
:101D70003A7B077A0012213AC2967F01122140AFC6
:101D800003EDA807088002C313D8FC30E004D29604
:101D90008002C29612213CD29712213CEB1B7001AB
:101DA0001ABAFFD1BBFFCE12213A228F2EE4F52FB3
:101DB000E52E9037BC93FFE52FC39F502AE52E7583
:101DC000F008A424CBF582E43437F583E582252F8F
:101DD000F582E43583F583E493FF7B087D047C0082
:101DE0001222C1052F80C922AD07AC06C2AF75C74C
:101DF0008075C5018CC3AF058FC475C65A75C6A55D
:101E000000E5C2122A460DBD00010C740129F9E457
:101E10003AFAE54A154A7002154914454970D51237
:101E20002352D2AF22AD07AC06C2AF75C78075C5CD
:101E3000028CC3AF058FC4122A00F5C275C65A754D
:101E4000C6A5000DBD00010C740129F9E43AFAE5BC
:101E50004A154A7002154914454970D5122352D2C9
:101E6000AF22E50E14600A04700F750E027F028027
:101E700005750E027F03121C4BE56D14600A047099
:101E80000F756D027F028005756D027F03121C4B7A
:101E9000201B0A302607D21BE4F56EF56F227A3438
:101EA00079AE783D7C007D007BFF7E007F0D12299E
:101EB000DA754A05754E00754F0075504075510032
:101EC000755200755346854854854955854A56AB29
:101ED0003DAA3EA93F121800221214D2121F797592
:101EE0001C02751E027F0A121DAB120DC8121E6263
:101EF00012005E121D2C7530FF7531177532FA75A0
:101F000033FF7534237535867BFF7A00790312160B
:101F1000B180D7E4FDFBFAC2977F01FE122140D2C7
:101F2000977F01122140309610C3EB94D0EA9407BA
:101F300050070BBB00010A80EDA296E433FD12218D
:101F40003CC297AF0522E4FDC2977F01FE122140FB
:101F50007B077A00ED25E0FDD29712213C309605F3
:101F600043050180035305FE12213AEB1B70011A51
:101F7000BAFFE1BBFFDEAF052212224F12226C1224
:101F8000000E1222DB12237F122360121FDD1221AA
:101F9000AA122378121AB8121CE6538EFDD2AF751E
:101FA0001E01751C011211D250FB22EF30E004C259
:101FB000A08002D2A0EF30E104C2A18002D2A1EF42
:101FC00030E204C2A28002D2A2EF30E304C2A380B6
:101FD00002D2A3EF30E403C2A722D2A72253B1FB5F
:101FE00043B2047B087D037C007F031222C17F3251
:101FF0007E001222F47B087D037C007F030222C155
:10200000301809C218E4F517C216F516E517D3946F
:10201000064006E4F517B216220517AF16121FABDD
:10202000E51620160825E0F51643160122C313F520
:102030001622F9E43538FA7D1C8B3C8A3D893EE452
:10204000FFFEEFC39D5013AB3CAA3DA93E8F8275A6
:102050008300122A192EFE0F80E86306FF6306A78D
:10206000AF0622AC07E4FDFF1222117FA2121D6C05
:10207000121F13AF04121D6C121F131222117FA323
:10208000121D6C121F13121F46AD07122289AF05D5
:10209000229002B8E0D39410400AE4F0FF121FAB84
:1020A000751C06229002B8E004F0E020E002B215B0
:1020B000301504E4FF80027FFF121FAB22301807A7
:1020C000C218E4F519F518E519D39406400AE4F5A9
:1020D00019751C06FF021FAB0519AF18121FABE5DF
:1020E0001825E0F51843180122AC07A9051CE4FDEA
:1020F00074017E00A805088005C333CE33CED8F91D
:10210000FFE9FBEF5B6006EDB50402D3220DBD07CE
:10211000DFC322301808C218E4F51B751A1FE51B2F
:10212000D394064007E4F51BFF021FAB051BAF1A53
:10213000121FABE51AC313F51A22C2977F017E0066
:10214000EF25E07901F3EE3319F3780008E224FF7C
:10215000FFF218E234FFF24F600512236D80EB228C
:102160008B5B8A5C895DE4FEEEC39D5018AB5B051A
:102170005DE55DAA5C7002055C14F9122A00FF128D
:1021800021CD0E80E3228F3EAC05E4FF1222117FA9
:10219000A2121D6C121F13AF3E121D6C121F13AF43
:1021A00004121D6C121F130222895395BF439640DF
:1021B0005391FB4392044391085392F753B1FD436B
:1021C000B20243B10153B2FED2A6D29222746E255E
:1021D00075F582E43401F583EFF00575E575C39478
:1021E000804003E4F575E5767005757601D2992295
:1021F000E515D394064006E4F515B2142205152022
:102200001403431401AF14121FABE51425E0F514B9
:102210002212213AD2967F01122140D2977F0112D9
:102220002140C2967F01122140C2977F01022140C6
:10223000AD07AC06C2AF8CC3AF058FC475C7807540
:10224000C50375C65A75C6A500122352D2AF227FA8
:10225000F87E3FEF24FAFFEE34FFFAA9077BFF7800
:10226000B07C027D017E007F060229DAE4F52DFBB9
:102270007A00792DF549754A017F05FE121DE8E5C2
:102280002D6003D22522C22522C29612213CD2976C
:102290007F01122140D2967F01122140C2977F0513
:1022A000122140D29722C2929002B67413F0A37406
:1022B00088F07F04121DAB7F707E171222F402009B
:1022C000008F308B31AF05A907E9600EAB317D324D
:1022D0007C00AF301207851980EF225393FD4394A1
:1022E0000243B1C053B23F438F10438F20C2B8C2E4
:1022F000BAD28122AB07AA06EB1B70011A144A60FE
:10230000077F0112234280F022EF1F70011E144E3E
:1023100060090000000000000080EE22EF75F00A66
:1023200084C454F0FEEF75F00A84E5F02EFF22120B
:102330002A00FF600C1221CD740129F9E43AFA80D9
:10234000EE227D367C07ED1D70011C144C70F7DF0A
:10235000F122E4F5C7F5C5F5C675C3FF75C4FF22C4
:102360004395204396205395504396AF220000009A
:1023700000000000000000225395EF5396EF225317
:10238000913F53923F22751E040222A60221CD02E4
:102390002160022753E86480F8E933E833601104D0
:1023A00060F0ED33EC337009E8FCE9FDEAFEEBFF89
:1023B000220460DED3EB9FEA9EE99DE8C2E78CF041
:1023C000C2F795F0400CE8CCF8E9CDF9EACEFAEB8B
:1023D000CFFB12271E85D0F05804700320D5B3E838
:1023E0000470075002B2D502275D92D5EC0460F765
:1023F000E4CCC0E0C398F8603B94186008400DD06E
:10240000E0FB022735E4FBFAC9FC8028E830E4064B
:10241000E4C9FBE4CAFCE830E305E4C9CACBFCE844
:1024200054076010F8C3E913F9EA13FAEB13FBEC55
:1024300013FCD8F130F52FC3E49CFCEF9BFFEE9A20
:10244000FEED99FDD0E0FBEF4E4D4C701222DB0308
:1024500002275AEC2CFCEF33FFEE33FEED33FDED9B
:1024600030E7EB022735EF2BFFEE3AFEED39FDD0DA
:10247000E0FB50130BBB000302275DED13FDEE13D1
:10248000FEEF13FFEC13FC022735EC4D6011E84919
:102490007017ED33EC3304600DE4FCFFFEFD22E920
:1024A00033E8330470F802275312271E58046009DA
:1024B000E4CC2481500628500902275D28400302FD
:1024C000275AC0E0EB4A7044B98006D0E0FB0227EF
:1024D00049EF4E701CBD8008EBFFEAFEE9FD80EB82
:1024E000E98DF0A4FEE5F0022573E9CDF9EAFEEBF3
:1024F000FFEF89F0A4FCE5F0CE89F0A42EFFE435CF
:10250000F0CD89F0A42DFEE435F08067EF4E700524
:10251000BD80D780C3EF8BF0A4ACF0EE8BF0A42C81
:10252000FCE435F0F8EF8AF0A42CE5F038FCE43355
:10253000CB8DF0A42CFCE5F03BF8EE8AF0A42CFC4B
:10254000E5F038F8E433CF89F0A42CFCE5F038CF7F
:102550003400CE89F0A42FFFE5F03EFEE433C98DB0
:10256000F0A42EFEE5F039CD8AF0A42FFFE5F03E71
:10257000FEE43DFD33D0E0FB50070BBB000F02270C
:102580005DEC2CFCEF33FFEE33FEED33FD0227351F
:1025900002275DEC5D046005E859047003022753CF
:1025A00012271E580460F6EC4860F2EC7004FDFE41
:1025B000FF22C860DB2481C85009C398600250061E
:1025C00002275A9850CAF582E9294B4A7005AB8216
:1025D00002274975F0007C1A7880C3EF9BEE9AEDD4
:1025E00099400DC3EF9BFFEE9AFEED99FDE842F096
:1025F000DC23ACF0D0E0FFD0E0FED0E0FDAB8220E9
:10260000E7101BEB60BAEC2CFCEF33FFEE33FEED72
:1026100033FD022735E803F830E705C0F075F00018
:10262000EF2FFFEE33FEED33FD40B830E7C280AA56
:1026300074F8CC6480CCC86480C8F58204604FC351
:10264000EB9FF5F0EA9E42F0E99D42F0E89C45F0F0
:10265000603C501DE5825FFFE582D313CB5BCBF47A
:102660002B5582FB50280ABA002409B900200880A3
:102670001DE5825BFBE582D313CF5FCFF4C3132F3D
:102680005582FF50090EBE00050DBD00010CC3EBC5
:102690009FF5F0EA9E42F0E99D42F0E89C45F0602B
:1026A00007CC4820E701B3EC2275F020800E75F0CE
:1026B00010800575F0087D007E007F003392D530D4
:1026C000D503122AE1EC334010EF33FFEE33FEED79
:1026D00033FDEC33FCD5F0ED22E5F0247EA2D513DA
:1026E000CC92E7CDCEFF22EDD2E7CD33EC3392D5BD
:1026F00024814006E4FFFEFDFC22FCE4CFCECDCCDD
:1027000024E0501174FF80EDC3CC13CCCD13CDCE9B
:1027100013CECF13CF0470F030D5DE022AE1E9D218
:10272000E7C933E833F892D5EDD2E7CD33EC33FC8B
:102730005002B2D522EC30E7100FBF000C0EBE00E5
:10274000080DBD00040BEB6014A2D5EB13FCED9259
:10275000E7FD2274FFFCFDFEFF22E480F8A2D574A1
:10276000FF13FC7D80E480EFF920E72824F9500373
:102770007907E4F42402FB18DBFDE624FB5014E99E
:10278000600DE4F618E604F6B40A08E4F6D9F57428
:1027900001F60A22C2D522ED33EC3392D5FA602A33
:1027A000B4FF33EDC2E77BFF60067A2779BCE422F1
:1027B0007A2779C520D5047A2779C0224E614E0048
:1027C0002B494E46002D494E4600E47A08F608DAB9
:1027D000FC7B00740722E8C0E0ECC0E0EDC0E0EE56
:1027E000C0E0EFC0E0EA75F010A4CAABF075F04DA0
:1027F000A42BFBE435F0FCEA2410FAEB34C5FBEC27
:1028000034D9FCEDC2E7FF75F056A4F42411C5F0ED
:10281000F434C58FF0A42AE5F03BE43CF620E7143D
:102820001228CAD0E0FFD0E0FED0E0FDD0E0FC12DC
:1028300025938014F4041228CAD0E0FFD0E0FED023
:10284000E0FDD0E0FC12248AD0E0F8E6FAEDD2E711
:10285000CD33EC332482FBE4C3CF33CFCE33CECDA4
:1028600033CD33DBF37B0775F00A846004F6081B75
:102870000AE5F0F6088FF0740AA4FFACF08EF0744D
:102880000AA42CFEACF050010C8DF0740AA42CFDAF
:10289000E435F0F608DBDE7407223F8000004120BB
:1028A000000042C80000447A0000461C400047C3B4
:1028B0005000497424004B1896804CBEBC205A0E20
:1028C0001BCA6753C21C749DC5AEFB6006540760EB
:1028D0001C23231228F8EB543860091228E412282C
:1028E000F312248AECF8EDF9EEFAEFCB22EB122882
:1028F000F380F1543803241C90289AFE93FC0EEECA
:1029000093FD0EEE930ECE93FF22E709F608DFFA51
:102910008046E709F208DFFA803E88828C83E70967
:10292000F0A3DFFA8032E309F608DFFA8078E309E2
:10293000F208DFFA807088828C83E309F0A3DFFA63
:10294000806489828A83E0A3F608DFFA805889824E
:102950008A83E0A3F208DFFA804C80D280FA80C636
:1029600080D4806980F28033801080A680EA809ACB
:1029700080A880DA80E280CA803389828A83ECFA78
:10298000E493A3C8C582C8CCC583CCF0A3C8C582D4
:10299000C8CCC583CCDFE9DEE7800D89828A83E479
:1029A00093A3F608DFF9ECFAA9F0EDFB2289828AFD
:1029B00083ECFAE0A3C8C582C8CCC583CCF0A3C819
:1029C000C582C8CCC583CCDFEADEE880DB89828A99
:1029D00083E493A3F208DFF980CC88F0EF60010E66
:1029E0004E60C388F0ED2402B4040050B9F582EBC8
:1029F0002402B4040050AF232345822390295A7344
:102A0000BB010689828A83E0225002E722BBFE02D4
:102A1000E32289828A83E49322BB010CE58229F5B3
:102A200082E5833AF583E0225006E92582F8E62222
:102A3000BBFE06E92582F8E222E58229F582E583DC
:102A40003AF583E49322BB010689828A83F02250FF
:102A500002F722BBFE01F322F8BB010DE58229F546
:102A600082E5833AF583E8F0225006E92582C8F62C
:102A700022BBFE05E92582C8F222EF8DF0A4A8F062
:102A8000CF8CF0A428CE8DF0A42EFE22BC000BBE6D
:102A90000029EF8DF084FFADF022E4CCF875F0084A
:102AA000EF2FFFEE33FEEC33FCEE9DEC984005FC7F
:102AB000EE9DFE0FD5F0E9E4CEFD22EDF8F5F0EE47
:102AC0008420D21CFEADF075F008EF2FFFED33FD32
:102AD0004007985006D5F0F222C398FD0FD5F0EAD2
:102AE00022C3E49FFFE49EFEE49DFDE49CFC22EBF8
:102AF0009FF5F0EA9E42F0E99D42F0E89C45F02205
:102B0000E8600FECC313FCED13FDEE13FEEF13FFB3
:102B1000D8F122E493FC740193FD740293FE7403D4
:102B200093FF22ECF0A3EDF0A3EEF0A3EFF022A8C8
:102B3000828583F0D083D082122B46122B46122B33
:102B400046122B46E473E493A3C583C5F0C583C83E
:102B5000C582C8F0A3C583C5F0C583C8C582C82295
:102B6000FAE6FB0808E6F925F0F618E6CA3AF62276
:102B7000BB010DE58229F582E5833AF583022DAB91
:102B80005007E92582F8022DA2BBFE07E92582F84D
:102B9000022DB4E58229F582E5833AF583022DBD45
:102BA000D083D082F8E4937012740193700DA3A3C4
:102BB00093F8740193F5828883E4737402936860D8
:102BC000EFA3A3A380DF8A838982E473E3F5F0098E
:102BD000E208B5F06BDFF58067E3F5F009E608B5CC
:102BE000F05EDFF5805A87F009E608B5F052DFF6AF
:102BF000804E87F009E208B5F046DFF68042888211
:102C00008C8387F009E0A3B5F036DFF68032888246
:102C10008C8387F009E493A3B5F025DFF580218844
:102C2000828C83E3F5F009E0A3B5F014DFF58010A2
:102C300088828C83E3F5F009E493A3B5F002DFF416
:102C4000022CFB808780E9809080D4803E801580B4
:102C50006E807E809D80B7808D80A380518074803F
:102C60003C022D0789828A83ECFAE493F5F0A3C82D
:102C7000C582C8CCC583CCE493A3C8C582C8CCC5E3
:102C800083CCB5F076DFE3DEE1807089828A83E46D
:102C900093F5F0A3E208B5F062DFF4805E89828AE2
:102CA00083E0F5F0A3E608B5F051DFF5804D8982A9
:102CB0008A83E0F5F0A3E208B5F040DFF5803C89B7
:102CC000828A83E493F5F0A3E608B5F02EDFF48062
:102CD0002A8002805789828A83ECFAE493F5F0A374
:102CE000C8C582C8CCC583CCE0A3C8C582C8CCC542
:102CF00083CCB5F006DFE4DEE280007FFFB5F002B2
:102D00000F2240027F012289828A83ECFAE0F5F0EB
:102D1000A3C8C582C8CCC583CCE0A3C8C582C8CC33
:102D2000C583CCB5F0D5DFE5DEE380CF89828A8329
:102D3000ECFAE0F5F0A3C8C582C8CCC583CCE49317
:102D4000A3C8C582C8CCC583CCB5F0AFDFE4DEE252
:102D500080A988F0EF60010E4E60ABED2402B40450
:102D6000005098F582EB2402B40400508E232345D2
:102D70008223902C4373EF4E6012EF60010EEDBB87
:102D8000010B89828A83F0A3DFFCDEFA2289F050EE
:102D900007F709DFFCA9F022BBFEFCF309DFFCA961
:102DA000F022E6FB08E6FA08E6F922E0FBA3E0FAE7
:102DB000A3E0F922E2FB08E2FA08E2F922E493FB3D
:102DC000740193FA740293F922E5542440F8E6055D
:102DD0005422783D300B027840E475F001122B60EC
:102DE000022A002004EB7F2ED2048018EF540F2417
:102DF00090D43440D4FF30080BEF24BFB41A0050F5
:102E0000032461FFE555600215550558E558700229
:102E10000557300B0D783DE475F001122B60EF0281
:102E20002A460237807403D20B8003E4C20BF554A8
:102E30008B3D8A3E893FE4F555F557F558E55560D9
:102E4000077F20122E0480F57556FFC205C204C20A
:102E500006C207C209C20AC20C122DD2FF700D3081
:102E60000B057F00122E15AF58AE5722B4255FC256
:102E7000D5C208122DD2FF24D0B40A00501A75F022
:102E80000A785530D50508B6FF0106C6A426F620F7
:102E9000D5047002D20780D924CFB41A00EF5004B1
:102EA000C2E5D208023102D20580C6D20480C0D267
:102EB0000680BCD2D580BAD20980B47F20122E04FD
:102EC0002006077401B5550040F1122DC9FF122EDE
:102ED00004022E3DD20CD20A8095122DC9FB122D70
:102EE000C9FA122DC9F94A4B700679F97A317BFF7C
:102EF00020062EE555602A7E008E82758300122AF8
:102F00001960060EEE655670F0C2D5EBC0E0EAC05F
:102F1000E0E9C0E0EE123162D0E0F9D0E0FAD0E0B2
:102F2000FB122A00FF60AAEBC0E0EAC0E0E9C0E0C3
:102F3000122E04D0E02401F9D0E03400FAD0E0FBF6
:102F4000E5560460DCD556D98087D20680A21231BE
:102F50004560F7E556700104122768A956600DE533
:102F600056600914F5561231ECEF60F3EA30E702CF
:102F7000F404C3995077EAF425560430E701E404D9
:102F8000F556800D12314560C1EA055625561227C7
:102F900068EA7853F630E701E4255604D556042054
:102FA000090114123162E4C0E01231EC7853E6609A
:102FB0001320E70714F6122DEC802204F6D0E0145B
:102FC000C0E07F00122DECE5566007122DE3155688
:102FD000800B300903122DE3D0E0022E3DD0E00437
:102FE00080C512314560A0E556041227687853EA7F
:102FF000F6E556200902600104240412316274FFD0
:1030000004C0E01231EC122DECE5562009026003F9
:10301000122DE3D0E0B556E87F45122DF67853E641
:103020007F2B30E7047F2DF404C0E0122E04D0E0A3
:1030300075F00A84C0F0122DEDD0E0122DED022EB5
:103040003D791080027908C20AC20C8008D2D57975
:103050000A8004790AC2D5E556047002F556E4FAEE
:10306000FDFEFF122DC9FC7B08200513122DC9FDA2
:103070007B1030040A122DC9FE122DC9FF7B20ECF3
:103080003382D592D55013C3E43004069FFFE49EEB
:10309000FEE42005039DFDE49CFCE4CBF8C205ECB6
:1030A000700CCFCECDCCE824F8F870F38017C3EFC6
:1030B00033FFEE33FEED33FDEC33FCEB33FB994095
:1030C00002FB0FD8E9EB300505F8D0E0C448B205A3
:1030D000C0E00AEC4D4E4F78207B0070C2EAB55636
:1030E0000040BCC0E0123164D0F0D0E0200504C440
:1030F000C0E0C4B205C0F0122DEDD0F0D5F0EB0267
:103100002E3D122BA02EDA533041582EAB4C2EA759
:103110004230454F304D44304D492EC04330535519
:103120002F84462FE2452F4E473219502EAF2D2EB9
:10313000B32E2ED62B2EB7232ED42032022A2E6F5A
:103140004800002ECEE556B4FF03755606122DC971
:10315000FC122DC9FD122DC9FE122DC9FF784C029B
:103160002797790AA2D5200714300909B91002045B
:1031700004B9080104A2D5200A02500104200668FF
:103180009206B555005034C0E07F203007197F30DB
:10319000A206720A7209500F1231BBC206C20AC2DD
:1031A00009C20C7F30800F300903E9C0E0122E0401
:1031B000300903D0E0F9D0E0B555CC3009177F30A5
:1031C000B9100C122E047F583008077F788003B99D
:1031D0000803122E043006057F2D022E047F2020C6
:1031E0000CF87F2B200AF322920680CF7F00B407D1
:1031F000005005244CF8E6FF22286E756C6C2900FF
:10320000D205122DC93005F8C205785530D5010810
:10321000F6022E6F2D50434958122DC92403B405D0
:10322000004001E490321493122DF5743A122DF5FA
:10323000D207755504023041016D02017000C11CB6
:10324000017100026B0000017200C11D026E0000DE
:10325000016A00C11BC11A4402A60000000042021C
:10326000AA0000017B004202AC00004202AE000056
:10327000017C004202A000004202A20000017A3C50
:103280004202A400004602B0000000000000C12578
:10329000011C01011E01011D00C119C118C19701C6
:1032A0001400011500C1144102B800C11501160037
:1032B000011700C116011800011900011A1F011B96
:1032C00000C12102800000C11EC11FC120C113C165
:1032D00011010C00010D00608101F70000000000E9
:1032E00000000000000000000000000000000000DE
:1032F00000000000000000000000000000000000CE
:1033000000000000000000000000000000000000BD
:1033100000000000000000000000000000000000AD
:10332000000000000000000000000000000000009D
:10333000000000000000000000000000000000008D
:10334000000000000000000000000000000000007D
:103350000000000000000000000000000113010157
:103360000E024101F0214601F1000000000000C101
:10337000104201EE0000040F00001F40C112C10DF9
:10338000C10EC10F010800010900010A00010B0074
:103390004402783F8000004402803F8000004402E5
:1033A000843F80000044027C3F8000004402943F40
:1033B00080000044029C3F8000004C02883A831247
:1033C0006F3A83126F3A83126F440298322BCC7794
:1033D000027D00004202B60000011F02C126017FEB
:1033E000000041542B450D0A0041542B4500415427
:1033F0002B574D4F44453D41500D0A002B6F6B0D2F
:103400000A006F6B0041542B574D4F44453D5354B8
:10341000410D0A0041542B5A0D0A0041542B4E45D0
:1034200054503D5544502C5345525645522C383833
:1034300036362C3139322E3136382E352E310D0AB2
:103440000041542B4E4554503D5544502C53455249
:103450005645522C383836362C3235352E323535E5
:103460002E3235352E3235350D0A0041542B534F4F
:10347000434B423D554450532C383836362C323568
:10348000352E3235352E3235352E3235350D0A0092
:1034900041542B534F434B423D5544502C25642CF3
:1034A00025642E25642E25642E25640D0A00FF3325
:1034B000E2FF33E9FF33E904040096FF33EEFF3304
:1034C000FCFF3402050200C8FF3405FF33FCFF3463
:1034D0000205020096FF3414FF33FCFF340205029C
:1034E00000C8FF341BFF33FCFF3402050200C8FF95
:1034F0003441FF33FCFF3402050200C8FF346BFF88
:1035000033FCFF3402050200C80000000000000088
:1035100000000000000000000000000000000000AB
:10352000000000000000000000000000000000009B
:10353000000000000000000000000000000000008B
:10354000000000000000000000000000000000007B
:10355000000000000000000000000000000000006B
:10356000000000000069276D20554152543120664B
:103570006F7220776966692064617461207472617A
:103580006E736C6174652021212100000000000031
:10359000000000000000000000000000000000002B
:1035A000000000000000000000000000000000001B
:1035B000000000000000000000000000000000000B
:1035C00000000000000000000000000000000000FB
:1035D00000000000000000000000000000000000EB
:1035E00000000000000000000000000000000000DB
:1035F00000000000000000000000000000000000CB
:1036000000000000000000000000000000000000BA
:1036100000000000000000000000000000000000AA
:10362000000000000000000000000000000000009A
:10363000000000000000000000000000000000008A
:10364000500000000000000000000000000000002A
:1036500000000000000A3E3E3D3D3DCAB1BCE4B45E
:10366000C13D3D3D3C3C0A20202020323025642FC6
:10367000253032642F253032642D5725640A2020EE
:10368000202020202020253032643A253032643A30
:10369000253032640A000000000000000000000035
:1036A000000000000000000000000000000000001A
:1036B000000000000000000000000000000000000A
:1036C00000000000000000000000000000000000FA
:1036D00000000000000000000000000000000000EA
:1036E0000000000000001209010A11293700000043
:1036F00000000000787FE4F6D8FD75818202373B38
:10370000021ED9E493A3F8E493A34003F68001F2E8
:1037100008DFF48029E493A3F85407240CC8C333CA
:10372000C4540F4420C8834004F456800146F6DF99
:10373000E4800B0102040810204080903238E47EBF
:10374000019360BCA3FF543F30E509541FFEE4938E
:10375000A360010ECF54C025E060A840B8E493A355
:10376000FAE493A3F8E493A3C8C582C8CAC583CA80
:10377000F0A3C8C582C8CAC583CADFE9DEE780BE38
:10378000EFB40A07740D12378B740A309811A89998
:10379000B8130CC2983098FDA899C298B811F630A9
:1037A00099FDC299F59922E4FFFE122A00600C0FE0
:1037B000EF70010E09E970F20A80EF2202020204A2
:1037C00004040707070606030300000301000000C6
:1037D00000000007020000000000000303000000DA
:1037E00000000001020405000000000504030200BF
:1037F00000000001020607000000000505060403A2
:103800000105000707050601020400060602030180
:103810000407000102050603040000050403030475
:10382000030000050202000000000007040400007D
:103830000000000000000000000000000000000088
:103840000000000000000000000000000000000078
:103850000000000000000000000000000000000068
:103860000000000000000000000000000000000058
:103870000000000000000000000000000000000048
:103880000000000000000000000000000000000038
:103890000000000000000000000000000000000028
:1038A0000000000000000000000000000000000018
:1038B0000000000000000000000000000000000008
:1038C00000000000000000000000000000000000F8
:1038D00000000000000000000000000000000000E8
:1038E00000000000000000000000000000000000D8
:1038F00000000000002F34056C00000000000000F4
:10390000000000000000000000000000002F34054F
:103910006C005000000000000000000000000000EB
:103920000000000000000000000186A003E8144E23
:103930002003E8020BB80BB83CD4C000141F404E63
:0339400020EA601A
:00000001FF
