:0A0000000235265395EF5396EF22C8
:10000B00020800438E805389F0758A50758CFBC2B1
:10001B008DD2A9C2B9D28C22021642E4F52DC21F91
:10002B00FB7A00792DF53F7540017F05FE1219D43F
:10003B00C2929002767403F0A374E8F07F03121C53
:10004B00497FDC7E05022133021A8EE4FF021E0D6E
:10005B00021AE478067C007D017BFF7A34790B7EF3
:10006B00007F2D12282478337C007D017BFF7A34AE
:10007B0079387E007F2D122824E4F52DC200C201B1
:10008B0078607C007D017BFF7A347965FE7F0E12F0
:10009B002824201202217DC2127E007F2D7D007B41
:1000AB00017A007933122BC09001B7E064CC704F0A
:1000BB009001C4E0642D7047A3E064A070419002EE
:1000CB0037E0C3942D403878B17C017D017B017AF8
:1000DB000179BE7E007F061228249001B7E09000C4
:1000EB0033F078347C007D017B017A0179C47E008A
:1000FB007F20122824E4F5139001B0742D803690E4
:10010B0001B7E064AA7035A3E06421702FA3E0640B
:10011B00A07029900237E0B4212278337C007D0156
:10012B007B017A0179B77E007F2112282475130198
:10013B009001B07421F0F52DD20080369001B7E01C
:10014B0064AA7029A3E0B41424900237E0B40E1D06
:10015B0078337C007D017B017A0179B77E007F0EBD
:10016B00122824751302752D14D200800575130304
:10017B00C200300078C202C203C200E52D24EC603D
:10018B005024E76004240C70627B017A0079387D7F
:10019B001C120FD6900037E0B50702D20278387CDC
:1001AB00007D017B017A0279717E007F05122B9C09
:1001BB00EF7002D203900036E0B41402D20290002A
:1001CB0036E0B40902D203A20382035020D201808D
:1001DB001C78367C007D017B017A0279717E007F71
:1001EB0005122B9CEF7006D2018002C20120010286
:1001FB00A17CC201E51314600B147002A12424022C
:10020B006002A17CC202D203900036E0F52E7E0084
:10021B007F2D7D007B017A007906122BC0E52E2401
:10022B00F7B41100400281FF90023D25E05002051A
:10023B008373417B81FF81FF81FF81FF81FF81FF01
:10024B00415F41F181FF81FF610881FF81FF813AAD
:10025B008151816890003EE0146008047008750EAF
:10026B00018003E4F50E90003EE0900011F081FF59
:10027B00E4F52FFB7A00792FF5467547017F05FED4
:10028B00121C86E52F705B78027C007D017BFF7A68
:10029B00347973FE7F0412282478027C007D017B65
:1002AB00017A0079397E007F041228247B017A00C1
:1002BB0079021212E290003FE0F509A3E0F50A7B08
:1002CB00007A007909753F007540017F037E0012AB
:1002DB0019D47B007A00790A753F007540017F04C1
:1002EB00814DC20381FFE4F52FFB7A00792FF54690
:1002FB007547017F05FE121C86E52F81FFE4F52F64
:10030B0078307C00FD7BFF7A347977FE7F071228EB
:10031B002490004DE0F530A3E0F531A3E0F533A3D5
:10032B00E0F53485340BA3E0F535A3E0F5327837EF
:10033B007C007D007B007A0079307E007F071228DD
:10034B0024121979900040E0245F607314700261ED
:10035B00EA240260028128E4F52FE52F75F003A44F
:10036B002441F582E43400F583E0B4803BAF2F7475
:10037B0001A807088002C333D8FC426DE52F75F046
:10038B0003A42441F582E43400F583C083C082E0EA
:10039B00FF900052E014FE7401A806088002C333DC
:1003AB00D8FC4FD082D083F0052FE52FB404AB7B64
:1003BB00017A007941753F0075400C7F1080599090
:1003CB000041E0600E436E02F56FA3E024FF921E26
:1003DB00E48006536EFDE4F56FF568F569803E9099
:1003EB000041E06008436E01F567E48006536EFE42
:1003FB00E4F567F56BF56C7B007A00796E753F0061
:10040B007540017F207E001219D47B007A0079673A
:10041B00753F007540017F217E001219D490003F7B
:10042B00E0900012F0900040E0900013F081FF7517
:10043B002F01D21F7B007A00792F753F0075400189
:10044B007F057E008012E4F52FC21FFB7A00792F07
:10045B00F53F7540017F05FE1219D481FF90003FD7
:10046B00E0900012F0900040E0900013F0900040FC
:10047B002460600A14605214607424A27076E4F550
:10048B002F7B017A007914F54675470C7F10FE120D
:10049B001C86E4F52F74017E00A82F088005C3335A
:1004AB00CE33CED8F9FFEF556D6013E52F75F00302
:1004BB00A42414F582E43400F583E05480F0052F76
:1004CB00E52FB404D0D202802BE569456870028019
:1004DB000FAE68AF697C007D3C1228D6C3E56F9FD9
:1004EB00900014F0A21EE433900015F080069000EB
:1004FB0014E567F030037A7B017A007906852E3B91
:10050B00A20292047D0A12117E7B017A0079069079
:10051B0001B0E0FD1221D98058900035E024DE7047
:10052B0050782E7C007D007BFF7A34797E7E007FB5
:10053B000712282490003CE0F535A3E0F536752E24
:10054B001285352F85363190003BE0F53090003E1B
:10055B00E0F532A3E0F533A3E0F53478377C007D8A
:10056B00007B007A00792E7E007F07122824121957
:10057B00799001AEE0FEA3E0FFE4FCFDAB12AA1103
:10058B00A910A80FD31229394002E103E49001AE60
:10059B00F0A3F0FE7F14FD7B017A007960122BC073
:1005AB0090006074AAF0A37414F0201002C1B9B2C9
:1005BB0010A37422F078637C007D017B017A0279B1
:1005CB00717E007F051228247B007A00790975461D
:1005DB00007547017F037E00121C867B007A007931
:1005EB000A7546007547017F047E00121C86900039
:1005FB0068E509F0A3E50AF0900254E0FCA3E0FDE6
:10060B00A3E0FEA3E0FF122531752E008F2FAC2E39
:10061B00AD2FE41224F8A804A905AA06AB07900293
:10062B0054E0FCA3E0FDA3E0FEA3E0FF1221DF7B7F
:10063B00007A40791C78461222D41225318E308FE5
:10064B003190006AE52FF0EEA3F0A3E531F09002B4
:10065B0044E0FCA3E0FDA3E0FEA3E0FF1225318EF6
:10066B002E8F2FAC2EAD2FE41224F8A804A905AAC7
:10067B0006AB07900244E0FCA3E0FDA3E0FEA3E081
:10068B00FF1221DF7B007A40791C78461222D412AC
:10069B0025318E308F31E52E90006DF0A3E52FF0D4
:1006AB00E530A3F0A3E531F0A3E50BF08035B210F4
:1006BB009000627423F078637C007D017B017A02E9
:1006CB0079717E007F05122824A21FE43390006805
:1006DB00F0A21DE433A3F0A220E433A3F0E56E54A3
:1006EB0001A3F09000727407F0A374ABF07B017A56
:1006FB000079607D141221D9228B2E8A2F89307BB1
:10070B00007A00793175460075470C7F107E001218
:10071B001C86E4F53DE53D75F003A42431F8E65461
:10072B007FFFAB2E75F003E53DA42530F9E52F35A2
:10073B00F0FA12284A54804FFF122890E53D75F0CD
:10074B0003A42431F8E65480C41313135401C433A7
:10075B0033335480FEEF547F4E122890E53D75F0F5
:10076B0003A42432F8E654E0C4135407FDE53D75A9
:10077B00F003A4AB2E2530F9E52F35F0FAE924016F
:10078B00F9E43AFA12284A54F84DFF122890E53D45
:10079B0075F003A42432F8E6541F33333354F8FEB8
:1007AB00EF54074E122890E53D75F003A42433F85F
:1007BB00E6FDE53D75F003A4AB2E2530F9E52F35AD
:1007CB00F0FA900002ED1228A2053DE53D640460AD
:1007DB0002E12022E515D394064006E4F515B21389
:1007EB00220515201303431401AF14121E0DE5143B
:1007FB0025E0F51422C0E0C0F0C083C082C0D075E4
:10080B00D000C000C001C002C003C004C005C006B8
:10081B00C007903763E493FFE579C39F50040579D4
:10082B00804A757900E51D147040301709C2179086
:10083B00025CE4F0A3F0903764E493FE740193FF41
:10084B00C390025DE09F90025CE09E5010A3E00419
:10085B00F0700690025CE004F0B2B2800F90025C84
:10086B00E4F0A3F0D2B2F51D8002D2B2903761E46E
:10087B0093FE740193FFC390026FE09F90026EE0B2
:10088B009E500EA3E004F0705490026EE004F080D2
:10089B004C90026EE4F0A3F0E51C24FE601514608E
:1008AB001714601914601B14601D2405702C12079B
:1008BB00DF802A121ECE8025121EFA8020121F50B6
:1008CB00801B121E3F8016900244E0FCA3E0FDA3A8
:1008DB00E0FEA3E0FF1218008003120056E51E2471
:1008EB00FE601014601814605624036002217FC24E
:1008FB00A52181302004C2A5807CD2A580789037B9
:10090B0066E493FE740193FFC390025FE09F900235
:10091B005EE09E500EA3E004F0705B90025EE0047C
:10092B00F0805390025EE4F0A3F0E5776006157754
:10093B00B2A58042D2A5903768E493F5778030C298
:10094B00A5903769E493FE740193FFC3900261E0B5
:10095B009F900260E09E500EA3E004F0701890028E
:10096B0060E004F08010900260E4F0A3F0D2A57573
:10097B001E028002D2A590375FE493FE740193FFB1
:10098B00C390026DE09F90026CE09E500EA3E004BA
:10099B00F0700690026CE004F0807390026CE4F04F
:1009AB00A3F0E56E30E138AF6F7E007C007D3C122A
:1009BB0028C4C3E5699FE5689E500A0569E569701F
:1009CB001E0568801AE569456860147568007569CD
:1009DB0000536EFD301E05756A008003756A01E5D4
:1009EB006E30E02A302027AF677E007C007D3C1202
:1009FB0028C4C3E56C9FE56B9E500A056CE56C70D3
:100A0B000D056B8009756B00756C00756A0190376D
:100A1B005EE493FFE578C39F5004057861307578E9
:100A2B00009001AFE004F070069001AEE004F030EE
:100A3B001B0878AA06E618700106900276E0700291
:100A4B00A3E06010900277E024FFF0900276E03490
:100A5B00FFF08002D29290375CE493FE740193FF17
:100A6B00C390026BE09F90026AE09E500EA3E004DD
:100A7B00F0700690026AE004F0613090026AE4F0D4
:100A8B00A3F0900240E0FCA3E0FDA3E0FEA3E0FF97
:100A9B0090025812296D302078E4FFFE7DA07C4037
:100AAB00900258E0F8A3E0F9A3E0FAA3E0FB1224CC
:100ABB007A60254023E4FFFE7DA07C40900262E03B
:100ACB00F8A3E0F9A3E0FAA3E0FB12247A6002504A
:100ADB0007751C05D2168039E4FFFE7DA07C409083
:100AEB000262E0F8A3E0F9A3E0FAA3E0FB12247A98
:100AFB00401FE4FFFE7DA07C40900258E0F8A3E08D
:100B0B00F9A3E0FAA3E0FB12247A5005751C00D27E
:100B1B0016900258E0FCA3E0FDA3E0FEA3E0FF90DB
:100B2B00026212296D30113AE50CC3940A50040588
:100B3B000C802F20122AD2127E007F407DFF7B017A
:100B4B007A0179B7122BC0AF0D7E0078B77C017D8F
:100B5B00017B017A0079EE122824900237E50DF023
:100B6B00C21190375812295D900266E0F8A3E0F9A4
:100B7B00A3E0FAA3E0FBD31229395021900266E0DF
:100B8B00FCA3E0FDA3E0FEA3E02401FFE43EFEE4B2
:100B9B003DFDE43CFC90026612296DA18B90026630
:100BAB0012297900000000E4FBFA79A0784090024A
:100BBB0038E0FCA3E0FDA3E0FEA3E0FF1223DD90F1
:100BCB00023C12296DE4FBFA79A07840900240E0D8
:100BDB00FCA3E0FDA3E0FEA3E0FF1223DD90025097
:100BEB0012296DE4FFFE7DA07C40900250E0F8A33B
:100BFB00E0F9A3E0FAA3E0FB12247A600A40083084
:100C0B002005751C06D2163081427FF97E1D7D5C56
:100C1B007C3590023CE0F8A3E0F9A3E0FAA3E0FBFB
:100C2B001222D4A804A905AA06AB077F737EDB7D2D
:100C3B00B67C3E1221DF90023CE0F8A3E0F9A3E082
:100C4B00FAA3E0FB1222D490024880387F7A7E16FA
:100C5B007D257C3690023CE0F8A3E0F9A3E0FAA3F3
:100C6B00E0FB1222D47B4F7A9279E478401221E395
:100C7B0090023CE0F8A3E0F9A3E0FAA3E0FB122218
:100C8B00D490024C12296D7F777ECC7D2B7C3290D9
:100C9B000250E0F8A3E0F9A3E0FAA3E0FB1222D4A0
:100CAB00A804A905AA06AB077F727E277D8D7C4021
:100CBB001221DF900250E0F8A3E0F9A3E0FAA3E0E1
:100CCB00FB1222D490024412296D900250E0FCA337
:100CDB00E0FDA3E0FEA3E0F5288E278D268C257F73
:100CEB00CD7ECC7DCC7C3DAB28AA27A926A825128E
:100CFB00247A500C7528CD7527CC7526CC75253DDF
:100D0B00900254E0F8A3E0F9A3E0FAA3E0FBC000E3
:100D1B00C001C002C0037F007EBA7D5B7C4AAB285A
:100D2B00AA27A926A8251222D4C004C005C006C034
:100D3B0007900244E0FCA3E0FDA3E0FEA3E0FF90DC
:100D4B000240E0F8A3E0F9A3E0FAA3E0FB1222D4FF
:100D5B00D003D002D001D0001223DDD003D002D0BB
:100D6B0001D0001221E390025412296D9002381227
:100D7B002979000000009002401229790000000040
:100D8B00D007D006D005D004D003D002D001D000BC
:100D9B00D0D0D082D083D0F0D0E032E4F52D7802E1
:100DAB007C007D017BFF7A377943FE7F0712282475
:100DBB0078097C007D017BFF7A37794A7E007F0CB6
:100DCB001228247B017A0079021216DC201C28D20F
:100DDB001C7B007A00796E7546007547017F207E7B
:100DEB0000121C867B007A007967754600754701F7
:100DFB007F217E00121C86900007E07011A3E0D3C8
:100E0B00941E500A900254122979000000007B01B5
:100E1B007A007909120704900009E020E718900086
:100E2B000CE020E71190000FE020E70A900012E0A1
:100E3B0020E703C21D22D21DE4F52DE52D75F0032D
:100E4B00A42409F582E43400F583E0547FFD90007F
:100E5B0004E0FF121F264002E1C3E52D75F003A449
:100E6B002409F582E43400F583E0C4131313540111
:100E7B0020E002E1C3E52D75F003A4240AF582E41A
:100E8B003400F583E0131313541FFF7E007C007DA9
:100E9B003C1228C4E52D75F003A4240BF582E43431
:100EAB0000F583E02FFBEC3EFA900006E0FF7E009E
:100EBB001228C4A3E02FFFEC3EFEEF6B7002EE6A2C
:100ECB007068A3E0D39405506174017E00A82D08CF
:100EDB008005C333CE33CED8F9FFEF556D602CAF01
:100EEB002D7401A807088002C333D8FCF4526DE5BA
:100EFB002D75F003A42410FFE435F0FE7BFF7A3749
:100F0B007956753F007540011219D4E52D75F00324
:100F1B00A4240AF582E43400F583E0540730E0059D
:100F2B00E4F56AE1C3756A01E1C3E52D75F003A42D
:100F3B00240AF582E43400F583E0131313541FFFE6
:100F4B007E007C007D3C1228C4E52D75F003A424A3
:100F5B000BF582E43400F583E02FFBEC3EFA9000B6
:100F6B0006E0FF7E001228C4A3E02FFFEC3EFED369
:100F7B00EF9BEE9A404274017E00A82D088005C3BA
:100F8B0033CE33CED8F9FFEF556D602CAF2D7401F6
:100F9B00A807088002C333D8FCF4526DE52D75F019
:100FAB0003A42410FFE435F0FE7BFF7A37795775E5
:100FBB003F007540011219D4052DE52DC394045043
:100FCB0002C14622F9E43538FA7D1C8B3C8A3D89F7
:100FDB003EE4FFFEEFC39D5013AB3CAA3DA93E8FF1
:100FEB00827583001228632EFE0F80E86306FF6371
:100FFB0006A7AF062278027C007D017BFF7A33794E
:10100B004D7E007F0412282478067C007D017BFF37
:10101B007A3379517E007F28122824752D13752E73
:10102B0088C2A67F2C7E01122133D2A67FB87E0BFD
:10103B008014309316E52E152EAE2D7002152D4E05
:10104B0060097F017E0012213380E7E52E452D706C
:10105B0002C3227F0F121B3A400122121D004001D6
:10106B00227F0A7E001221337A33790C121D044041
:10107B000122783A7C007D007BFF7A337926121DA2
:10108B000C4001227B017A007902754600754704FA
:10109B007F307E00121C86753DFF753E32753FD446
:1010AB00900002E0754000F541A3E0754200F54366
:1010BB00A3E0754400F545A3E0754600F5477B01B9
:1010CB007A007906122C6F7F0A7E00122133754B42
:1010DB00FF754C33754D29754EFF754F3375502F7A
:1010EB00903331E493F551740193F5527553057BAD
:1010FB00017A00790612159F4001227F0A7E0012A9
:10110B002133903319E493FB740193FA740293F92E
:10111B001235D9AD07903319E493FB740193FA742C
:10112B000293F91221D97FC87E0012213390331913
:10113B00E493FB740193FA740293F91235D9AD075A
:10114B00903319E493FB740193FA740293F912210F
:10115B00D9309316E52E152EAE2D7002152D4E603F
:10116B00097F017E0012213380E7E52E452DD370D8
:10117B0001C3228B378A3889398D3A9001B0E0242C
:10118B00DF7002417724F4600241E1786E7C007DD0
:10119B00017BFF7A3379CB7E007F20122824AB377B
:1011AB00AA38A93974CC122890AB37E5392401F948
:1011BB00E43538FA786E7C007D017E007F201228A2
:1011CB0024E539240DF9E43538A801FCAD377B0152
:1011DB007A00796E7E007F20122824E5392401F9EC
:1011EB00E43538A801FCAD377B017A0179B17E007B
:1011FB007F06122824E5392408F9E43538A801FCC8
:10120B00AD377B017A0279717E007F05122824AB02
:10121B0037AA38A93990000D742D1228A290000E10
:10122B00E53A1228A290000FE53B1228A220040EEB
:10123B00AB37AA38A93990001674071228A2E539E2
:10124B002411F9E43538A801FCAD377B017A02791A
:10125B00717E007F05122824AB37E5392411120F5C
:10126B00CFAB37AA38A9399000108066AB37AA38B4
:10127B00A93974AA122890AB37AA38A93990000162
:10128B0074211228A2900002E53A1228A2900003C2
:10129B00E53B1228A220040EAB37AA38A9399000DF
:1012AB000A74071228A2E5392405F9E43538A80198
:1012BB00FCAD377B017A0279717E007F0512282401
:1012CB00AB37E5392405120FCFAB37AA38A93990C4
:1012DB000004EF1228A2228B378A388939787D7C5B
:1012EB00007D007BFF7A3379797E007F28122824DA
:1012FB0078A57C007D007BFF7A3379A17E007F048B
:10130B001228247B007A0079A57546007547047F67
:10131B00307E00121C8678A57C007D00AB37AA3886
:10132B00A9397E007F04122B9CEF7002D322AB37BE
:10133B00AA38A939753F007540047F307E00121919
:10134B00D4753DFF753E32753FD4AB37AA38A939FA
:10135B0012284A754000F54190000112286375422E
:10136B0000F543900002122863754400F545900088
:10137B0003122863754600F5477B007A00797D12CE
:10138B002C6F7F0A121B3A400122121D00400122D2
:10139B00754BFF754C33754D29754EFF754F337576
:1013AB00502F903331E493F551740193F5527553EB
:1013BB00057B007A00797D12159F4001229033192D
:1013CB00E493FB740193FA740293F91235D9AD07C8
:1013DB00903319E493FB740193FA740293F912217D
:1013EB00D97FC87E00122133903319E493FB74012B
:1013FB0093FA740293F91235D9AD07903319E4932C
:10140B00FB740193FA740293F91221D9D322782D2C
:10141B007C007D007BFF7A37792B7E007F141228AE
:10142B00247F0A7E001221337B007A00792D7546CA
:10143B00007547017F017E00121C867F0A7E001219
:10144B002133E52D64A1700281EFE4FFFE122088A9
:10145B007F0A7E00122133752DA17B007A00792D36
:10146B007546007547017F017E00121CC37F0A7E03
:10147B0000122133E4F52DFB7A00792DF5467547E3
:10148B00017F05FE121CC37F0A7E001221337E00F2
:10149B007F0C7D007B007A00792D122BC07B007AAC
:1014AB0000792D75460075470D7F107E00121CC309
:1014BB007F0A7E00122133782D7C007D007BFF7A22
:1014CB0037793F7E007F041228247B007A00792D28
:1014DB007546007547047F307E00121CC37F0A7E61
:1014EB0000122133228B2D8A2E892F1221D3406299
:1014FB00D21A201B02D21B78A9E6FE08E6FFD39076
:10150B00376D7401939FE4939E5019C390376F749A
:10151B0001939FE4939E400C201809AA31A9321223
:10152B002A10D21878A9E6FE08E6FFD390376F741D
:10153B0001939FE4939E505BC39037717401939F0B
:10154B00E4939E404E20194BAA34A935122A10D28F
:10155B001922201803301903751E02C21B301A33CF
:10156B00C21A78A9E6FE08E6FFD390376D74019393
:10157B009FE4939E401390376B7401939FE4939E6B
:10158B005007AA2EA92F122A10E478A9F608F6C242
:10159B0018C219228B488A49894AE4F554F555F546
:1015AB0056F557C212F554E554C395534002C1404A
:1015BB00855156855257AB48AA49A94A1235D9AD20
:1015CB0007AB48AA49A94A1221D9E5571557AE5678
:1015DB00700215564E605A7F027E00122133301274
:1015EB00E9C212E4F555E555C3940250DD9002377C
:1015FB00E0FDAB4BAA4CA94D75F003E555A4F58264
:10160B0085F0831229BA8B5C8A5D895EAB4EAA4F3B
:10161B00A950855582758300122863F55F7B017A8B
:10162B000179B7121772EA494B6002D32205558034
:10163B00B50554A1B2C322C0E0C0F0C083C082C0C4
:10164B00D075D000C000C001C002C003C004C005EB
:10165B00C006C007C2AF309831C298E576702B2018
:10166B001114D211F50CF50DFE7F407DFF7B017A35
:10167B000079EE122BC0AF0D050D74EE2FF582E441
:10168B003400F583E599F0750C00309927C299E584
:10169B00716572601C742E2571F582E43401F5833B
:1016AB00E0F5990571E571C3948040087571008070
:1016BB0003757300D2AFD007D006D005D004D0038A
:1016CB00D002D001D000D0D0D082D083D0F0D0E0E7
:1016DB00328B2E8A2F89307F08121EA0122191ABDC
:1016EB002EAA2FA930EF1228907F07121EA01221CD
:1016FB0091AB2EAA2FA930900001EF1228A27F06E2
:10170B00121EA0122191AB2EAA2FA930900002EF2E
:10171B001228A27F05121EA0122191AB2EAA2FA96F
:10172B0030900003EF1228A27F04121EA012219109
:10173B00AB2EAA2FA930900004EF1228A27F031220
:10174B001EA0122191AB2EAA2FA930900005EF12EB
:10175B0028A27F02121EA0122191AB2EAA2FA93014
:10176B00900006EF0228A28D5B8B588A59895AE4A8
:10177B00F5608B618A628963855C64855D65855ED6
:10178B0066C3E563955AFFE5629559FE7C00EF252C
:10179B005FFFEC3EFED3EF955B7480F86E9850477D
:1017AB00AB640566E566AA657002056514F9122837
:1017BB004AFFAB610563E563AA627002056214F927
:1017CB0012284AB507130560E560B55FD3C3E5631F
:1017DB00955FF9E5629400FA22855C64855D658509
:1017EB005E66E4F560809A7B007A00790022000047
:1017FB007F03DFFE228F2C8E2B8D2A8C2943A08F0B
:10180B00E4FFFE7DA07C40AB2CAA2BA92AA82912B1
:10181B00247A60044002C2A0E4FFFE7DC87C42AB88
:10182B002CAA2BA92AA82912247A60044002C2A14F
:10183B00E4FFFE7D487C43AB2CAA2BA92AA82912D6
:10184B00247A60044002C2A2E4FFFE7D967C43AB87
:10185B002CAA2BA92AA82912247A60044002C2A31D
:10186B00E4FFFE7DC87C43AB2CAA2BA92AA8291226
:10187B00247A60044002C2A7228B3275330AEF75BB
:10188B00F032A4AEF02464F535E43EF534AE04AF8B
:10189B00057C037DE81228C4AC34AD351228D68EF6
:1018AB00368F37E4FBFAC3EB9537EA9536503DC2DA
:1018BB00B2E533FD7C00AE34AF351228D6AD327CA9
:1018CB00001228C4122148D2B2E533F582AE34AFF0
:1018DB0035FD1228D6C3E5829532FDE49400FC1247
:1018EB0028C41221480BBB00010A80BA22C2AFD216
:1018FB00BCE598543F4440F598E4753034F52FF52A
:10190B002EF52DC39530F530E4952FF52F740195F9
:10191B002EF52EE4952DF52DAF30AE2FAD2EFC7898
:10192B000812294A8FD68530D7538EEF438E015339
:10193B008EF7438E0453AFFB538EF7438E10D2AC0E
:10194B00D29C53A23F7E007F807D007B017A017980
:10195B002E122BC0D2AF7BFF7A3379A502216E7882
:10196B00377C007BFF7A3579187F07122824AF3735
:10197B0012215BAD077F08121FC3AF3812215BAD7D
:10198B00077F07121FC3E539600BFF12215BAD0701
:10199B007F06121FC3AF3A12215BAD077F05121FE3
:1019AB00C3AF3B12215BAD077F04121FC3AF3C12C9
:1019BB00215BAD077F03121FC3E53D600BFF1221B7
:1019CB005BAD077F02121FC3228E3A8F3B8B3C8A83
:1019DB003D893E786E7C007D017BFF7A3679757E82
:1019EB00007F801228247B017A00796E7546007582
:1019FB004780E4FFFE121C86E4FF122088AE3FAF47
:101A0B0040746E253BF97400353AA801FC7D01AB9F
:101A1B003CAA3DA93E1228247B017A00796E7546BB
:101A2B0000754780E4FFFE021CC3E4F52DEF24FE96
:101A3B00600B14600C2402700AB2208006D2208046
:101A4B0002C220302007D216751C038005751C04BA
:101A5B00D216751E02751D01302005E4F56BF56C71
:101A6B00A22092B3E51FB40119A220E433F52D7B1C
:101A7B00007A00792D753F007540017F027E0012C0
:101A8B0019D422C0E0C0F0C083C082C0D075D00092
:101A9B00C000C001C002C003C004C005C006C0071F
:101AAB00900240E0FCA3E0FDA3E0FEA3E0FFE4FB1B
:101ABB00FA7980783F1221E390024012296DD0070A
:101ACB00D006D005D004D003D002D001D000D0D0A6
:101ADB00D082D083D0F0D0E032C0E0C0F0C083C061
:101AEB0082C0D075D000C000C001C002C003C004CA
:101AFB00C005C006C007900238E0FCA3E0FDA3E0E0
:101B0B00FEA3E0FFE4FBFA7980783F1221E3900219
:101B1B003812296DD007D006D005D004D003D002DF
:101B2B00D001D000D0D0D082D083D0F0D0E0328F93
:101B3B003A853A3BE59964616014153BE53B600ED1
:101B4B007F2B1221D67FC87E0012213380E6E53B26
:101B5B007002C322853A3BE59964416014153BE55D
:101B6B003B600E7F611221D67F647E001221338091
:101B7B00E6E53BD37002C32222E4787DF653B1F73E
:101B8B0043B208C2B3E51FB4011C7B007A00797D18
:101B9B007546007547017F027E00121C86787DE634
:101BAB0024FF92208014E4787DF6FB7A00797DF592
:101BBB003F7540017F02FE1219D4A22092B322A2DC
:101BCB000D301D01B34016A20E302001B3400EA202
:101BDB000F301F01B34006E508656E6021E5122446
:101BEB009CFEE51134FF9001AEF0A3CEF0C210A223
:101BFB001D920DA220920EA21F920F856E0822AD90
:101C0B0007121F777B077A00121F77C2967F01128C
:101C1B001F7DAF03EDA807088002C313D8FC30E08B
:101C2B0004D2968002C296121F79D297121F79EBBB
:101C3B001B70011ABAFFD1BBFFCE121F77228F2E5A
:101C4B00E4F52FE52E9035EE93FFE52FC39F502A39
:101C5B00E52E75F008A424FDF582E43435F583E513
:101C6B0082252FF582E43583F583E493FF7B087D92
:101C7B00047C00122119052F80C922AD07AC06C2C6
:101C8B00AF75C78075C5018CC3AF058FC475C65AB8
:101C9B0075C6A500E5C21228900DBD00010C74019C
:101CAB0029F9E43AFAE547154770021546144546FB
:101CBB0070D51221A0D2AF22AD07AC06C2AF75C74B
:101CCB008075C5028CC3AF058FC412284AF5C27547
:101CDB00C65A75C6A5000DBD00010C740129F9E4A7
:101CEB003AFAE54715477002154614454670D5126A
:101CFB0021A0D2AF227A3279F2783A7C007D007B38
:101D0B00FF7E007F0D122824754705754B00754C1F
:101D1B0000754D3D754E00754F007550438545510F
:101D2B00854652854753AB3AAA3BA93C12159F22D5
:101D3B00121419121DDB751C02751E027F0A121C70
:101D4B0049120DA6121E7112005E121BCA7530FFCE
:101D5B007531217532C27533FF7534217535C87BEA
:101D6B00FF7A2179CE1214F080D7E4FDFBFAC297EB
:101D7B007F01FE121F7DD2977F01121F7D309610BF
:101D8B00C3EB94D0EA940750070BBB00010A80ED1C
:101D9B00A296E433FD121F79C297AF0522E4FDC270
:101DAB00977F01FE121F7D7B077A00ED25E0FDD2A8
:101DBB0097121F7930960543050180035305FE12D8
:101DCB001F77EB1B70011ABAFFE1BBFFDEAF0522D9
:101DDB001220A71220C412000E121FE71221BB12F1
:101DEB0021AE1220001220231200031218F8121B2E
:101DFB0084538EFDD2AF751E01751C01121000505D
:101E0B00FB22EF30E004C2A08002D2A0EF30E1044D
:101E1B00C2A18002D2A1EF30E204C2A28002D2A200
:101E2B00EF30E304C2A38002D2A3EF30E403C2A7D6
:101E3B0022D2A722301609C216E4F517C215F516E1
:101E4B00E517D394064006E4F517B215220517AF34
:101E5B0016121E0DE51620150825E0F51643160182
:101E6B0022C313F51622E50E14600A04700F750ECB
:101E7B00027F028005750E027F03121A35E56A1484
:101E8B00600A04700F756A027F028005756A027F13
:101E9B0003121A3522AC07E4FDFF1220697FA21250
:101EAB001C0A121D75AF04121C0A121D7512206933
:101EBB007FA3121C0A121D75121DA8AD071220E17B
:101ECB00AF0522900278E0D39410400AE4F0FF12A1
:101EDB001E0D751C0622900278E004F0E020E00253
:101EEB00B214301404E4FF80027FFF121E0D223067
:101EFB001607C216E4F519F518E519D39406400A2E
:101F0B00E4F519751C06FF021E0D0519AF18121EFC
:101F1B000DE51825E0F51843180122AC07A9051C9F
:101F2B00E4FD74017E00A805088005C333CE33CED3
:101F3B00D8F9FFE9FBEF5B6006EDB50402D3220D88
:101F4B00BD07DFC322301608C216E4F51B751A1F36
:101F5B00E51BD394064007E4F51BFF021E0D051B82
:101F6B00AF1A121E0DE51AC313F51A22C2977F0181
:101F7B007E00EF25E07901F3EE3319F3780008E2E8
:101F8B0024FFFFF218E234FFF24F60051217F980BD
:101F9B00EB228B588A59895AE4FEEEC39D5018AB3D
:101FAB0058055AE55AAA597002055914F912284ACC
:101FBB00FF1220460E80E3228F3EAC05E4FF122079
:101FCB00697FA2121C0A121D75AF3E121C0A121D4C
:101FDB0075AF04121C0A121D750220E15393FD43C9
:101FEB00940243B1C053B23F438F10438F20C2B80A
:101FFB00C2BAD2812253B1FB43B2047B087D037C6E
:10200B00007F031221197F327E001221337B087D62
:10201B00037C007F030221195395BF4396405391D4
:10202B00FB4392044391085392F753B1FD43B20221
:10203B0043B10153B2FED2A6D29222742E2572F571
:10204B0082E43401F583EFF00572E572C3948040AE
:10205B0003E4F572E5737005757301D29922121FB3
:10206B0077D2967F01121F7DD2977F01121F7DC2FF
:10207B00967F01121F7DC2977F01021F7DAD07ACBA
:10208B0006C2AF8CC3AF058FC475C78075C503750A
:10209B00C65A75C6A5001221A0D2AF227FF87E3F8B
:1020AB00EF24FAFFEE34FFFAA9077BFF78707C026E
:1020BB007D017E007F06022824E4F52DFB7A007952
:1020CB002DF5467547017F05FE121C86E52D600335
:1020DB00D21F22C21F22C296121F79D2977F0112E2
:1020EB001F7DD2967F01121F7DC2977F05121F7D28
:1020FB00D29722C2929002767413F0A37488F07F69
:10210B0004121C497F707E171221330200008F309E
:10211B008B31AF05A907E9600EAB317D327C00AF87
:10212B00301218841980EF22AB07AA06EB1B700143
:10213B001A144A60077F0112218180F022EF1F7071
:10214B00011E144E60090000000000000080EE220A
:10215B00EF75F00A84C454F0FEEF75F00A84E5F0D5
:10216B002EFF2212284AFF600C122046740129F917
:10217B00E43AFA80EE227D367C07ED1D70011C14CB
:10218B004C70F7DFF122EFC4540F75F00AA4FEEF89
:10219B00540F2EFF22E4F5C7F5C5F5C675C3FF75C1
:1021AB00C4FF224395204396205395504396AF226C
:1021BB0053913F53923F22751E03020026751E0456
:1021CB000220FE7F01021A35A2A422022046021F22
:1021DB009D02259DE86480F8E933E83360110460C3
:1021EB00F0ED33EC337009E8FCE9FDEAFEEBFF227E
:1021FB000460DED3EB9FEA9EE99DE8C2E78CF0C258
:10220B00F795F0400CE8CCF8E9CDF9EACEFAEBCF34
:10221B00FB12256885D0F05804700320D5B3E80471
:10222B0070075002B2D50225A792D5EC0460F7E4F3
:10223B00CCC0E0C398F8603B94186008400DD0E028
:10224B00FB02257FE4FBFAC9FC8028E830E406E4B6
:10225B00C9FBE4CAFCE830E305E4C9CACBFCE8548B
:10226B00076010F8C3E913F9EA13FAEB13FBEC134D
:10227B00FCD8F130F52FC3E49CFCEF9BFFEE9AFEEC
:10228B00ED99FDD0E0FBEF4E4D4C701222DB0302BB
:10229B0025A4EC2CFCEF33FFEE33FEED33FDED30DC
:1022AB00E7EB02257FEF2BFFEE3AFEED39FDD0E099
:1022BB00FB50130BBB00030225A7ED13FDEE13FE22
:1022CB00EF13FFEC13FC02257FEC4D6011E8497016
:1022DB0017ED33EC3304600DE4FCFFFEFD22E93314
:1022EB00E8330470F802259D12256858046009E450
:1022FB00CC248150062850090225A728400302252B
:10230B00A4C0E0EB4A7044B98006D0E0FB022593F1
:10231B00EF4E701CBD8008EBFFEAFEE9FD80EBE998
:10232B008DF0A4FEE5F00223BDE9CDF9EAFEEBFF4B
:10233B00EF89F0A4FCE5F0CE89F0A42EFFE435F094
:10234B00CD89F0A42DFEE435F08067EF4E7005BD0E
:10235B0080D780C3EF8BF0A4ACF0EE8BF0A42CFCF9
:10236B00E435F0F8EF8AF0A42CE5F038FCE433CB3D
:10237B008DF0A42CFCE5F03BF8EE8AF0A42CFCE5E8
:10238B00F038F8E433CF89F0A42CFCE5F038CF34E7
:10239B0000CE89F0A42FFFE5F03EFEE433C98DF0AB
:1023AB00A42EFEE5F039CD8AF0A42FFFE5F03EFE1A
:1023BB00E43DFD33D0E0FB50070BBB000F0225A71C
:1023CB00EC2CFCEF33FFEE33FEED33FD02257F02E9
:1023DB0025A7EC5D046005E85904700302259D12E6
:1023EB002568580460F6EC4860F2EC7004FDFEFFC3
:1023FB0022C860DB2481C85009C3986002500602D2
:10240B0025A49850CAF582E9294B4A7005AB820284
:10241B00259375F0007C1A7880C3EF9BEE9AED99AB
:10242B00400DC3EF9BFFEE9AFEED99FDE842F0DC09
:10243B0023ACF0D0E0FFD0E0FED0E0FDAB8220E794
:10244B00101BEB60BAEC2CFCEF33FFEE33FEED33DD
:10245B00FD02257FE803F830E705C0F075F000EFCB
:10246B002FFFEE33FEED33FD40B830E7C280AA7488
:10247B00F8CC6480CCC86480C8F58204604FC3EB91
:10248B009FF5F0EA9E42F0E99D42F0E89C45F06032
:10249B003C501DE5825FFFE582D313CB5BCBF42B66
:1024AB005582FB50280ABA002409B9002008801D68
:1024BB00E5825BFBE582D313CF5FCFF4C3132F55BC
:1024CB0082FF50090EBE00050DBD00010CC3EB9F32
:1024DB00F5F0EA9E42F0E99D42F0E89C45F060077A
:1024EB00CC4820E701B3EC2275F020800E75F0107C
:1024FB00800575F0087D007E007F003392D530D5C6
:10250B000312292BEC334010EF33FFEE33FEED3388
:10251B00FDEC33FCD5F0ED22E5F0247EA2D513CCF7
:10252B0092E7CDCEFF22EDD2E7CD33EC3392D5241B
:10253B00814006E4FFFEFDFC22FCE4CFCECDCC2493
:10254B00E0501174FF80EDC3CC13CCCD13CDCE1363
:10255B00CECF13CF0470F030D5DE02292BE9D2E7B2
:10256B00C933E833F892D5EDD2E7CD33EC33FC50D9
:10257B0002B2D522EC30E7100FBF000C0EBE0008E4
:10258B000DBD00040BEB6014A2D5EB13FCED92E731
:10259B00FD2274FFFCFDFEFF22E480F8A2D574FF40
:1025AB0013FC7D80E480EFF920E72824F9500379B0
:1025BB0007E4F42402FB18DBFDE624FB5014E9606E
:1025CB000DE4F618E604F6B40A08E4F6D9F574013E
:1025DB00F60A22C2D522ED33EC3392D5FA602AB437
:1025EB00FF33EDC2E77BFF60067A267906E4227A99
:1025FB0026790F20D5047A26790A224E614E002BBC
:10260B00494E46002D494E4600E47A08F608DAFC9E
:10261B007B00740722E8C0E0ECC0E0EDC0E0EEC048
:10262B00E0EFC0E0EA75F010A4CAABF075F04DA472
:10263B002BFBE435F0FCEA2410FAEB34C5FBEC344D
:10264B00D9FCEDC2E7FF75F056A4F42411C5F0F4E4
:10265B0034C58FF0A42AE5F03BE43CF620E71412D6
:10266B002714D0E0FFD0E0FED0E0FDD0E0FC122339
:10267B00DD8014F404122714D0E0FFD0E0FED0E08C
:10268B00FDD0E0FC1222D4D0E0F8E6FAEDD2E7CD93
:10269B0033EC332482FBE4C3CF33CFCE33CECD33F5
:1026AB00CD33DBF37B0775F00A846004F6081B0A55
:1026BB00E5F0F6088FF0740AA4FFACF08EF0740A04
:1026CB00A42CFEACF050010C8DF0740AA42CFDE48C
:1026DB0035F0F608DBDE7407223F80000041200056
:1026EB000042C80000447A0000461C400047C3501B
:1026FB0000497424004B1896804CBEBC205A0E1B0C
:10270B00CA6753C21C749DC5AEFB60065407601CA0
:10271B002323122742EB5438600912272E12273D30
:10272B001222D4ECF8EDF9EEFAEFCB22EB12273DA7
:10273B0080F1543803241C9026E4FE93FC0EEE9398
:10274B00FD0EEE930ECE93FF22E709F608DFFA801B
:10275B0046E709F208DFFA803E88828C83E709F0AE
:10276B00A3DFFA8032E309F608DFFA8078E309F297
:10277B0008DFFA807088828C83E309F0A3DFFA808C
:10278B006489828A83E0A3F608DFFA805889828AFB
:10279B0083E0A3F208DFFA804C80D280FA80C680F7
:1027AB00D4806980F28033801080A680EA809A8082
:1027BB00A880DA80E280CA803389828A83ECFAE4CB
:1027CB0093A3C8C582C8CCC583CCF0A3C8C582C8A7
:1027DB00CCC583CCDFE9DEE7800D89828A83E49365
:1027EB00A3F608DFF9ECFAA9F0EDFB2289828A83C4
:1027FB00ECFAE0A3C8C582C8CCC583CCF0A3C8C58E
:10280B0082C8CCC583CCDFEADEE880DB89828A8391
:10281B00E493A3F208DFF980CC88F0EF60010E4E51
:10282B0060C388F0ED2402B4040050B9F582EB24A8
:10283B0002B4040050AF23234582239027A473BB1B
:10284B00010689828A83E0225002E722BBFE02E363
:10285B002289828A83E49322BB010CE58229F582CB
:10286B00E5833AF583E0225006E92582F8E622BBA0
:10287B00FE06E92582F8E222E58229F582E5833A14
:10288B00F583E49322BB010689828A83F0225002EE
:10289B00F722BBFE01F322F8BB010DE58229F5827D
:1028AB00E5833AF583E8F0225006E92582C8F62243
:1028BB00BBFE05E92582C8F222EF8DF0A4A8F0CF6C
:1028CB008CF0A428CE8DF0A42EFE22BC000BBE00F3
:1028DB0029EF8DF084FFADF022E4CCF875F008EF12
:1028EB002FFFEE33FEEC33FCEE9DEC984005FCEE37
:1028FB009DFE0FD5F0E9E4CEFD22EDF8F5F0EE8468
:10290B0020D21CFEADF075F008EF2FFFED33FD402C
:10291B0007985006D5F0F222C398FD0FD5F0EA22A6
:10292B00C3E49FFFE49EFEE49DFDE49CFC22EB9F31
:10293B00F5F0EA9E42F0E99D42F0E89C45F022E872
:10294B00600FECC313FCED13FDEE13FEEF13FFD87A
:10295B00F122E493FC740193FD740293FE740393D0
:10296B00FF22ECF0A3EDF0A3EEF0A3EFF022A88290
:10297B008583F0D083D0821229901229901229904E
:10298B00122990E473E493A3C583C5F0C583C8C52E
:10299B0082C8F0A3C583C5F0C583C8C582C822FA17
:1029AB00E6FB0808E6F925F0F618E6CA3AF622BB6C
:1029BB00010DE58229F582E5833AF583022BF5506B
:1029CB0007E92582F8022BECBBFE07E92582F8020A
:1029DB002BFEE58229F582E5833AF583022C07D09D
:1029EB0083D082F8E4937012740193700DA3A393B8
:1029FB00F8740193F5828883E4737402936860EF33
:102A0B00A3A3A380DF8A838982E473E3F5F009E251
:102A1B0008B5F06BDFF58067E3F5F009E608B5F074
:102A2B005EDFF5805A87F009E608B5F052DFF680D5
:102A3B004E87F009E208B5F046DFF6804288828CBB
:102A4B008387F009E0A3B5F036DFF6803288828CFD
:102A5B008387F009E493A3B5F025DFF58021888205
:102A6B008C83E3F5F009E0A3B5F014DFF580108853
:102A7B00828C83E3F5F009E493A3B5F002DFF40253
:102A8B002B45808780E9809080D4803E8015806EB6
:102A9B00807E809D80B7808D80A380518074803C28
:102AAB00022B5189828A83ECFAE493F5F0A3C8C513
:102ABB0082C8CCC583CCE493A3C8C582C8CCC583DC
:102ACB00CCB5F076DFE3DEE1807089828A83E49314
:102ADB00F5F0A3E208B5F062DFF4805E89828A83A9
:102AEB00E0F5F0A3E608B5F051DFF5804D89828A59
:102AFB0083E0F5F0A3E208B5F040DFF5803C898276
:102B0B008A83E493F5F0A3E608B5F02EDFF4802A70
:102B1B008002805789828A83ECFAE493F5F0A3C88C
:102B2B00C582C8CCC583CCE0A3C8C582C8CCC5833D
:102B3B00CCB5F006DFE4DEE280007FFFB5F0020FDC
:102B4B002240027F012289828A83ECFAE0F5F0A30E
:102B5B00C8C582C8CCC583CCE0A3C8C582C8CCC5C8
:102B6B0083CCB5F0D5DFE5DEE380CF89828A83ECB9
:102B7B00FAE0F5F0A3C8C582C8CCC583CCE493A317
:102B8B00C8C582C8CCC583CCB5F0AFDFE4DEE2802C
:102B9B00A988F0EF60010E4E60ABED2402B4040087
:102BAB005098F582EB2402B40400508E2323458207
:102BBB0023902A8D73EF4E6012EF60010EEDBB0177
:102BCB000B89828A83F0A3DFFCDEFA2289F050079F
:102BDB00F709DFFCA9F022BBFEFCF309DFFCA9F02F
:102BEB0022E6FB08E6FA08E6F922E0FBA3E0FAA3EB
:102BFB00E0F922E2FB08E2FA08E2F922E493FB7423
:102C0B000193FA740293F922E551243DF8E605513C
:102C1B0022783A300B02783DE475F0011229AA02B2
:102C2B00284A2004EB7F2ED2048018EF540F2490F7
:102C3B00D43440D4FF30080BEF24BFB41A00500338
:102C4B002461FFE552600215520555E555700205EA
:102C5B0054300B0D783AE475F0011229AAEF0228D3
:102C6B00900235B27403D20B8003E4C20BF5518B87
:102C7B003A8A3B893CE4F552F554F555E552600729
:102C8B007F20122C4E80F57553FFC205C204C2067D
:102C9B00C207C209C20AC20C122C1CFF700D300BEA
:102CAB00057F00122C5FAF55AE5422B4255FC2D501
:102CBB00C208122C1CFF24D0B40A00501A75F00A5B
:102CCB00785230D50508B6FF0106C6A426F620D5E6
:102CDB00047002D20780D924CFB41A00EF5004C27B
:102CEB00E5D208022F4CD20580C6D20480C0D20692
:102CFB0080BCD2D580BAD20980B47F20122C4E2052
:102D0B0006077401B5520040F1122C13FF122C4E22
:102D1B00022C87D20CD20A8095122C13FB122C1387
:102D2B00FA122C13F94A4B700679437A307BFF2049
:102D3B00062EE552602A7E008E8275830012286370
:102D4B0060060EEE655370F0C2D5EBC0E0EAC0E052
:102D5B00E9C0E0EE122FACD0E0F9D0E0FAD0E0FB06
:102D6B0012284AFF60AAEBC0E0EAC0E0E9C0E0121B
:102D7B002C4ED0E02401F9D0E03400FAD0E0FBE592
:102D8B00530460DCD553D98087D20680A2122F8FD3
:102D9B0060F7E5537001041225B2A953600DE5539A
:102DAB00600914F553123036EF60F3EA30E702F4A2
:102DBB0004C3995077EAF425530430E701E404F592
:102DCB0053800D122F8F60C1EA055325531225B284
:102DDB00EA7850F630E701E4255304D55304200973
:102DEB000114122FACE4C0E01230367850E66013B9
:102DFB0020E70714F6122C36802204F6D0E014C01C
:102E0B00E07F00122C36E5536007122C2D155380F2
:102E1B000B300903122C2DD0E0022C87D0E004805C
:102E2B00C5122F8F60A0E553041225B27850EAF635
:102E3B00E5532009026001042404122FAC74FF0433
:102E4B00C0E0123036122C36E55320090260031213
:102E5B002C2DD0E0B553E87F45122C407850E67FFF
:102E6B002B30E7047F2DF404C0E0122C4ED0E0751C
:102E7B00F00A84C0F0122C37D0E0122C37022C87CA
:102E8B00791080027908C20AC20C8008D2D5790A5F
:102E9B008004790AC2D5E553047002F553E4FAFDB8
:102EAB00FEFF122C13FC7B08200513122C13FD7B49
:102EBB001030040A122C13FE122C13FF7B20EC3360
:102ECB0082D592D55013C3E43004069FFFE49EFED7
:102EDB00E42005039DFDE49CFCE4CBF8C205EC70FB
:102EEB000CCFCECDCCE824F8F870F38017C3EF33BA
:102EFB00FFEE33FEED33FDEC33FCEB33FB9940027D
:102F0B00FB0FD8E9EB300505F8D0E0C448B205C09B
:102F1B00E00AEC4D4E4F78207B0070C2EAB55300AF
:102F2B0040BCC0E0122FAED0F0D0E0200504C4C0EE
:102F3B00E0C4B205C0F0122C37D0F0D5F0EB022C68
:102F4B00871229EA2D24532E8B582CF54C2CF14249
:102F5B002E8F4F2E97442E97492D0A432E9D552D7C
:102F6B00CE462E2C452D98473063502CF92D2CFD39
:102F7B002E2D202B2D01232D1E20304C2A2CB94811
:102F8B0000002D18E553B4FF03755306122C13FCE8
:102F9B00122C13FD122C13FE122C13FF7849022551
:102FAB00E1790AA2D5200714300909B910020404EB
:102FBB00B9080104A2D5200A025001042006689228
:102FCB0006B552005034C0E07F203007197F30A285
:102FDB0006720A7209500F123005C206C20AC209E4
:102FEB00C20C7F30800F300903E9C0E0122C4E3049
:102FFB000903D0E0F9D0E0B552CC3009177F30B9D6
:10300B00100C122C4E7F583008077F788003B908BC
:10301B0003122C4E3006057F2D022C4E7F20200CE8
:10302B00F87F2B200AF322920680CF7F00B4070093
:10303B0050052449F8E6FF22286E756C6C2900D2E6
:10304B0005122C133005F8C205785230D50108F65D
:10305B00022CB92D50434958122C132403B40500EC
:10306B004001E490305E93122C3F743A122C3FD205
:10307B0007755204022E8B016A02016D00C11D01FE
:10308B006E0002680000016F00C11E026B000001A0
:10309B006700C11C4402660000000042026A000087
:1030AB0001780042026C000042026E0000017900C0
:1030BB0042025C000042025E000001773C4202606B
:1030CB000000440262000000004602700000000095
:1030DB000000C11F011C01011E01011D00C117C110
:1030EB0016011400011500C11341027800C114012F
:1030FB001600011700C115011800011900011A1F54
:10310B00011B00C11B02A90000C118C119C11AC1C2
:10311B0012C111010C00010D00608101B70000000C
:10312B000000000000000000000000000000000094
:10313B000000000000000000000000000000000084
:10314B000000000000000000000000000000000074
:10315B000000000000000000000000000000000064
:10316B000000000000000000000000000000000054
:10317B000000000000000000000000000000000044
:10318B000000000000000000000000000000000034
:10319B000000000000000000000000000000011310
:1031AB0001010E024101B0214601B10000000000F7
:1031BB0000C1104201AE0000040F00001F40C10D02
:1031CB00C10EC10F010800010900010A00010B002B
:1031DB004402383F8000004402403F80000044021C
:1031EB003C3F8000004402503F8000004402583FA7
:1031FB008000004C02443A83126F3A83126F3A8379
:10320B00126F440254322BCC77027A0000420276C2
:10321B000000011F02C120017C000041542B450D11
:10322B000A0041542B450041542B574D4F44453D0B
:10323B0041500D0A002B6F6B0D0A006F6B00415450
:10324B002B574D4F44453D5354410D0A0041542BD0
:10325B005A0D0A0041542B4E4554503D5544502CA9
:10326B005345525645522C383836362C3139322E7E
:10327B003136382E352E310D0A0041542B4E455424
:10328B00503D5544502C5345525645522C383836E8
:10329B00362C3235352E3235352E3235352E3235FC
:1032AB00350D0A0041542B534F434B423D5544506F
:1032BB00532C383836362C3235352E3235352E32B6
:1032CB0035352E3235350D0A0041542B534F434BB8
:1032DB00423D5544502C38302C25642E25642E2528
:1032EB00642E25640D0A00FF3226FF322DFF322D8E
:1032FB0004040096FF3232FF3240FF3246050200D3
:10330B00C8FF3249FF3240FF324605020096FF32BA
:10331B0058FF3240FF3246050200C8FF325FFF32D2
:10332B0040FF3246050200C8FF3285FF3240FF32B4
:10333B0046050200C8FF32AFFF3240FF324605029E
:10334B0000C80000000000000000000000000000AA
:10335B000000000000000000000000000000000062
:10336B000000000000000000000000000000000052
:10337B000000000000000000000000000000000042
:10338B000000000000000000000000000000000032
:10339B000000000000000000000069276D2055416F
:1033AB0052543120666F72207769666920646174AC
:1033BB0061207472616E736C617465202121210030
:1033CB0000000000000000000000000000000000F2
:1033DB0000000000000000000000000000000000E2
:1033EB0000000000000000000000000000000000D2
:1033FB0000000000000000000000000000000000C2
:10340B0000000000000000000000000000000000B1
:10341B0000000000000000000000000000000000A1
:10342B000000000000000000000000000000000091
:10343B000000000000000000000000000000000081
:10344B000000000000000000000000000000000071
:10345B000000000000000000000000000000000061
:10346B000000000000000000000000000000000051
:10347B00000000000000000000000A3E3E3D3D3D04
:10348B00CAB1BCE4B4C13D3D3D3C3C0A20202020E8
:10349B00323025642F253032642F253032642D577E
:1034AB00253031640A202020202020202025303296
:1034BB00643A253032643A253032640A0000000049
:1034CB0000000000000000000000000000000000F1
:1034DB0000000000000000000000000000000000E1
:1034EB0000000000000000000000000000000000D1
:1034FB0000000000000000000000000000000000C1
:10350B000000000000000000000000000012050495
:10351B000309261700000000000000787FE4F6D8AE
:10352B00FD7581AA02356D021D3BE493A3F8E4936C
:10353B00A34003F68001F208DFF48029E493A3F89B
:10354B005407240CC8C333C4540F4420C88340040D
:10355B00F456800146F6DFE4800B010204081020CC
:10356B004080903082E47E019360BCA3FF543F30D7
:10357B00E509541FFEE493A360010ECF54C025E070
:10358B0060A840B8E493A3FAE493A3F8E493A3C828
:10359B00C582C8CAC583CAF0A3C8C582C8CAC583B9
:1035AB00CADFE9DEE780BEEFB40A07740D1235BD42
:1035BB00740A309811A899B8130CC2983098FDA8CA
:1035CB0099C298B811F63099FDC299F59922E4FF8A
:1035DB00FE12284A600C0FEF70010E09E970F20A17
:1035EB0080EF220202020404040707070606030306
:1035FB0000000301000000000000070200000000B3
:10360B00000003030000000000000102040500009D
:10361B000000050403020000000001020607000081
:10362B000000050506040301050007070506010256
:10363B000400060602030104070001020506030449
:10364B000000050403030403000005020200000050
:10365B000000070404000000000000000000000050
:10366B00000000000000000000000000000000004F
:10367B00000000000000000000000000000000003F
:10368B00000000000000000000000000000000002F
:10369B00000000000000000000000000000000001F
:1036AB00000000000000000000000000000000000F
:1036BB0000000000000000000000000000000000FF
:1036CB0000000000000000000000000000000000EF
:1036DB0000000000000000000000000000000000DF
:1036EB0000000000000000000000000000000000CF
:1036FB0000000000000000000000000000000000BF
:10370B0000000000000000000000000000000000AE
:10371B000000000000000000000000002F34056CCA
:10372B00000000000000000000000000000000008E
:10373B00000000002F34056C0000000000000000AA
:10374B0000000000000000000000000000000186E7
:10375B00A003E8144E2003E8020BB80BB83CD4C00E
:08376B0000141F404E20EA602B
:00000001FF
